:020000040000fa
:080000000002040000000000f2
:020000040000fa
:0400080002030000ef
:020000040000fa
:04000c0044030000a9
:020000040000fa
:040010008403000065
:020000040000fa
:0400140022030000c3
:020000040000fa
:04001800640300007d
:020000040000fa
:04001c00d804000004
:020000040000fa
:04002000a403000035
:020000040000fa
:04002400d8040000fc
:020000040000fa
:04002800d8040000f8
:020000040000fa
:04002c00d8040000f4
:020000040000fa
:04003000d8040000f0
:020000040000fa
:04003400d8040000ec
:020000040000fa
:04003800d8040000e8
:020000040000fa
:04003c00d8040000e4
:020000040000fa
:04004000d8040000e0
:020000040000fa
:04004400d8040000dc
:020000040000fa
:04004800d8040000d8
:020000040000fa
:04004c00d8040000d4
:020000040000fa
:04005000d8040000d0
:020000040000fa
:040054004e04000056
:020000040000fa
:04005800ee030000b3
:020000040000fa
:04005c00d8040000c4
:020000040000fa
:04006000d8040000c0
:020000040000fa
:04006400d8040000bc
:020000040000fa
:04006800d8040000b8
:020000040000fa
:04006c00d8040000b4
:020000040000fa
:04007000d8040000b0
:020000040000fa
:04007400d8040000ac
:020000040000fa
:04007800d8040000a8
:020000040000fa
:04007c00d8040000a4
:020000040000fa
:04008000d8040000a0
:020000040000fa
:04008400d80400009c
:020000040000fa
:04008800d804000098
:020000040000fa
:04008c00d804000094
:020000040000fa
:04009000d804000090
:020000040000fa
:04009400d80400008c
:020000040000fa
:04009800d804000088
:020000040000fa
:04009c00d804000084
:020000040000fa
:0400a000d804000080
:020000040000fa
:0400a400d80400007c
:020000040000fa
:0400a800d804000078
:020000040000fa
:0400ac00d804000074
:020000040000fa
:0400b000d804000070
:020000040000fa
:0400b400d80400006c
:020000040000fa
:0400b800d804000068
:020000040000fa
:0400bc00d804000064
:020000040000fa
:0400c000d804000060
:020000040000fa
:0400c400d80400005c
:020000040000fa
:0400c800d804000058
:020000040000fa
:0400cc00d804000054
:020000040000fa
:0400d000d804000050
:020000040000fa
:0400d400d80400004c
:020000040000fa
:0400d800d804000048
:020000040000fa
:0400dc00d804000044
:020000040000fa
:0400e000d804000040
:020000040000fa
:0400e400d80400003c
:020000040000fa
:0400e800d804000038
:020000040000fa
:0400ec00ba04000052
:020000040000fa
:0400f000d804000030
:020000040000fa
:0400f400d80400002c
:020000040000fa
:0400f800d804000028
:020000040000fa
:0400fc00d804000024
:020000040000fa
:04010000d80400001f
:020000040000fa
:04010400d80400001b
:020000040000fa
:04010800d804000017
:020000040000fa
:04010c00d804000013
:020000040000fa
:04011000d80400000f
:020000040000fa
:04011400d80400000b
:020000040000fa
:04011800d804000007
:020000040000fa
:04011c00d804000003
:020000040000fa
:04012000d8040000ff
:020000040000fa
:04012400d8040000fb
:020000040000fa
:04012800d8040000f7
:020000040000fa
:04012c00d8040000f3
:020000040000fa
:04013000d8040000ef
:020000040000fa
:04013400d8040000eb
:020000040000fa
:04013800d8040000e7
:020000040000fa
:04013c00d8040000e3
:020000040000fa
:04014000d8040000df
:020000040000fa
:04014400d8040000db
:020000040000fa
:04014800d8040000d7
:020000040000fa
:04014c00d8040000d3
:020000040000fa
:04015000d8040000cf
:020000040000fa
:04015400d8040000cb
:020000040000fa
:04015800d8040000c7
:020000040000fa
:04015c00d8040000c3
:020000040000fa
:04016000d8040000bf
:020000040000fa
:04016400d8040000bb
:020000040000fa
:04016800d8040000b7
:020000040000fa
:04016c00d8040000b3
:020000040000fa
:04017000d8040000af
:020000040000fa
:04017400d8040000ab
:020000040000fa
:04017800d8040000a7
:020000040000fa
:04017c00d8040000a3
:020000040000fa
:04018000d80400009f
:020000040000fa
:04018400d80400009b
:020000040000fa
:04018800d804000097
:020000040000fa
:04018c00d804000093
:020000040000fa
:04019000d80400008f
:020000040000fa
:04019400d80400008b
:020000040000fa
:04019800d804000087
:020000040000fa
:04019c00d804000083
:020000040000fa
:0401a000d80400007f
:020000040000fa
:0401a400d80400007b
:020000040000fa
:0401a800d804000077
:020000040000fa
:0401ac00d804000073
:020000040000fa
:0401b000d80400006f
:020000040000fa
:0401b400d80400006b
:020000040000fa
:0401b800d804000067
:020000040000fa
:0401bc00d804000063
:020000040000fa
:0401c000d80400005f
:020000040000fa
:0401c400d80400005b
:020000040000fa
:0401c800d804000057
:020000040000fa
:0401cc00d804000053
:020000040000fa
:0401d000d80400004f
:020000040000fa
:0401d400d80400004b
:020000040000fa
:0401d800d804000047
:020000040000fa
:0401dc00d804000043
:020000040000fa
:0401e000d80400003f
:020000040000fa
:0401e400d80400003b
:020000040000fa
:0401e800d804000037
:020000040000fa
:0401ec00d804000033
:020000040000fa
:0401f000d80400002f
:020000040000fa
:0401f400d80400002b
:020000040000fa
:0401f800d804000027
:020000040000fa
:0401fc00d804000023
:020000040000fa
:04020000d80400001e
:020000040000fa
:04020400d80400001a
:020000040000fa
:04020800d804000016
:020000040000fa
:04020c00d804000012
:020000040000fa
:04021000d80400000e
:020000040000fa
:04021400d80400000a
:020000040000fa
:04021800d804000006
:020000040000fa
:04021c00d804000002
:020000040000fa
:04022000d8040000fe
:020000040000fa
:04022400d8040000fa
:020000040000fa
:04022800d8040000f6
:020000040000fa
:04022c00d8040000f2
:020000040000fa
:04023000d8040000ee
:020000040000fa
:04023400d8040000ea
:020000040000fa
:04023800d8040000e6
:020000040000fa
:04023c00d8040000e2
:020000040000fa
:04024000d8040000de
:020000040000fa
:04024400d8040000da
:020000040000fa
:04024800d8040000d6
:020000040000fa
:04024c00d8040000d2
:020000040000fa
:04025000d8040000ce
:020000040000fa
:04025400d8040000ca
:020000040000fa
:04025800d8040000c6
:020000040000fa
:04025c00d8040000c2
:020000040000fa
:04026000d8040000be
:020000040000fa
:04026400d8040000ba
:020000040000fa
:04026800d8040000b6
:020000040000fa
:04026c00d8040000b2
:020000040000fa
:04027000d8040000ae
:020000040000fa
:04027400d8040000aa
:020000040000fa
:04027800d8040000a6
:020000040000fa
:04027c00d8040000a2
:020000040000fa
:04028000d80400009e
:020000040000fa
:04028400d80400009a
:020000040000fa
:04028800d804000096
:020000040000fa
:04028c00d804000092
:020000040000fa
:04029000d80400008e
:020000040000fa
:04029400d80400008a
:020000040000fa
:04029800d804000086
:020000040000fa
:04029c00d804000082
:020000040000fa
:0402a000d80400007e
:020000040000fa
:0402a400d80400007a
:020000040000fa
:0402a800d804000076
:020000040000fa
:0402ac00d804000072
:020000040000fa
:0402b000d80400006e
:020000040000fa
:0402b400d80400006a
:020000040000fa
:0402b800d804000066
:020000040000fa
:0402bc00d804000062
:020000040000fa
:0402c000d80400005e
:020000040000fa
:0402c400d80400005a
:020000040000fa
:0402c800d804000056
:020000040000fa
:0402cc00d804000052
:020000040000fa
:0402d000d80400004e
:020000040000fa
:0402d400d80400004a
:020000040000fa
:0402d800d804000046
:020000040000fa
:0402dc00d804000042
:020000040000fa
:0402e000d80400003e
:020000040000fa
:0402e400d80400003a
:020000040000fa
:0402e800d804000036
:020000040000fa
:0402ec00d804000032
:020000040000fa
:0402f000d80400002e
:020000040000fa
:0402f400d80400002a
:020000040000fa
:0402f800d804000026
:020000040000fa
:0402fc00d804000022
:020000040000fa
:04030000d80400001d
:020000040000fa
:04030400d804000019
:020000040000fa
:04030800d804000015
:020000040000fa
:04030c00d804000011
:020000040000fa
:04031000d80400000d
:020000040000fa
:04031400d804000009
:020000040000fa
:04031800d804000005
:020000040000fa
:04031c00d004000009
:020000040000fa
:04032000d8040000fd
:020000040000fa
:04032400d8040000f9
:020000040000fa
:04032800d8040000f5
:020000040000fa
:04032c00d8040000f1
:020000040000fa
:04033000d8040000ed
:020000040000fa
:04033400d8040000e9
:020000040000fa
:100400006f0421000eff26000e018800000000008e
:10041000000020000000e000020032000001200087
:100420002002880014000700630107000000e000bc
:1004300003003a0060a52000010020000200370000
:100440000000200001002000810f70000100320038
:100450000f000700000020000000e0000200320052
:100460000000020000000000a40a020000000000da
:100470000040da000000fe00200020000000e00044
:1004800002003200100020009001880000000600e9
:10049000a1028800800478000000eb001f003700f4
:1004a000e284440054a0b4009905ba00e2844400f8
:1004b00054a0b4009906ba00e284440054a0b400e9
:1004c0000006eb00476fde00fd07b200ae018800ba
:1004d000636ce10003003a000ad801000000eb0061
:1004e0000e003700606ce10008003a00004deb00a0
:1004f0000a05e800020039003420ec000af0a000f0
:100500008b05e900f9ff3e00040037006168e10057
:10051000010032000086eb000b00070019c7ba008b
:100520001905ba000e04e00003003a000a00e000da
:10053000dbff3a0000000600fe07b200ae028800b2
:100540008a047800f5ff37000cd0a300e20f4d00bd
:100550001c003b0089027800354dba000a05e8000e
:10056000020039003420ec000af0a0008b05e900fd
:100570000f003200254dba000a05e80002003900dc
:100580003420ec000af0a0008b05e90008003200de
:100590000c00e0000600320015cdba000a05e800a4
:1005a000020039003420ec000af0a0008b05e900bd
:1005b0008984e80054a0b4000b00e000e2ff3a0098
:1005c000000006009902ba00055d78008b05e9007d
:1005d000f7ff3200c82ade00055d78008b05e900d0
:1005e000f3ff32000c00e000f1ff320019ddba0029
:1005f000eeff37004605040000000000640504001b
:10060000000000003600f800809fbe00829fbe0000
:10061000849fbe00869fbe000000fa00c028a9008b
:100620000000eb00b20307000080fa004f03be0099
:100630004f02be004f01be004f00be003600f90061
:10064000004006003600f800809fbe00829fbe007a
:10065000849fbe00869fbe000000fa00ab03070027
:10066000c048a90010002000a10307000080fa0084
:100670004f03be004f02be004f01be004f00be0040
:100680003600f900004006003600f800809fbe00ea
:10069000829fbe00849fbe00869fbe000000fa00bd
:1006a000c068a90020002000910307000080fa0024
:1006b0004f03be004f02be004f01be004f00be0000
:1006c0003600f900004006003600f800809fbe00aa
:1006d000829fbe00849fbe00869fbe000000fa007d
:1006e000c088a90030002000810307000080fa00c4
:1006f0004f03be004f02be004f01be004f00be00c0
:100700003600f900004006003600f800809fbe0069
:10071000829fbe00849fbe00869fbe000000fa003c
:10072000c608a90070002000710307000080fa00cd
:100730004f03be004f02be004f01be004f00be007f
:100740003600f900004006003600f800809fbe0029
:10075000829fbe00849fbe00869fbe000000fa00fc
:100760002146800000102000008060000000e000b2
:1007700003003200c508a900c00020005c03070088
:100780002146800000022000008060000000e000a0
:1007900003003200c4a8a900900020005403070001
:1007a00020468000700060000000e000030032007e
:1007b000c488a900a00020004d0307002046800047
:1007c000610060000000e00003003200c408a900de
:1007d000b000200046030700ffff37003600f80096
:1007e000809fbe00829fbe00849fbe00869fbe0089
:1007f0000000fa00508080000000e000020032009b
:100800005080800000000100318080002080800046
:10081000808f500002003a002188a900180037009c
:100820000188a900100037003080800090407800d7
:100830008180fb00411288000000e80030808800c1
:1008400031808000d0032100808f500002003a00e8
:1008500040032100308088003180800020808000ab
:10086000808f500005003200f011800070006000a1
:100870000000e000ecff3200010037000000000043
:100880000080fa004f03be004f02be004f01be00c1
:100890004f00be003600f900004006003600f800a8
:1008a000809fbe00829fbe00849fbe00869fbe00c8
:1008b0000000fa000168a9001e00370000808000d7
:1008c000211280008140780001487800018080007a
:1008d00050042100808f5000090032000080800009
:1008e0008000e80010808000808f500004003200fb
:1008f000008080000000e800008088000d003700c4
:100900000180800050042100808f500007003a00d1
:1009100011808000d0032100808f5000030032003e
:10092000d0032100008088000200370010c0b3000f
:1009300008f0b700f0118000620060000000e000e5
:10094000deff3200608080000000e0000200320024
:1009500060808000000001000080fa004f03be00ac
:100960004f02be004f01be004f00be003600f9002e
:1009700000400600801f78000000fa00e0118000af
:10098000620060000000e000010032003c22a9008b
:100990000628a9000080fa004f00780000400600f9
:1009a0000000fa0017a8a9000080fa000040060025
:0c09b0000040da000000fe00000005001e
:020000040000fa
:1009bc000000fa002188a9002168a9000008200085
:1009cc00c01188003a22ef003c22ef0020022000e8
:1009dc00f0118800007a2000001288004222ef00fb
:1009ec004c22ef004e22ef005022ef005222ef007b
:1009fc005422ef005622ef005822ef005a22ef004b
:100a0c005c22ef004003210030808800400321006d
:100a1c0020808800d003210010808800d0032100a2
:100a2c00008088000870ef00605420000800070068
:100a3c0040562000150007002168a80039e2a800e4
:100a4c0038a2a8003882a8000080fa000000060036
:100a5c000200fa00000f78001e0078000000e00091
:100a6c0003003a00605420005080880002003700d8
:100a7c009e007800518088000080fa00000006007b
:100a8c000000fa000080fa00000006000200fa00e4
:100a9c00000f78001e0078000000e00003003a0010
:100aac004056200060808800020037009e007800cd
:100abc00618088000080fa00000006000000fa0047
:100acc000080fa00000006000200fa000040eb0073
:100adc00004f780000000000118080000080800032
:100aec00808f5000fcff320010808000104f780087
:100afc00108080000000e8001080880011808000c9
:100b0c0060042100808f500002003a00d0032100c5
:100b1c00108088001e4078000080fa00000006005b
:100b2c000200fa00004f7800000000001c000700d3
:100b3c000004a2000004e000fcff3a0020808000ca
:100b4c001e487800208080000000e800208088008b
:100b5c0021808000d0032100808f500002003a00d9
:100b6c0040032100208088002188a8000080fa0022
:100b7c00000006000000fa00118080000080800058
:100b8c000080680000f0a7000000ea000000ea0006
:100b9c004f00de00004078000080fa0000000600e4
:100bac000400fa0031808000110798002180800039
:100bbc001e009000808f5000060031009e009000b7
:100bcc0020808000008050000000e900000f7800b9
:100bdc00050037009e0090002080800000805000af
:100bec0068004000000f78001e00780000f0a7009d
:100bfc000000ea000000ea004f00de000040780030
:100c0c000080fa00000006000000fa00218080003d
:100c1c0030808000808f500009003a00e111800084
:100c2c00000820000080600000f0a7000000ea002f
:100c3c000000ea004f00de000040780001003700a1
:100c4c000040eb000080fa00000006000400fa00ef
:100c5c000180800011079800108080009e00900099
:100c6c00808f5000060031009e00900010808000a4
:100c7c000080500069004000000f7800030037002e
:100c8c009e00900010808000008f5000f00f20001c
:100c9c009e007800808f50000200360000c0eb00f0
:100cac00020037001e007800004078000080fa0037
:100cbc00000006000400fa00318080001107980043
:100ccc00218080001e009000808f500006003100b3
:100cdc009e00900020808000008050000000e90001
:100cec00000f7800050037009e00900020808000e7
:100cfc000080500068004000000f7800f00f2000ca
:100d0c009e007800808f50000200360000c0eb007f
:100d1c00020037001e007800004078000080fa00c6
:100d2c00000006000800fa00200798003107980020
:100d3c00c6ff07000080fb00000f78003e0090000b
:100d4c009e0f500002003100be009000010f780091
:100d5c000000eb0010079800090037005aff07004d
:100d6c00ae009000804878002e0090000000e80053
:100d7c00200798001e0090000000e8001007980063
:100d8c001e0090009e0f5000f4ff39001e007800ea
:100d9c000080fa00000006000800fa002007980006
:100dac0031079800c3ff07000080fb00000f78009c
:100dbc003e0090009e0f500002003100be009000db
:100dcc00010f78000000eb001007980009003700b5
:100ddc002e00900010407800ae0090008100e800da
:100dec00210798004eff07001e0090000000e8004d
:100dfc00100798001e0090009e0f5000f4ff390061
:100e0c001e0078000080fa00000006000400fa00c2
:100e1c000000eb00000f78008cff070020479800c3
:100e2c00a4ff0700304798002e4090000080fb0084
:100e3c000000e00003003200e90f50000300320014
:100e4c00040037001e20a000040037001e00a00084
:100e5c00020037001e10a000000000003e40900071
:100e6c000080fb000000e00003003200e90f50009e
:100e7c0003003200040037001e30a00002003700cf
:100e8c001e40a000000000001e0078000080fa0048
:100e9c00000006000400fa00100798001180800082
:100eac001e009000008f4000020037009e0078006a
:100ebc00698f5000600421009e007800808f5000e4
:100ecc00faff3e001e007800104078000080fa0007
:100edc00000006000000fa005cff07000080fb0029
:100eec000000e9004f00de00004078000080fa00ae
:100efc00000006000000fa006eff07000080fb00f7
:100f0c000000e9004f00de00004078000080fa008d
:100f1c00000006000400fa00f01180008000eb00d5
:100f2c00008fbe001e00be00c001dd0002002000cc
:100f3c00e01180008000eb000000710081807100e6
:100f4c000080fa00000006000000fa0059ff0700bc
:100f5c000004e0001000320031808000208080000e
:100f6c00808f5000060036003080800080007800b2
:100f7c0020808000008050000000e900070037004e
:100f8c00308080008000780020808000008050003d
:100f9c0068004000010037000000eb000080fa0000
:100fac00000006000000fa0028ff07000004e00023
:100fbc00100032001180800000808000808f500073
:100fcc0006003600108080008000780000808000d1
:100fdc00008050000000e9000700370010808000fe
:100fec008000780000808000008050006800400085
:100ffc00010037000000eb000080fa000000060042
:10100c000000fa0039e2a80038a2a8003882a80033
:10101c000080fa00000006000000fa0039e2a90086
:10102c0038a2a9003882a9000080fa00000006004e
:10103c000000fa00007c80000080fa00000006002e
:10104c000200fa00faff0700000f78001e0078007b
:10105c00240007000004e000020032000000280019
:10106c00710007001e0078002a0007000004e00051
:10107c0002003200000024006b0007001e00780004
:10108c00320007000004e0000200320000202000c3
:10109c00650007001e0078003a0007000004e0001d
:1010ac0002003200000820005f0007001e007800dc
:1010bc00420007000004e00002003200000420009f
:1010cc00590007001e0078004a0007000004e000e9
:1010dc000200320000012000530007000080fa00db
:1010ec00000006000400fa00100798000040eb0016
:1010fc00004f78001e0090000000e00002003d0050
:10110c0010c0b300004f78001e4078000080fa0039
:10111c00000006000400fa00100798000040eb00e5
:10112c00004f78009e0090000000240000806000ba
:10113c000000e0000200320010c0b300004f780045
:10114c001e4078000080fa00000006000400fa003f
:10115c00100798000040eb00004f78009e009000b4
:10116c0000202000008060000000e000020032003f
:10117c0010c0b300004f78001e4078000080fa00c9
:10118c00000006000400fa00100798000040eb0075
:10119c00004f78009e009000000820000080600046
:1011ac000000e0000200320010c0b300004f7800d5
:1011bc001e4078000080fa00000006000400fa00cf
:1011cc00100798000040eb00004f78009e00900044
:1011dc0000042000008060000000e00002003200eb
:1011ec0010c0b300004f78001e4078000080fa0059
:1011fc00000006000400fa00100798000040eb0005
:10120c00004f78001e009000700060000000e000ad
:10121c000200320010c0b300004f78001e4078006e
:10122c000080fa00000006000200fa00000f7800af
:10123c009e80ea00007c800000806000007c8800ba
:10124c000080fa00000006000000fa00802fef007a
:10125c000080fa00000006000000fa0010002300d5
:10126c00307c880060092000407c88008c2fef00c7
:10127c0010042000507c880010102000707c880026
:10128c0060092000807c880010042000907c88007d
:10129c009a2fef00b82fef00ba2fef00be2fef0000
:1012ac00002def00a02fef00a42fef00a62fef00d2
:1012bc00a82fef00aa2fef00ae2fef00b02fef00fa
:1012cc00b22fef003200200080072000a10920007f
:1012dc0053f82000804978008149780082497800d1
:1012ec000001eb00600420007105200043f8200091
:1012fc008049780081497800824978000080fa00a2
:10130c00000006000000fa00707c8000ee800a00ed
:10131c00000000000080fb0000f0a7000000ea00c5
:10132c000000ea004f00de00004078000080fa0068
:10133c00000006000000fa00062eef00222eef003f
:10134c003e2eef005a2eef00762eef00f00120001b
:10135c0010708800d0ff2f00f07088000080eb0028
:10136c00d07188000080eb00b0728800f0ff210083
:10137c00907388000c2eef00282eef00442eef0007
:10138c00602eef007c2eef000a2eef00262eef00d1
:10139c00422eef005e2eef007a2eef00082eef00ab
:1013ac00242eef00402eef005c2eef00782eef0085
:1013bc00f001200000708800c0092000e070880057
:1013cc00f00c2000c071880000c02200a0728800c0
:1013dc00f0002000807388000080fa0000000600f6
:1013ec000200fa00000f780021028000200f20007c
:1013fc00008060001e007000200288000080fa004f
:10140c00000006000000fa00c3e8a800000000007d
:10141c00000000000080fa00000006000000fa0046
:10142c00c4ff07008cff07000600070060fd0700e3
:10143c00f4ff070000022000e9ff07000080fa001b
:10144c00000006000000fa00f1448000f0f82f00c4
:10145c00008060000040a000f04488003142800011
:10146c0080ff2f00008060000000a0003042880048
:10147c00c1428000f0f82f00008060000040a00006
:10148c00c042880021428000f0ff280000806000ec
:10149c0000c0a000204288000080fa000000060076
:020000040000fa
:1014ac00141000002000000080000000121000004a
:1014bc000200000082000000ffff0000341000005a
:1014cc001200000080000000001000000e00000060
:1014dc00800000000e1000000400000080000000de
:0414ec0000000000fc
:020000040000fa
:1014f0000200fa00000f78009e00780091808800ba
:101500000000fe000080fa00000006000000fa0063
:101510004001210080077800c002210000018800fe
:101520000080fa0000000600809fbe00ec8057009b
:1015300031007800708088001100780010f0b7004a
:101540004f00be00000006000000fa00b6ff0700d2
:0815500077eea800ffff370051
:020000040000fa
:020000040005f5
:047e0000ffffff0081
:020000040000fa
:020000040005f5
:047e2000ffffff0061
:020000040000fa
:020000040005f5
:047e3000fbffff0055
:020000040000fa
:020000040005f5
:047e3800bcffff008c
:020000040000fa
:020000040005f5
:047e40007f7fff0041
:020000040000fa
:020000040005f5
:047e4800ffffff0039
:020000040000fa
:020000040005f5
:047e5000dfffff0051
:020000040000fa
:020000040005f5
:047e58000000ff0027
:020000040000fa
:020000040005f5
:047e60000000ff001f
:020000040000fa
:020000040005f5
:047e68000000ff0017
:020000040000fa
:020000040005f5
:047e70000000ff000f
:020000040000fa
:020000040005f5
:047e7800ffffff0009
:020000040000fa
:020000040005f5
:047e8000fffcff0004
:020000040000fa
:020000040005f5
:047e8800ffffff00f9
:020000040000fa
:020000040005f5
:047ff800ffffff0088
:020000040000fa
:020000040100f9
:04300000ffffff00cf
:00000001FF
