:020000040000fa
:080000000002040000000000f2
:020000040000fa
:040008007805000077
:020000040000fa
:04000c00ba05000031
:020000040000fa
:04001000fa050000ed
:020000040000fa
:04001400980500004b
:020000040000fa
:04001800da05000005
:020000040000fa
:04001c0038080000a0
:020000040000fa
:040020001a060000bc
:020000040000fa
:040024003808000098
:020000040000fa
:040028003808000094
:020000040000fa
:04002c004e0700007b
:020000040000fa
:04003000380800008c
:020000040000fa
:040034003808000088
:020000040000fa
:040038003808000084
:020000040000fa
:04003c003808000080
:020000040000fa
:04004000380800007c
:020000040000fa
:040044003808000078
:020000040000fa
:040048003808000074
:020000040000fa
:04004c003808000070
:020000040000fa
:04005000380800006c
:020000040000fa
:04005400c4060000de
:020000040000fa
:04005800640600003a
:020000040000fa
:04005c003808000060
:020000040000fa
:04006000380800005c
:020000040000fa
:040064003808000058
:020000040000fa
:040068003808000054
:020000040000fa
:04006c002603000067
:020000040000fa
:04007000380800004c
:020000040000fa
:040074003808000048
:020000040000fa
:040078003808000044
:020000040000fa
:04007c003808000040
:020000040000fa
:04008000380800003c
:020000040000fa
:040084003808000038
:020000040000fa
:040088003808000034
:020000040000fa
:04008c003808000030
:020000040000fa
:04009000380800002c
:020000040000fa
:040094003808000028
:020000040000fa
:040098003808000024
:020000040000fa
:04009c003808000020
:020000040000fa
:0400a000380800001c
:020000040000fa
:0400a4003808000018
:020000040000fa
:0400a8003808000014
:020000040000fa
:0400ac003808000010
:020000040000fa
:0400b000380800000c
:020000040000fa
:0400b4003808000008
:020000040000fa
:0400b8003808000004
:020000040000fa
:0400bc003808000000
:020000040000fa
:0400c00038080000fc
:020000040000fa
:0400c40038080000f8
:020000040000fa
:0400c80038080000f4
:020000040000fa
:0400cc0038080000f0
:020000040000fa
:0400d00038080000ec
:020000040000fa
:0400d40038080000e8
:020000040000fa
:0400d80038080000e4
:020000040000fa
:0400dc0038080000e0
:020000040000fa
:0400e00038080000dc
:020000040000fa
:0400e40038080000d8
:020000040000fa
:0400e80038080000d4
:020000040000fa
:0400ec0030070000d9
:020000040000fa
:0400f00038080000cc
:020000040000fa
:0400f40038080000c8
:020000040000fa
:0400f80038080000c4
:020000040000fa
:0400fc0038080000c0
:020000040000fa
:0401000038080000bb
:020000040000fa
:0401040038080000b7
:020000040000fa
:0401080038080000b3
:020000040000fa
:04010c0038080000af
:020000040000fa
:0401100038080000ab
:020000040000fa
:0401140038080000a7
:020000040000fa
:0401180038080000a3
:020000040000fa
:04011c00380800009f
:020000040000fa
:04012000380800009b
:020000040000fa
:040124003808000097
:020000040000fa
:040128003808000093
:020000040000fa
:04012c00380800008f
:020000040000fa
:04013000380800008b
:020000040000fa
:040134003808000087
:020000040000fa
:040138003808000083
:020000040000fa
:04013c00380800007f
:020000040000fa
:04014000380800007b
:020000040000fa
:040144003808000077
:020000040000fa
:040148003808000073
:020000040000fa
:04014c00380800006f
:020000040000fa
:04015000380800006b
:020000040000fa
:040154003808000067
:020000040000fa
:040158003808000063
:020000040000fa
:04015c00380800005f
:020000040000fa
:04016000380800005b
:020000040000fa
:040164003808000057
:020000040000fa
:040168003808000053
:020000040000fa
:04016c00380800004f
:020000040000fa
:04017000380800004b
:020000040000fa
:040174003808000047
:020000040000fa
:040178003808000043
:020000040000fa
:04017c00380800003f
:020000040000fa
:04018000380800003b
:020000040000fa
:040184003808000037
:020000040000fa
:040188003808000033
:020000040000fa
:04018c00380800002f
:020000040000fa
:04019000380800002b
:020000040000fa
:040194003808000027
:020000040000fa
:040198003808000023
:020000040000fa
:04019c00380800001f
:020000040000fa
:0401a000380800001b
:020000040000fa
:0401a4003808000017
:020000040000fa
:0401a8003808000013
:020000040000fa
:0401ac00380800000f
:020000040000fa
:0401b000380800000b
:020000040000fa
:0401b4003808000007
:020000040000fa
:0401b8003808000003
:020000040000fa
:0401bc0038080000ff
:020000040000fa
:0401c00038080000fb
:020000040000fa
:0401c40038080000f7
:020000040000fa
:0401c80038080000f3
:020000040000fa
:0401cc0038080000ef
:020000040000fa
:0401d00038080000eb
:020000040000fa
:0401d40038080000e7
:020000040000fa
:0401d80038080000e3
:020000040000fa
:0401dc0038080000df
:020000040000fa
:0401e00038080000db
:020000040000fa
:0401e400840700008c
:020000040000fa
:0401e80038080000d3
:020000040000fa
:0401ec0038080000cf
:020000040000fa
:0401f00038080000cb
:020000040000fa
:0401f40038080000c7
:020000040000fa
:0401f80038080000c3
:020000040000fa
:0401fc0038080000bf
:020000040000fa
:0402000038080000ba
:020000040000fa
:0402040038080000b6
:020000040000fa
:0402080038080000b2
:020000040000fa
:04020c0038080000ae
:020000040000fa
:0402100038080000aa
:020000040000fa
:0402140038080000a6
:020000040000fa
:0402180038080000a2
:020000040000fa
:04021c00380800009e
:020000040000fa
:04022000380800009a
:020000040000fa
:040224003808000096
:020000040000fa
:040228003808000092
:020000040000fa
:04022c00380800008e
:020000040000fa
:04023000380800008a
:020000040000fa
:040234003808000086
:020000040000fa
:040238003808000082
:020000040000fa
:04023c00380800007e
:020000040000fa
:04024000380800007a
:020000040000fa
:040244003808000076
:020000040000fa
:040248003808000072
:020000040000fa
:04024c00380800006e
:020000040000fa
:04025000380800006a
:020000040000fa
:040254003808000066
:020000040000fa
:040258003808000062
:020000040000fa
:04025c00380800005e
:020000040000fa
:04026000380800005a
:020000040000fa
:040264003808000056
:020000040000fa
:040268003808000052
:020000040000fa
:04026c00380800004e
:020000040000fa
:04027000380800004a
:020000040000fa
:040274003808000046
:020000040000fa
:040278003808000042
:020000040000fa
:04027c00380800003e
:020000040000fa
:04028000380800003a
:020000040000fa
:040284003808000036
:020000040000fa
:040288003808000032
:020000040000fa
:04028c00380800002e
:020000040000fa
:04029000380800002a
:020000040000fa
:040294003808000026
:020000040000fa
:040298003808000022
:020000040000fa
:04029c00380800001e
:020000040000fa
:0402a000380800001a
:020000040000fa
:0402a4003808000016
:020000040000fa
:0402a8003808000012
:020000040000fa
:0402ac00380800000e
:020000040000fa
:0402b000380800000a
:020000040000fa
:0402b4003808000006
:020000040000fa
:0402b8003808000002
:020000040000fa
:0402bc0038080000fe
:020000040000fa
:0402c00038080000fa
:020000040000fa
:0402c40038080000f6
:020000040000fa
:0402c80038080000f2
:020000040000fa
:0402cc0038080000ee
:020000040000fa
:0402d00038080000ea
:020000040000fa
:0402d40038080000e6
:020000040000fa
:0402d80038080000e2
:020000040000fa
:0402dc0038080000de
:020000040000fa
:0402e00038080000da
:020000040000fa
:0402e40038080000d6
:020000040000fa
:0402e80038080000d2
:020000040000fa
:0402ec0038080000ce
:020000040000fa
:0402f00038080000ca
:020000040000fa
:0402f40038080000c6
:020000040000fa
:0402f80038080000c2
:020000040000fa
:0402fc0038080000be
:020000040000fa
:0403000038080000b9
:020000040000fa
:0403040038080000b5
:020000040000fa
:0403080038080000b1
:020000040000fa
:04030c0038080000ad
:020000040000fa
:0403100038080000a9
:020000040000fa
:0403140038080000a5
:020000040000fa
:0403180038080000a1
:020000040000fa
:04031c004607000090
:020000040000fa
:040320003808000099
:020000040000fa
:040324003808000095
:020000040000fa
:04032800c00700000a
:020000040000fa
:04032c00fc070000ca
:020000040000fa
:040330003808000089
:020000040000fa
:040334003808000085
:020000040000fa
:100400004f0a21000eff26000e01880000000000a8
:10041000000020000000e000020032000001200087
:100420002002880014000700130307000000e0000a
:1004300003003a0000ac2100010020000200370058
:100440000000200001002000810f70000100320038
:100450000f000700000020000000e0000200320052
:1004600000000200000000003c120200000000003a
:100470000040da000000fe00000320000000e00061
:1004800002003200002020009001880000000600d9
:10049000a1028800800478000000eb001f003700f4
:1004a000e284440054a0b4009905ba00e2844400f8
:1004b00054a0b4009906ba00e284440054a0b400e9
:1004c0000006eb00476fde00fd07b200ae018800ba
:1004d000636ce10003003a000ad801000000eb0061
:1004e0000e003700606ce10008003a00004deb00a0
:1004f0000a05e800020039003420ec000af0a000f0
:100500008b05e900f9ff3e00040037006168e10057
:10051000010032000086eb000b00070019c7ba008b
:100520001905ba000e04e00003003a000a00e000da
:10053000dbff3a0000000600fe07b200ae028800b2
:100540008a047800f5ff37000cd0a300e20f4d00bd
:100550001c003b0089027800354dba000a05e8000e
:10056000020039003420ec000af0a0008b05e900fd
:100570000f003200254dba000a05e80002003900dc
:100580003420ec000af0a0008b05e90008003200de
:100590000c00e0000600320015cdba000a05e800a4
:1005a000020039003420ec000af0a0008b05e900bd
:1005b0008984e80054a0b4000b00e000e2ff3a0098
:1005c000000006009902ba00055d78008b05e9007d
:1005d000f7ff3200c82ade00055d78008b05e900d0
:1005e000f3ff32000c00e000f1ff320019ddba0029
:1005f000eeff3700d20e040000000000f00e0400f1
:1006000000000000a818040000000000b01304005f
:10061000000000001013040000000000e4130400b8
:1006200000000000ec13040000000000d0160400dd
:1006300000000000fe160400000000001217040075
:100640000000000026170400000000003600f8003b
:10065000809fbe00829fbe00849fbe00869fbe001a
:100660000000fa000228a9002110800000082000e4
:10067000008060000000e0000800320004e2a900f1
:100680000830ef0070808000200090008000eb00b8
:10069000010878000e30ef000e0137004080800026
:1006a0008000eb00b200200003002000820f500009
:1006b000838f5800fd003e00000601000b0037004c
:1006c0003a003700760037009d003700f40037000d
:1006d000c9003700da003700f1003700dc003700ce
:1006e000f2003700350037005100370000002100cc
:1006f00020009000620060000000e000f4003a007a
:10070000000021001000900070808800000021008f
:1007100010009000104078000af0b700000021009f
:100720001000900010009000608088000000210000
:1007300010009000e6004000000021001100980029
:100740000000210010009000800078004008210087
:10075000808f500003003a0000002100e1072100d3
:100760001100980000002100a00090000100a100ed
:10077000210098000000210090009000000021005e
:1007800010007800808f500004003a000000210023
:10079000a00090000110a000210098000002a80015
:1007a0002000200040808800ca0037000022a800f6
:1007b0002000200040808800c60037002110800003
:1007c00000002800008060000000e0000800320007
:1007d00000002100604090008040e80000002100ff
:1007e000614098004000200032080700b90037003f
:1007f000808080008000d100f00f20000080600029
:10080000a0108800808080006100600000407800b7
:100810000004e00003003200b000200040808800a7
:10082000ac0037003000200040808800a90037006d
:100830002110800000002800008060000000e0001f
:100840000800320000002100604090008040e80075
:1008500000002100614098004000200015080700ba
:100860009c0037000022a800808080004800de0045
:10087000e6006000000f200001007000808088000a
:10088000808080000000a0008080880010c0b3003d
:1008900012f0b70020002000408088008d00370053
:1008a00012d0bf00e14f50000a003200608080008b
:1008b0001000780080808800608080002000900018
:1008c000a0808800608080002040900016f0b70073
:1008d000010037001270ef0081808000f00f2000cf
:1008e000808f500009003600808080004800de00c4
:1008f000e6006000000f200001007000a0108800da
:10090000a0002000408088007200370080808000b6
:10091000a0108800808080006100600000407800a6
:100920000004e000030032005000200040808800f6
:1009300068003700300020004080880065003700e4
:100940002110800000002800008060000000e0000e
:100950000900320000002100604090008040e80063
:10096000000021006140980005e2a900500020002d
:10097000d00707005700370016d0bf008080fb006b
:100980008100e900cf08de00814078000040e900e6
:1009900016f0b7000104e000100032006080800013
:1009a00066004000608088000ad0bf000040e90077
:1009b0000af0b7000ad0bf000004e00003003a00cc
:1009c00020002000bb070700420037000022a800db
:1009d00020002000408088003e003700a08080007a
:1009e000904078008180fb00a11088000000e800a2
:1009f000a080880037003700211080000000280008
:100a0000008060000000e0000900320000002100ca
:100a1000604090008040e8000000210061409800a4
:100a200040002000a307070005e2a90029003700c5
:100a30000062a80080002000408088002500370068
:100a400080002000408088000062a800210037005c
:100a5000a0808000c11080008140780001487800ab
:100a60000000e800a080880016d0bf000040e90028
:100a700016f0b70016d0bf000004e00004003200fa
:100a800000a2a9006000200040808800020037001a
:100a900000a2a800760707000082a8000d0037001a
:100aa00020002000830707000a0037000000210013
:100ab000604090008040e800000021006140980004
:100ac000600020007b0707000000000001003700e5
:100ad000000000000080fa004f03be004f02be007d
:100ae0004f01be004f00be003600f9000040060076
:100af0003600f800809fbe00829fbe00849fbe002b
:100b0000869fbe000000fa00c028a9000000eb008c
:100b1000e20a07000080fa004f03be004f02be0049
:100b20004f01be004f00be003600f9000040060035
:100b30003600f800809fbe00829fbe00849fbe00ea
:100b4000869fbe000000fa00db0a0700c048a9002b
:100b500010002000d10a07000080fa004f03be00f9
:100b60004f02be004f01be004f00be003600f9002c
:100b7000004006003600f800809fbe00829fbe0045
:100b8000849fbe00869fbe000000fa00c068a900d6
:100b900020002000c10a07000080fa004f03be00b9
:100ba0004f02be004f01be004f00be003600f900ec
:100bb000004006003600f800809fbe00829fbe0005
:100bc000849fbe00869fbe000000fa00c088a90076
:100bd00030002000b10a07000080fa004f03be0079
:100be0004f02be004f01be004f00be003600f900ac
:100bf000004006003600f800809fbe00829fbe00c5
:100c0000849fbe00869fbe000000fa00c608a900af
:100c100070002000a10a07000080fa004f03be0008
:100c20004f02be004f01be004f00be003600f9006b
:100c3000004006003600f800809fbe00829fbe0084
:100c4000849fbe00869fbe000000fa0021468000ff
:100c500000102000008060000000e000030032006f
:100c6000c508a900c00020008c0a070021468000aa
:100c700000022000008060000000e000030032005d
:100c8000c4a8a90090002000840a07002046800024
:100c9000700060000000e00003003200c488a9007a
:100ca000a00020007d0a070020468000610060004f
:100cb0000000e00003003200c408a900b0002000da
:100cc000760a0700ffff37003600f800809fbe005d
:100cd000829fbe00849fbe00869fbe000000fa0077
:100ce000108180000000e0000200320010818000ce
:100cf00000000100f1808000e0808000808f5000c3
:100d000002003a002188a900180037000188a900d4
:100d100010003700f0808000904078008180fb0058
:100d2000411288000000e800f0808800f180800017
:100d300090092100808f500002003a000009210034
:100d4000f0808800f1808000e0808000808f50007b
:100d500005003200f0118000700060000000e0002b
:100d6000ecff320001003700000000000080fa00b4
:100d70004f03be004f02be004f01be004f00be0039
:100d80003600f900004006003600f800809fbe00e3
:100d9000829fbe00849fbe00869fbe000000fa00b6
:100da0000168a9001e003700c08080002112800069
:100db0008140780001487800c1808000100a21003d
:100dc000808f500009003200c08080008000e80061
:100dd000d0808000808f500004003200c0808000ee
:100de0000000e800c08088000d003700c18080004e
:100df000100a2100808f500007003a00d180800047
:100e000090092100808f50000300320090092100da
:100e1000c08088000200370010c0b30020f0b70087
:100e2000f0118000620060000000e000deff320090
:100e3000208180000000e00002003200208180005c
:100e4000000001000080fa004f03be004f02be0008
:100e50004f01be004f00be003600f9000040060002
:100e6000801f78000000fa00e0118000620060003e
:100e70000000e000010032003c22a9000628a90081
:100e80000080fa004f007800004006000000fa00e1
:100e900017a8a9000080fa00004006003600f800fc
:100ea000809fbe00829fbe00849fbe00869fbe00c2
:100eb0000000fa00d08180000000e0000200320053
:100ec000d081800000000100300a2100104078002d
:100ed0008040e800300a210001487800200a210003
:100ee00011c0b300014878000028a9000080fa0072
:100ef0004f03be004f02be004f01be004f00be00b8
:100f00003600f900004006003600f800809fbe0061
:100f1000829fbe00849fbe00869fbe003200f80004
:100f20003400f80010002000a001880000202000fc
:100f300000d0fe000200fa00a1618000010f7800dd
:100f4000408180000000e000030032004181800009
:100f50001e007800010001000de8a9000080fa00e1
:100f60003400f9003200f9004f03be004f02be000a
:100f70004f01be004f00be003600f90000400600e1
:100f80003600f800809fbe00829fbe00849fbe0096
:100f9000869fbe003200f8003400f80010002000e8
:100fa000a00188000020200000d0fe000200fa000e
:100fb000e1618000010f7800508180000000e000b6
:100fc00003003200518180001e0078000100010002
:100fd0001808a9000080fa003400f9003200f90076
:100fe0004f03be004f02be004f01be004f00be00c7
:100ff0003600f900004006003600f800809fbe0071
:10100000829fbe00849fbe00869fbe003200f80013
:101010003400f80010002000a0018800002020000b
:1010200000d0fe000200fa00f1618000010f78009c
:10103000608180000000e0000300320061818000d8
:101040001e007800010001001828a9000080fa00a5
:101050003400f9003200f9004f03be004f02be0019
:101060004f01be004f00be003600f90000400600f0
:101070000040da000000fe0000000500800178005a
:1010800002003700b15978000201e9000200e000d7
:10109000fcff3a0000000600889fbe008a9fbe0049
:1010a000800478000200e0005b003200014078001c
:1010b000814c780082814400f1f99f00e20f5100d9
:1010c0005500360091449800a1449800e1f99f0032
:1010d000d1f99f00e60f51004f003600b14498004f
:1010e000c1f99f00e80f51004b0036000905ea00e6
:1010f000630565000a8444000a055100c1ff2f0002
:10110000010565000080fb008000eb00121020004c
:10111000131020004f000700008cbe000a0144009d
:1011200060b99f0071b99f00e80f55003a00360082
:10113000200498003104980040049800510498005d
:1011400020b99f0031b99f0040b99f0051b99f005d
:10115000f80f5500300036006004980071049800c4
:10116000000c9800110c9800200c9800310c98008d
:10117000400c9800510c980020b19f0031b19f00a5
:1011800040b19f0051b19f0060b19f0071b19f00bd
:1011900000b99f0011b99f0064016400780141000b
:1011a00002044400020555006011b8000203be00ad
:1011b0000002be000403be006022b80000007200fe
:1011c0008180720002017300838173001000370078
:1011d000009cbe000294be00400498005104980098
:1011e0006204980073049800000c9800110c980099
:1011f000220c9800330c9800400c9800510c980079
:10120000620c9800730c98000a02b1000802b0004a
:10121000ff0f5500eeff3e00090078004f05be00ad
:101220004f04be0000000600810178000002780033
:1012300030417800b14f510002003a000204e00052
:10124000f9ff3a009480fb001380fb0000805000ff
:1012500000000600020ab900001bb9000200b80035
:0c126000810042008100430000000600f5
:020000040000fa
:10126c00507200006f620000652000006473000083
:10127c00504900004320000052460000006400006a
:10128c00735000004943000020520000462000002b
:10129c00416300006b0a000000500000696e000002
:1012ac0067000000506f00006e6700000a0000002d
:1012bc00476f0000446100007368000000000000ec
:020000040000fa
:1012cc000000fa0010002000e0558800000021000a
:1012dc0000568800f0ff260010568800c021200020
:1012ec002056880000c0230030568800c82aef0022
:1012fc00ca2aef0000082000605688000088a90068
:10130c00ce2aef00d02aef00d22aef00d42aef0029
:10131c00d62aef000108a900d82aef00da2aef003c
:10132c00dc2aef00de2aef00e02aef000248a900d9
:10133c00e22aef00e42aef00e62aef00e82aef00a9
:10134c00ea2aef0002a8a900c40aa8000080fa004b
:10135c00000006000000fa000080fa000000060001
:10136c000000fa0000408000700060000000e00007
:10137c0002003200f7ff07000088a9000080fa0085
:10138c00000006000000fa000080fa0000000600d1
:10139c000000fa0001408000001020000080600076
:1013ac000000e00002003200f6ff07000108a9006f
:1013bc000080fa00000006000000fa000080fa002d
:1013cc00000006000000fa0010408000640060007d
:1013dc000000e00002003200f7ff07000248a900fd
:1013ec000080fa00000006000000fa000080fa00fd
:1013fc00000006000000fa001140800000022000ee
:10140c00008060000000e00002003200f6ff0700e0
:10141c0002a8a9000080fa00000006000200fa00f1
:10142c00000f78001e007800e10f50000900320018
:10143c00e10f500005003900e20f500007003200a8
:10144c00e30f50000700320008003700c40aa80060
:10145c0006003700ce0aa80004003700d80aa800fe
:10146c0002003700e20aa800000000000080fa0029
:10147c00000006000200fa00000f78001e00780041
:10148c00e10f500009003200e10f50000500390057
:10149c00e20f500007003200e30f5000070032004b
:1014ac0008003700c40aa90006003700ce0aa900bc
:1014bc0004003700d80aa90002003700e20aa9008c
:1014cc00000000000080fa00000006000400fa0092
:1014dc00000f7800110798001e007800e10f5000f3
:1014ec000a003200e10f500005003900e20f5000f5
:1014fc0009003200e30f50000a0032000c003700e4
:10150c009e00900061568800090037009e009000f4
:10151c00b1568800060037009e00900001578800e5
:10152c00030037009e009000515788000000000017
:10153c000080fa00000006000200fa00000f78009c
:10154c001e007800e10f500009003200e10f50003e
:10155c0005003900e20f500007003200e30f500085
:10156c000700320008003700605680000700370083
:10157c00b05680000500370000578000030037008c
:10158c0050578000010037000000eb000080fa008b
:10159c00000006000200fa00000f78001e00780020
:1015ac00e10f500009003200e10f50000500390036
:1015bc00e20f500007003200e30f5000070032002a
:1015cc0008003700c50aa80006003700cf0aa8009b
:1015dc0004003700d90aa80002003700e30aa8006b
:1015ec00000000000080fa00000006000400fa0071
:1015fc00000f7800110798001e007800e10f5000d2
:10160c000a003200e10f500005003900e20f5000d3
:10161c0009003200e30f50000a0032000c003700c2
:10162c009e00900041568800090037009e009000f3
:10163c0091568800060037009e009000e156880005
:10164c00030037009e009000315788000000000016
:10165c000080fa00000006000400fa00000f780079
:10166c00110798001e007800e10f50000a003200ac
:10167c00e10f500005003900e20f50000900320064
:10168c00e30f50000a0032000c0037009e0090005f
:10169c0051568800090037009e009000a156880022
:1016ac00060037009e009000f156880003003700ba
:1016bc009e00900041578800000000000080fa0056
:1016cc00000006000200fa00000f78001e007800ef
:1016dc00e10f500011003200e10f500005003900fd
:1016ec00e20f500017003200e30f50001f003200d1
:1016fc00280037002056800088800a000000000077
:10170c000080fb0000f0a7000000ea000000ea00e7
:10171c004f00de00004078001f003700705680003c
:10172c0088800a00000000000080fb0000f0a70089
:10173c000000ea000000ea004f00de0000407800e4
:10174c0015003700c056800088800a000000000099
:10175c000080fb0000f0a7000000ea000000ea0097
:10176c004f00de00004078000b003700105780005f
:10177c0088800a00000000000080fb0000f0a70039
:10178c000000ea000000ea004f00de000040780094
:10179c00010037000040eb000080fa00000006005a
:1017ac000200fa00000f78001e007800e10f5000d4
:1017bc0011003200e10f500005003900e20f50001b
:1017cc0017003200e30f50001f00320028003700d2
:1017dc0030568000ff800a00000000000080fb00f3
:1017ec0000f0a7000000ea000000ea004f00de0055
:1017fc00004078001f00370080568000ff800a00f0
:10180c00000000000080fb0000f0a7000000ea00d0
:10181c000000ea004f00de000040780015003700a1
:10182c00d0568000ff800a00000000000080fb0002
:10183c0000f0a7000000ea000000ea004f00de0004
:10184c00004078000b00370020578000ff800a0012
:10185c00000000000080fb0000f0a7000000ea0080
:10186c000000ea004f00de00004078000100370065
:10187c000040eb000080fa00000006000200fa00b5
:10188c00000f78001e007800e10f500011003200ac
:10189c00e10f500005003900e20f50001700320034
:1018ac00e30f50001f003200280037003056800034
:1018bc0077800a00000000000080fb0000f0a70009
:1018cc000000ea000000ea004f00de000040780053
:1018dc001f0037008056800077800a00000000004f
:1018ec000080fb0000f0a7000000ea000000ea0006
:1018fc004f00de000040780015003700d056800005
:10190c0077800a00000000000080fb0000f0a700b8
:10191c000000ea000000ea004f00de000040780002
:10192c000b0037002057800077800a000000000071
:10193c000080fb0000f0a7000000ea000000ea00b5
:10194c004f00de0000407800010037000040eb0043
:10195c000080fa00000006000200fa00000f780078
:10196c001e007800e10f500011003200e10f500012
:10197c0005003900e20f500017003200e30f500051
:10198c001f003200280037003056800066800a00a5
:10199c00000000000080fb0000f0a7000000ea003f
:1019ac000000ea004f00de00004078001f00370006
:1019bc008056800066800a00000000000080fb005a
:1019cc0000f0a7000000ea000000ea004f00de0073
:1019dc000040780015003700d056800066800a0061
:1019ec00000000000080fb0000f0a7000000ea00ef
:1019fc000000ea004f00de00004078000b003700ca
:101a0c002057800066800a00000000000080fb0068
:101a1c0000f0a7000000ea000000ea004f00de0022
:101a2c0000407800010037000040eb000080fa0015
:101a3c00000006000200fa00000f78001e0078007b
:101a4c00e10f500011003200e10f50000500390089
:101a5c00e20f500017003200e30f50001f0032005d
:101a6c00280037003056800055800a000000000026
:101a7c000080fb0000f0a7000000ea000000ea0074
:101a8c004f00de00004078001f00370080568000b9
:101a9c0055800a00000000000080fb0000f0a70049
:101aac000000ea000000ea004f00de000040780071
:101abc0015003700d056800055800a000000000049
:101acc000080fb0000f0a7000000ea000000ea0024
:101adc004f00de00004078000b00370020578000dc
:101aec0055800a00000000000080fb0000f0a700f9
:101afc000000ea000000ea004f00de000040780021
:101b0c00010037000040eb000080fa0000000600e6
:101b1c000200fa00000f78001e007800e10f500060
:101b2c0011003200e10f500005003900e20f5000a7
:101b3c0017003200e30f50001f003200280037005e
:101b4c003056800033800a00000000000080fb004b
:101b5c0000f0a7000000ea000000ea004f00de00e1
:101b6c00004078001f0037008056800033800a0048
:101b7c00000000000080fb0000f0a7000000ea005d
:101b8c000000ea004f00de0000407800150037002e
:101b9c00d056800033800a00000000000080fb005b
:101bac0000f0a7000000ea000000ea004f00de0091
:101bbc00004078000b0037002057800033800a006b
:101bcc00000000000080fb0000f0a7000000ea000d
:101bdc000000ea004f00de000040780001003700f2
:101bec000040eb000080fa00000006000200fa0042
:101bfc00000f78001e007800e10f50001100320039
:101c0c00e10f500005003900e20f500017003200c0
:101c1c00e30f50001f0032002800370030568000c0
:101c2c0044800a00000000000080fb0000f0a700c8
:101c3c000000ea000000ea004f00de0000407800df
:101c4c001f0037008056800044800a00000000000e
:101c5c000080fb0000f0a7000000ea000000ea0092
:101c6c004f00de000040780015003700d056800091
:101c7c0044800a00000000000080fb0000f0a70078
:101c8c000000ea000000ea004f00de00004078008f
:101c9c000b0037002057800044800a000000000031
:101cac000080fb0000f0a7000000ea000000ea0042
:101cbc004f00de0000407800010037000040eb00d0
:101ccc000080fa00000006000000fa002188a9003c
:101cdc002168a90000082000c01188003a22ef00fa
:101cec003c22ef0020022000f0118800b0a220005e
:101cfc00001288004222ef004c22ef004e22ef002f
:101d0c005022ef005222ef005422ef005622ef0037
:101d1c005822ef005a22ef005c22ef00000921004c
:101d2c00f080880000092100e080880090092100e3
:101d3c00d080880090092100c08088002070ef00be
:101d4c0020ed20000800070000ef20001500070020
:101d5c002168a80039e2a80038a2a8003882a8009f
:101d6c000080fa00000006000200fa00000f780064
:101d7c001e0078000000e00003003a0020ed200077
:101d8c0010818800020037009e00780011818800c5
:101d9c000080fa00000006000000fa000080fa0043
:101dac00000006000200fa00000f78001e00780008
:101dbc000000e00003003a0000ef200020818800c2
:101dcc00020037009e007800218188000080fa0014
:101ddc00000006000000fa000080fa000000060077
:101dec000200fa000040eb00004f780000000000f9
:101dfc00d1808000c0808000808f5000fcff3200ba
:101e0c00d0808000104f7800d08080000000e80067
:101e1c00d0808800d1808000200a2100808f500063
:101e2c0002003a0090092100d08088001e40780002
:101e3c000080fa00000006000200fa00004f780053
:101e4c00000000001c0007000004a2000004e000d9
:101e5c00fcff3a00e08080001e487800e0808000a3
:101e6c000000e800e0808800e180800090092100fb
:101e7c00808f500002003a0000092100e0808800a9
:101e8c002188a8000080fa00000006000000fa007b
:101e9c00d1808000c08080000080680000f0a70026
:101eac000000ea000000ea004f00de00004078006d
:101ebc000080fa00000006000400fa00f1808000a7
:101ecc0011079800e18080001e009000808f500068
:101edc00060031009e009000e080800000805000e1
:101eec000000e900000f7800050037009e0090000c
:101efc00e08080000080500068004000000f7800f7
:101f0c001e00780000f0a7000000ea000000ea00c4
:101f1c004f00de00004078000080fa000000060050
:101f2c000000fa00e1808000f0808000808f50007b
:101f3c0009003a00e11180000008200000806000d8
:101f4c0000f0a7000000ea000000ea004f00de00ed
:101f5c0000407800010037000040eb000080fa00e0
:101f6c00000006000400fa00c180800011079800f0
:101f7c00d08080009e009000808f500006003100c1
:101f8c009e009000d08080000080500069004000ce
:101f9c00000f7800030037009e009000d080800076
:101fac00008f5000f00f20009e007800808f5000b2
:101fbc000200360000c0eb00020037001e00780063
:101fcc00004078000080fa00000006000400fa00cf
:101fdc00f180800011079800e18080001e009000c5
:101fec00808f5000060031009e009000e080800041
:101ffc00008050000000e900000f78000500370059
:10200c009e009000e080800000805000680040003e
:10201c00000f7800f00f20009e007800808f500099
:10202c000200360000c0eb00020037001e007800f2
:10203c00004078000080fa00000006000800fa005a
:10204c002007980031079800c6ff07000080fb00ae
:10205c00000f78003e0090009e0f500002003100ef
:10206c00be009000010f78000000eb0010079800f4
:10207c00090037005aff0700ae0090008048780036
:10208c002e0090000000e800200798001e00900031
:10209c000000e800100798001e0090009e0f5000f2
:1020ac00f4ff39001e0078000080fa0000000600e2
:1020bc000800fa002007980031079800c3ff0700ba
:1020cc000080fb00000f78003e0090009e0f500037
:1020dc0002003100be009000010f78000000eb0000
:1020ec0010079800090037002e009000104078006f
:1020fc00ae0090008100e800210798004eff070019
:10210c001e0090000000e800100798001e009000d0
:10211c009e0f5000f4ff39001e0078000080fa007a
:10212c00000006000400fa000000eb00000f78002d
:10213c008cff070020479800a4ff07003047980049
:10214c002e4090000080fb000000e00003003200f5
:10215c00e90f500003003200040037001e20a000dd
:10216c00040037001e00a000020037001e10a00063
:10217c00000000003e4090000080fb000000e000ea
:10218c0003003200e90f5000030032000400370056
:10219c001e30a000020037001e40a000000000000e
:1021ac001e0078000080fa00000006000400fa000f
:1021bc0010079800d18080001e009000008f400016
:1021cc00020037009e007800698f5000200a210021
:1021dc009e007800808f5000faff3e001e007800b1
:1021ec00104078000080fa00000006000000fa00a1
:1021fc005cff07000080fb000000e9004f00de00e0
:10220c00004078000080fa00000006000000fa0090
:10221c006eff07000080fb000000e9004f00de00ad
:10222c00004078000080fa00000006000400fa006c
:10223c00f01180008000eb00008fbe001e00be007d
:10224c00c001dd0002002000e01180008000eb00e6
:10225c0000007100818071000080fa00000006000f
:10226c000000fa0059ff07000004e00010003200e3
:10227c00f1808000e0808000808f500006003600e6
:10228c00f080800080007800e080800000805000aa
:10229c000000e90007003700f08080008000780023
:1022ac00e080800000805000680040000100370092
:1022bc000000eb000080fa00000006000000fa00ad
:1022cc0028ff07000004e00010003200d1808000dd
:1022dc00c0808000808f500006003600d0808000c7
:1022ec0080007800c0808000008050000000e90071
:1022fc0007003700d080800080007800c08080000c
:10230c000080500068004000010037000000eb0026
:10231c000080fa00000006000000fa0039e2a80074
:10232c0038a2a8003882a8000080fa00000006003d
:10233c000000fa0039e2a90038a2a9003882a900ed
:10234c000080fa00000006000000fa00b5efa900ba
:10235c000080fa00000006000000fa0008cba8007c
:10236c000080fa00000006000400fa001007980034
:10237c001e009000e10f500008003200e10f5000e9
:10238c0003003900e20f500007003200090037004b
:10239c00a1618000010f780006003700e161800028
:1023ac00010f780003003700f1618000010f780005
:1023bc00000000001e0078000080fa0000000600fb
:1023cc000400fa00100798001e009000e10f500066
:1023dc000f003200e10f500003003900e20f5000f3
:1023ec00150032001e0037009059800044800a000e
:1023fc00000000000080fb0000f0a7000000ea00d5
:10240c000000ea004f00de00004f78001400370097
:10241c009059800088800a00000000000080fb00ba
:10242c0000f0a7000000ea000000ea004f00de0008
:10243c00004f78000a0037009059800099800a00fc
:10244c00000000000080fb0000f0a7000000ea0084
:10245c000000ea004f00de00004f78000000000092
:10246c001e4078000080fa00000006000400fa000c
:10247c0079040700b4ff0700003b21003afe070077
:10248c000031210047fe0700403e210030030700c9
:10249c00c03e21005a0207000000eb00000f78003c
:1024ac00330307001e007800e20f50002f003200ab
:1024bc00e20f500005003e000000e0000800320072
:1024cc00e10f5000190032004f003700e30f5000ad
:1024dc0030003200e40f5000380032004a00370060
:1024ec0077eea80077aea90077cea9009aff070077
:1024fc00000000000000eb00b1ff07000004a20088
:10250c000004e000fbff3a000000eb0096ff070020
:10251c00100798002ed0bf000004e00031003200fc
:10252c0010002000000f78003700370077eea9006c
:10253c0077aea90077cea8002ed0bf000004a20071
:10254c000004e000020032000000eb00000f7800f5
:10255c002fd0bf000004e000240032002f70ef00e9
:10256c0020002000000f78002700370077eea8002d
:10257c0077aea90077cea8002ed0bf000004a20031
:10258c000004e0001b0032000000eb00000f78009c
:10259c001d00370077eea90077aea80077cea90012
:1025ac002ed0bf000004a2000004e0001300320093
:1025bc000000eb00000f78001300370077eea90045
:1025cc0077aea80077cea9002ed0bf000004a200e1
:1025dc000004e0000b0032000000eb00000f78005c
:1025ec000900370000000000070037000000000061
:1025fc000500370000000000030037000000000059
:10260c00010037000000000040062000ae03070068
:10261c00a4ff37000000fa00881f7800470037003d
:10262c0032d0bf000004fb00edfd070080407800b5
:10263c00e0062100080040000148780032d0bf00bd
:10264c000000fb00e10621000080400010407800f3
:10265c00ea4f500033003a000000eb00ac020700d8
:10266c0032d0bf000000fb00e106210000804000da
:10267c008040eb000148780061932800e0062100bf
:10268c00e6fa07000000e0000b003a000000eb0047
:10269c009f020700c3020700e200200051942800ab
:1026ac00e005210072fa07002a00070010c0b300f1
:1026bc002ef0b7001500370031952800e0062100f8
:1026cc00d6fa07000000e00009003a003cd0bf0039
:1026dc000004e0000d00320062002000819528000b
:1026ec00e005210062fa07001a0007000700370016
:1026fc00e1952800e0062100c8fa07000000e00080
:10270c0002003a0010c0b3002ff0b7000201200005
:10271c008000eb00e00621005cfa07003270ef004d
:10272c000600370032d0bf00ee4f500003003c00d3
:10273c0032d0bf000040e80032f0b700d3fd0700f4
:10274c000004e000b6ff3a004f0478000080fa0065
:10275c00000006000000fa003c70ef008081800051
:10276c00e105210000804000104078000004e000ea
:10277c000900320080818000e105210000804000ca
:10278c0010407800acfd0700808180000000e8005c
:10279c008081880007003700020120008000eb00d8
:1027ac00e005210039fa07003030ef0010c0b3000b
:1027bc003cf0b7000080fa00000006000000fa00b0
:1027cc002e70ef000080fa00000006000000fa00f6
:1027dc000080fa00000006000000fa000000210052
:1027ec00e10721001100980000002100e107210001
:1027fc000108780000002100a00090000110a0004a
:10280c002100980000002100a00090000100a10010
:10281c0021009800000021008040eb0061409800ee
:10282c00b01e2000801088000000280000108800d6
:10283c000422ef000222ef000228a9002228a8009f
:10284c000080fa00000006000200fa0000002100df
:10285c00e0409000014f78001e4078000080fa00a4
:10286c00000006000000fa00608080006600400056
:10287c00608088000ad0bf000040e9000af0b70071
:10288c000ad0bf000004e00003003a004000200022
:10289c004080880002003700100020004080880033
:1028ac000080fa00000006000200fa00000f780019
:1028bc000042a80070808000200090000000e00022
:1028cc000300320070808000200090001e08780009
:1028dc000830ef000080fa00000006000800fa0043
:1028ec00000f7800214798002207980033079800c2
:1028fc000000210020009000610060000000e0005a
:10290c000a003a00ae0190002e4190009e00780023
:10291c00a0082100780007003e019000a1082100ca
:10292c0010c0b3001f000700030037003e009000ea
:10293c008000eb00010878000080fa00000006001f
:10294c000800fa00000f7800214798002207980031
:10295c003307980000002100200090006100600007
:10296c000000e0000a003a00ae0190002e419000f9
:10297c009e00780040082100470007003e019000af
:10298c004108210010c0b300060007000300370007
:10299c003e0090008000eb00010878000080fa00f7
:1029ac00000006000600fa00004f7800110798009e
:1029bc0022079800000021002000900061006000b8
:1029cc000000e0002f003a002e00900011002000c3
:1029dc000108780000002100100078009e00900093
:1029ec001100980000002100100078001e487800ab
:1029fc000000210010007800ae009000210098002b
:102a0c000000210010007800e600400000002100ca
:102a1c000108780000002100100078008000780088
:102a2c0040082100808f500003003a000000210074
:102a3c00e10721000108780000002100a0009000af
:102a4c000110a100210098000000210090009000ce
:102a5c000000210010007800808f500004003a0024
:102a6c0000002100a00090000100a00021009800af
:102a7c00408080000000e00005003a000228a80019
:102a8c00030037002e0090008000eb000108780056
:102a9c000080fa00000006000800fa00000f780021
:102aac001107980042479800330798003e009000a9
:102abc0000004000800078001e00780001087800bb
:102acc001e00780010007800800078000100a00043
:102adc001e007800010878001e007800ce4090009f
:102aec00214098001e0078009e0090002100980064
:102afc000080fa00000006000800fa00000f7800c1
:102b0c001107980042479800330798003e00900048
:102b1c0000004000800078001e007800010878005a
:102b2c001e007800ce409000214098001e007800d6
:102b3c009e009000210098000080fa000000060022
:102b4c000000fa00000021002000900062006000ec
:102b5c0000f0a7000000ea000000ea004f00de00d1
:102b6c00004078000080fa00000006000000fa0027
:102b7c0000002100200090006100600000f0a70020
:102b8c000000ea000000ea004f00de000040780080
:102b9c000080fa00000006000000fa00002bef0095
:102bac000006200010588800042bef00c000200005
:102bbc0030588800082bef000a2bef000c2bef008d
:102bcc000e2bef00102bef00122bef00142bef004d
:102bdc00162bef00202bef0000312000105988003d
:102bec00382bef00402bef00482bef00502bef0061
:102bfc003a2bef00422bef004a2bef00522bef0049
:102c0c003c2bef00442bef004c2bef00542bef0030
:102c1c003e2bef00462bef004e2bef00562bef0018
:102c2c0000002100505b880000002100705b8800d0
:102c3c0000002100905b880000002100b05b880040
:102c4c00a02bef00a42bef00a82bef00ac2bef0078
:102c5c00d02bef00d22bef00d42bef00d82bef00b2
:102c6c0000302000b05e880000302000d05e88006c
:102c7c00f02bef00f22bef00022cef00006d210087
:102c8c0047000700e06f21005d0007002071210064
:102c9c0065000700607221006d0007000de8a900b7
:102cac002de8a8001808a9003808a8001828a900c1
:102cbc003828a8001160800000f02000010070008e
:102ccc001060880001eba80027000700802bef00a4
:102cdc00822bef00842bef00862bef00882bef006c
:102cec008a2bef008c2bef008e2bef00902bef003c
:102cfc00922bef0010002000a05c8800962bef00b8
:102d0c0010102000c05c88000080fa000000060053
:102d1c000000fa00000ca800000000000160800018
:102d2c0000102000008060000000e000fbff32007b
:102d3c000a0ba8000080fa00000006000000fa0050
:102d4c00002ca80000000000016080000020200082
:102d5c00008060000000e000fbff32000a2ba8009e
:102d6c000080fa00000006000000fa0000eca80049
:102d7c00000000000160800000002800008060005e
:102d8c000000e000fbff32000aeba8000080fa0014
:102d9c00000006000000fa000080fa0000000600a7
:102dac000200fa00000f78001e00780030818800c5
:102dbc000080fa00000006000000fa00514080007c
:102dcc0000402000008060000000e000060032009f
:102ddc00308180000000e000020032003081800071
:102dec00000001000b48a9000080fa00000006005a
:102dfc000200fa00000f78000080fa0000000600c4
:102e0c000200fa00000f78001e0078004081880054
:102e1c000080fa00000006000200fa00000f7800a3
:102e2c000080fa00000006000200fa00000f780093
:102e3c001e007800508188000080fa000000060017
:102e4c000200fa00000f78000080fa000000060073
:102e5c000200fa00000f78001e00780060818800e4
:102e6c000080fa00000006000000fa00007c8000e0
:102e7c000080fa00000006000200fa00faff0700ca
:102e8c00000f78001e007800240007000004e0000a
:102e9c000200320000002800710007001e007800bc
:102eac002a0007000004e0000200320000002400a9
:102ebc006b0007001e007800320007000004e000e1
:102ecc000200320000202000650007001e00780080
:102edc003a0007000004e000020032000008200065
:102eec005f0007001e007800420007000004e000ad
:102efc000200320000042000590007001e00780078
:102f0c004a0007000004e00002003200000120002b
:102f1c00530007000080fa00000006000400fa00cd
:102f2c00100798000040eb00004f78001e00900046
:102f3c000000e00002003d0010c0b300004f78001c
:102f4c001e4078000080fa00000006000400fa0021
:102f5c00100798000040eb00004f78009e00900096
:102f6c0000002400008060000000e000020032003d
:102f7c0010c0b300004f78001e4078000080fa00ab
:102f8c00000006000400fa00100798000040eb0057
:102f9c00004f78009e009000002020000080600010
:102fac000000e0000200320010c0b300004f7800b7
:102fbc001e4078000080fa00000006000400fa00b1
:102fcc00100798000040eb00004f78009e00900026
:102fdc0000082000008060000000e00002003200c9
:102fec0010c0b300004f78001e4078000080fa003b
:102ffc00000006000400fa00100798000040eb00e7
:10300c00004f78009e0090000004200000806000bb
:10301c000000e0000200320010c0b300004f780046
:10302c001e4078000080fa00000006000400fa0040
:10303c00100798000040eb00004f78001e00900035
:10304c00700060000000e0000200320010c0b3000d
:10305c00004f78001e4078000080fa000000060047
:10306c000200fa00000f78009e80ea00007c8000cd
:10307c0000806000007c88000080fa0000000600e0
:10308c000000fa00802fef000080fa00000006001c
:10309c000000fa000421ef0030422f0040088800a5
:1030ac002033280000088800d08180000000e00058
:1030bc0002003a00808a2100250007000028a900a0
:1030cc002028a800200a21008040eb00014878004d
:1030dc002f0007000080fa00000006000200fa0032
:1030ec00000f78009e00780041088800200a21001b
:1030fc008040eb00014878000080fa0000000600d8
:10310c000000fa00400880000080fa000000060071
:10311c000200fa00000f78009e0078002108880059
:10312c00200a21008040eb00014878000080fa0062
:10313c00000006000000fa00200880000080fa0061
:10314c00000006000000fa000080fa0000000600f3
:10315c000200fa00000f78002028a9009e007800d9
:10316c00d18188002028a8000080fa000000060009
:10317c000000fa00200a21008040eb000148780092
:10318c002028a80001e1a8000080fa000000060039
:10319c000000fa0001e1a9002028a9000080fa0033
:1031ac00000006000200fa00200a2100104f7800ef
:1031bc001e4078000004e00003003200200a2100c9
:1031cc008040eb00014878001e4078000080fa0037
:1031dc00000006000000fa00300a210010407800c0
:1031ec000080fb000080fa00000006000000fa00de
:1031fc00300a21008040eb00014878000080fa0082
:10320c00000006000000fa0010002300307c88004b
:10321c0020032000407c88008c2fef001001200040
:10322c00507c880010102000707c88006009200001
:10323c00807c880010042000907c88009a2fef007e
:10324c00b82fef00ba2fef00be2fef00002def00cc
:10325c00a02fef00a42fef00a62fef00a82fef0058
:10326c00aa2fef00ae2fef00b02fef00b22fef0020
:10327c003200200080072000a109200053f8200014
:10328c00804978008149780082497800120020003a
:10329c00600420007105200043f82000804978006c
:1032ac00814978008249780000000000207c800071
:1032bc00610060000000e000fcff3a00000000002c
:1032cc00217c800000022000008060000000e000f3
:1032dc00fbff32000080fa00000006000000fa003c
:1032ec00707c8000ee800a00000000000080fb0073
:1032fc0000f0a7000000ea000000ea004f00de002a
:10330c00004078000080fa00000006000000fa007f
:10331c00062eef00222eef003e2eef0000012000c3
:10332c00d0728800762eef00f0012000107088001b
:10333c00d0ff2f00f07088000080eb00d071880067
:10334c00f0fe2f00b0728800f0ff2100907388000f
:10335c000c2eef00282eef00442eef00602eef0015
:10336c007c2eef000a2eef00262eef00422eef00ef
:10337c005e2eef007a2eef00082eef00242eef00c9
:10338c00402eef005c2eef00782eef00f0012000b5
:10339c0000708800e0392000e0708800f00c2000fc
:1033ac00c071880000c02200a0728800f0002000cc
:1033bc00807388000000eb0051052000b1468800a6
:1033cc00a10a2000b14688000068880030c4b30010
:1033dc0028edb700216d800000fc2f0000806000fc
:1033ec000000a000206d8800008020005105200006
:1033fc00b1468800a10a2000b14688000068880008
:10340c000080fa00000006000000fa000145800070
:10341c0080ff2f00008060000000a00000458800a5
:10342c00b1438000f0ff28000080600000c0a000c5
:10343c00b043880001458000f0f82f000080600048
:10344c000040a00000458800f1448000f0f82f00f7
:10345c00008060000040a000f044880031428000f1
:10346c0080ff2f00008060000000a0003042880028
:10347c00c1428000f0f82f00008060000040a000e6
:10348c00c042880021428000f0ff280000806000cc
:10349c0000c0a0002042880041428000f0f82f00bc
:1034ac00008060000040a000404288000142800083
:1034bc00f0f82f00008060000050a000004288004f
:1034cc000080fa00000006000200fa00000f7800ed
:1034dc0003003700006a2800110020007a00070062
:1034ec001e00780000f0a7000000ea000000ea00cf
:1034fc004f00de00004078001e0fe9000004e000e1
:10350c00f4ff3a000080fa00000006000200fa0006
:10351c00000f78000500370000c8200001002000d3
:10352c006900070001fe2f001e8f40001e0078006e
:10353c00ff0f5000f8ff3e0003003700400620004c
:10354c0001002000600007001e00780000f0a700ba
:10355c000000ea000000ea004f00de0000407800a6
:10356c001e0fe9000004e000f4ff3a000080fa00ae
:04357c000000060045
:020000040000fa
:103580007e1000001200000080000000001000000b
:1035900018000000800000003e1000002000000025
:1035a00080000000381000000200000082000000cf
:1035b000ffff000034100000040000008000000045
:1035c00090100000120000008000000018100000a1
:1035d0000e00000080000000a210000002000000a9
:1035e000800000003a10000002000000800000008f
:1035f0005e10000020000000800000003c10000071
:103600000200000082000000010000002e100000f7
:1036100006000000800000002610000008000000e6
:08362000800000000000000022
:020000040000fa
:103628000200fa00000f780021028000200f20001d
:10363800008060001e007000200288000080fa00f0
:10364800000006000000fa00c3e8a800000000001f
:10365800000000000080fa00000006000000fa00e8
:103668002bff0700e8fe070068ff07005bfc070068
:1036780096f9070049fd070012f7070085fe0700c5
:10368800f0ff070000022000e5ff07000080fa00b5
:10369800000006000200fa00000f78009e00780083
:1036a800c18188000000fe000080fa0000000600ca
:1036b8000000fa00e003210080077800600521007f
:0c36c800000188000080fa0000000600ed
:020000040000fa
:1036d400f03fb1000180b10006003500ee0309009f
:1036e40000000000403fb1000180b100fbff3d003d
:1036f4001000b000203fb000020035000080090037
:083704000000000000000600b7
:020000040000fa
:10370c00809fbe00ec80570031007800a0818800bb
:10371c001100780036f0b7004f00be000000060024
:020000040000fa
:020000040005f5
:047e0000ffffff0081
:020000040000fa
:020000040005f5
:047e2000ffffff0061
:020000040000fa
:020000040005f5
:047e300078ffff00d8
:020000040000fa
:020000040005f5
:047e380078ffff00d0
:020000040000fa
:020000040005f5
:047e40007f7fff0041
:020000040000fa
:020000040005f5
:047e4800ffffff0039
:020000040000fa
:020000040005f5
:047e5000ddffff0053
:020000040000fa
:020000040005f5
:047e58000000ff0027
:020000040000fa
:020000040005f5
:047e60000000ff001f
:020000040000fa
:020000040005f5
:047e68000000ff0017
:020000040000fa
:020000040005f5
:047e70000000ff000f
:020000040000fa
:020000040005f5
:047e7800ffffff0009
:020000040000fa
:020000040005f5
:047e8000f7fcff000c
:020000040000fa
:020000040005f5
:047e8800ffffff00f9
:020000040000fa
:020000040005f5
:047ff800ffffff0088
:020000040000fa
:020000040100f9
:04300000ffffff00cf
:00000001FF
