:020000040000fa
:080000000002040000000000f2
:020000040000fa
:04000800e00500000f
:020000040000fa
:04000c0022060000c8
:020000040000fa
:040010006206000084
:020000040000fa
:0400140000060000e2
:020000040000fa
:04001800420600009c
:020000040000fa
:04001c00b607000023
:020000040000fa
:040020008206000054
:020000040000fa
:04002400b60700001b
:020000040000fa
:04002800b607000017
:020000040000fa
:04002c00b607000013
:020000040000fa
:04003000b60700000f
:020000040000fa
:04003400b60700000b
:020000040000fa
:04003800b607000007
:020000040000fa
:04003c00b607000003
:020000040000fa
:04004000b6070000ff
:020000040000fa
:04004400b6070000fb
:020000040000fa
:04004800b6070000f7
:020000040000fa
:04004c00b6070000f3
:020000040000fa
:04005000b6070000ef
:020000040000fa
:040054002c07000075
:020000040000fa
:04005800cc060000d2
:020000040000fa
:04005c00b6070000e3
:020000040000fa
:04006000b6070000df
:020000040000fa
:04006400b6070000db
:020000040000fa
:04006800b6070000d7
:020000040000fa
:04006c008e030000ff
:020000040000fa
:04007000b6070000cf
:020000040000fa
:04007400b6070000cb
:020000040000fa
:04007800b6070000c7
:020000040000fa
:04007c00b6070000c3
:020000040000fa
:04008000b6070000bf
:020000040000fa
:04008400b6070000bb
:020000040000fa
:04008800b6070000b7
:020000040000fa
:04008c00b6070000b3
:020000040000fa
:04009000b6070000af
:020000040000fa
:04009400b6070000ab
:020000040000fa
:04009800b6070000a7
:020000040000fa
:04009c00b6070000a3
:020000040000fa
:0400a000b60700009f
:020000040000fa
:0400a400b60700009b
:020000040000fa
:0400a800b607000097
:020000040000fa
:0400ac00b607000093
:020000040000fa
:0400b000b60700008f
:020000040000fa
:0400b400b60700008b
:020000040000fa
:0400b800b607000087
:020000040000fa
:0400bc00b607000083
:020000040000fa
:0400c000b60700007f
:020000040000fa
:0400c400b60700007b
:020000040000fa
:0400c800b607000077
:020000040000fa
:0400cc00b607000073
:020000040000fa
:0400d000b60700006f
:020000040000fa
:0400d400b60700006b
:020000040000fa
:0400d800b607000067
:020000040000fa
:0400dc00b607000063
:020000040000fa
:0400e000b60700005f
:020000040000fa
:0400e400b60700005b
:020000040000fa
:0400e800b607000057
:020000040000fa
:0400ec009807000071
:020000040000fa
:0400f000b60700004f
:020000040000fa
:0400f400b60700004b
:020000040000fa
:0400f800b607000047
:020000040000fa
:0400fc00b607000043
:020000040000fa
:04010000b60700003e
:020000040000fa
:04010400b60700003a
:020000040000fa
:04010800b607000036
:020000040000fa
:04010c00b607000032
:020000040000fa
:04011000b60700002e
:020000040000fa
:04011400b60700002a
:020000040000fa
:04011800b607000026
:020000040000fa
:04011c00b607000022
:020000040000fa
:04012000b60700001e
:020000040000fa
:04012400b60700001a
:020000040000fa
:04012800b607000016
:020000040000fa
:04012c00b607000012
:020000040000fa
:04013000b60700000e
:020000040000fa
:04013400b60700000a
:020000040000fa
:04013800b607000006
:020000040000fa
:04013c00b607000002
:020000040000fa
:04014000b6070000fe
:020000040000fa
:04014400b6070000fa
:020000040000fa
:04014800b6070000f6
:020000040000fa
:04014c00b6070000f2
:020000040000fa
:04015000b6070000ee
:020000040000fa
:04015400b6070000ea
:020000040000fa
:04015800b6070000e6
:020000040000fa
:04015c00b6070000e2
:020000040000fa
:04016000b6070000de
:020000040000fa
:04016400b6070000da
:020000040000fa
:04016800b6070000d6
:020000040000fa
:04016c00b6070000d2
:020000040000fa
:04017000b6070000ce
:020000040000fa
:04017400b6070000ca
:020000040000fa
:04017800b6070000c6
:020000040000fa
:04017c00b6070000c2
:020000040000fa
:04018000b6070000be
:020000040000fa
:04018400b6070000ba
:020000040000fa
:04018800b6070000b6
:020000040000fa
:04018c00b6070000b2
:020000040000fa
:04019000b6070000ae
:020000040000fa
:04019400b6070000aa
:020000040000fa
:04019800b6070000a6
:020000040000fa
:04019c00b6070000a2
:020000040000fa
:0401a000b60700009e
:020000040000fa
:0401a400b60700009a
:020000040000fa
:0401a800b607000096
:020000040000fa
:0401ac00b607000092
:020000040000fa
:0401b000b60700008e
:020000040000fa
:0401b400b60700008a
:020000040000fa
:0401b800b607000086
:020000040000fa
:0401bc00b607000082
:020000040000fa
:0401c000b60700007e
:020000040000fa
:0401c400b60700007a
:020000040000fa
:0401c800b607000076
:020000040000fa
:0401cc00b607000072
:020000040000fa
:0401d000b60700006e
:020000040000fa
:0401d400b60700006a
:020000040000fa
:0401d800b607000066
:020000040000fa
:0401dc00b607000062
:020000040000fa
:0401e000b60700005e
:020000040000fa
:0401e400b60700005a
:020000040000fa
:0401e800b607000056
:020000040000fa
:0401ec00b607000052
:020000040000fa
:0401f000b60700004e
:020000040000fa
:0401f400b60700004a
:020000040000fa
:0401f800b607000046
:020000040000fa
:0401fc00b607000042
:020000040000fa
:04020000b60700003d
:020000040000fa
:04020400b607000039
:020000040000fa
:04020800b607000035
:020000040000fa
:04020c00b607000031
:020000040000fa
:04021000b60700002d
:020000040000fa
:04021400b607000029
:020000040000fa
:04021800b607000025
:020000040000fa
:04021c00b607000021
:020000040000fa
:04022000b60700001d
:020000040000fa
:04022400b607000019
:020000040000fa
:04022800b607000015
:020000040000fa
:04022c00b607000011
:020000040000fa
:04023000b60700000d
:020000040000fa
:04023400b607000009
:020000040000fa
:04023800b607000005
:020000040000fa
:04023c00b607000001
:020000040000fa
:04024000b6070000fd
:020000040000fa
:04024400b6070000f9
:020000040000fa
:04024800b6070000f5
:020000040000fa
:04024c00b6070000f1
:020000040000fa
:04025000b6070000ed
:020000040000fa
:04025400b6070000e9
:020000040000fa
:04025800b6070000e5
:020000040000fa
:04025c00b6070000e1
:020000040000fa
:04026000b6070000dd
:020000040000fa
:04026400b6070000d9
:020000040000fa
:04026800b6070000d5
:020000040000fa
:04026c00b6070000d1
:020000040000fa
:04027000b6070000cd
:020000040000fa
:04027400b6070000c9
:020000040000fa
:04027800b6070000c5
:020000040000fa
:04027c00b6070000c1
:020000040000fa
:04028000b6070000bd
:020000040000fa
:04028400b6070000b9
:020000040000fa
:04028800b6070000b5
:020000040000fa
:04028c00b6070000b1
:020000040000fa
:04029000b6070000ad
:020000040000fa
:04029400b6070000a9
:020000040000fa
:04029800b6070000a5
:020000040000fa
:04029c00b6070000a1
:020000040000fa
:0402a000b60700009d
:020000040000fa
:0402a400b607000099
:020000040000fa
:0402a800b607000095
:020000040000fa
:0402ac00b607000091
:020000040000fa
:0402b000b60700008d
:020000040000fa
:0402b400b607000089
:020000040000fa
:0402b800b607000085
:020000040000fa
:0402bc00b607000081
:020000040000fa
:0402c000b60700007d
:020000040000fa
:0402c400b607000079
:020000040000fa
:0402c800b607000075
:020000040000fa
:0402cc00b607000071
:020000040000fa
:0402d000b60700006d
:020000040000fa
:0402d400b607000069
:020000040000fa
:0402d800b607000065
:020000040000fa
:0402dc00b607000061
:020000040000fa
:0402e000b60700005d
:020000040000fa
:0402e400b607000059
:020000040000fa
:0402e800b607000055
:020000040000fa
:0402ec00b607000051
:020000040000fa
:0402f000b60700004d
:020000040000fa
:0402f400b607000049
:020000040000fa
:0402f800b607000045
:020000040000fa
:0402fc00b607000041
:020000040000fa
:04030000b60700003c
:020000040000fa
:04030400b607000038
:020000040000fa
:04030800b607000034
:020000040000fa
:04030c00b607000030
:020000040000fa
:04031000b60700002c
:020000040000fa
:04031400b607000028
:020000040000fa
:04031800b607000024
:020000040000fa
:04031c00ae07000028
:020000040000fa
:04032000b60700001c
:020000040000fa
:04032400b607000018
:020000040000fa
:0403280016030000b8
:020000040000fa
:04032c005203000078
:020000040000fa
:04033000b60700000c
:020000040000fa
:04033400b607000008
:020000040000fa
:10040000af0921000eff26000e0188000000000049
:10041000000020000000e000020032000001200087
:100420002002880014000700d20207000000e0004c
:1004300003003a008025210001002000020037005f
:100440000000200001002000810f70000100320038
:100450000f000700000020000000e0000200320052
:100460000000020000000000581002000000000020
:100470000040da000000fe00e00120000000e00083
:1004800002003200002020009001880000000600d9
:10049000a1028800800478000000eb001f003700f4
:1004a000e284440054a0b4009905ba00e2844400f8
:1004b00054a0b4009906ba00e284440054a0b400e9
:1004c0000006eb00476fde00fd07b200ae018800ba
:1004d000636ce10003003a000ad801000000eb0061
:1004e0000e003700606ce10008003a00004deb00a0
:1004f0000a05e800020039003420ec000af0a000f0
:100500008b05e900f9ff3e00040037006168e10057
:10051000010032000086eb000b00070019c7ba008b
:100520001905ba000e04e00003003a000a00e000da
:10053000dbff3a0000000600fe07b200ae028800b2
:100540008a047800f5ff37000cd0a300e20f4d00bd
:100550001c003b0089027800354dba000a05e8000e
:10056000020039003420ec000af0a0008b05e900fd
:100570000f003200254dba000a05e80002003900dc
:100580003420ec000af0a0008b05e90008003200de
:100590000c00e0000600320015cdba000a05e800a4
:1005a000020039003420ec000af0a0008b05e900bd
:1005b0008984e80054a0b4000b00e000e2ff3a0098
:1005c000000006009902ba00055d78008b05e9007d
:1005d000f7ff3200c82ade00055d78008b05e900d0
:1005e000f3ff32000c00e000f1ff320019ddba0029
:1005f000eeff3700e60e040000000000140f0400b8
:1006000000000000280f040000000000d4100400c7
:10061000000000006a100400000000003a09040015
:100620000000000058090400000000003600f80037
:10063000809fbe00829fbe00849fbe00869fbe003a
:100640003200f8003400f80010002000a0018800fb
:100650000020200000d0fe000200fa00e1618000ce
:10066000010f7800408180000000e00003003200ac
:10067000418180001e007800010001001808a900d7
:100680000080fa003400f9003200f9004f03be0088
:100690004f02be004f01be004f00be003600f90001
:1006a000004006003600f800809fbe00829fbe001a
:1006b000849fbe00869fbe003200f8003400f80020
:1006c00010002000a00188000020200000d0fe00c3
:1006d0000200fa00f1618000010f78005081800073
:1006e0000000e00003003200518180001e0078000d
:1006f000010001001828a9000080fa003400f90068
:100700003200f9004f03be004f02be004f01be0091
:100710004f00be003600f900004006003600f80029
:10072000809fbe00829fbe00849fbe00869fbe0049
:100730000000fa000228a900211080000008200013
:10074000008060000000e0000800320004e2a90020
:100750000830ef0070808000200090008000eb00e7
:10076000010878000e30ef000e0137004080800055
:100770008000eb00b200200003002000820f500038
:10078000838f5800fd003e00000601000b0037007b
:100790003a003700760037009d003700f40037003c
:1007a000c9003700da003700f1003700dc003700fd
:1007b000f2003700350037005100370000002100fb
:1007c00020009000620060000000e000f4003a00a9
:1007d00000002100100090007080880000002100bf
:1007e00010009000104078000af0b70000002100cf
:1007f0001000900010009000608088000000210030
:1008000010009000e6004000000021001100980058
:10081000000021001000900080007800c007210037
:10082000808f500003003a00000021006107210082
:100830001100980000002100a00090000100a1001c
:10084000210098000000210090009000000021008d
:1008500010007800808f500004003a000000210052
:10086000a00090000110a000210098000002a80044
:100870002000200040808800ca0037000022a80025
:100880002000200040808800c60037002110800032
:1008900000002800008060000000e0000800320036
:1008a00000002100604090008040e800000021002e
:1008b00061409800400020000e040700b900370096
:1008c000808080008000d100f00f20000080600058
:1008d000a0108800808080006100600000407800e7
:1008e0000004e00003003200b000200040808800d7
:1008f000ac0037003000200040808800a90037009d
:100900002110800000002800008060000000e0004e
:100910000800320000002100604090008040e800a4
:10092000000021006140980040002000f103070012
:100930009c0037000022a800808080004800de0074
:10094000e6006000000f2000010070008080880039
:10095000808080000000a0008080880010c0b3006c
:1009600012f0b70020002000408088008d00370082
:1009700012d0bf00e14f50000a00320060808000ba
:100980001000780080808800608080002000900047
:10099000a0808800608080002040900016f0b700a2
:1009a000010037001270ef0081808000f00f2000fe
:1009b000808f500009003600808080004800de00f3
:1009c000e6006000000f200001007000a010880009
:1009d000a0002000408088007200370080808000e6
:1009e000a0108800808080006100600000407800d6
:1009f0000004e00003003200500020004080880026
:100a00006800370030002000408088006500370013
:100a10002110800000002800008060000000e0003d
:100a20000900320000002100604090008040e80092
:100a3000000021006140980005e2a900500020005c
:100a4000ac0307005700370016d0bf008080fb00c2
:100a50008100e900cf08de00814078000040e90015
:100a600016f0b7000104e000100032006080800042
:100a700066004000608088000ad0bf000040e900a6
:100a80000af0b7000ad0bf000004e00003003a00fb
:100a90002000200097030700420037000022a80032
:100aa00020002000408088003e003700a0808000a9
:100ab000904078008180fb00a11088000000e800d1
:100ac000a080880037003700211080000000280037
:100ad000008060000000e0000900320000002100fa
:100ae000604090008040e8000000210061409800d4
:100af000400020007f03070005e2a900290037001d
:100b00000062a80080002000408088002500370097
:100b100080002000408088000062a800210037008b
:100b2000a0808000c11080008140780001487800da
:100b30000000e800a080880016d0bf000040e90057
:100b400016f0b70016d0bf000004e0000400320029
:100b500000a2a90060002000408088000200370049
:100b600000a2a800520307000082a8000d00370071
:100b7000200020005f0307000a003700000021006a
:100b8000604090008040e800000021006140980033
:100b9000600020005703070000000000010037003c
:100ba000000000000080fa004f03be004f02be00ac
:100bb0004f01be004f00be003600f90000400600a5
:100bc0003600f800809fbe00829fbe00849fbe005a
:100bd000869fbe000000fa00c028a9000000eb00bc
:100be0006e0607000080fa004f03be004f02be00f1
:100bf0004f01be004f00be003600f9000040060065
:100c00003600f800809fbe00829fbe00849fbe0019
:100c1000869fbe000000fa0067060700c048a900d2
:100c2000100020005d0607000080fa004f03be00a0
:100c30004f02be004f01be004f00be003600f9005b
:100c4000004006003600f800809fbe00829fbe0074
:100c5000849fbe00869fbe000000fa00c068a90005
:100c6000200020004d0607000080fa004f03be0060
:100c70004f02be004f01be004f00be003600f9001b
:100c8000004006003600f800809fbe00829fbe0034
:100c9000849fbe00869fbe000000fa00c088a900a5
:100ca000300020003d0607000080fa004f03be0020
:100cb0004f02be004f01be004f00be003600f900db
:100cc000004006003600f800809fbe00829fbe00f4
:100cd000849fbe00869fbe000000fa00c608a900df
:100ce000700020002d0607000080fa004f03be00b0
:100cf0004f02be004f01be004f00be003600f9009b
:100d0000004006003600f800809fbe00829fbe00b3
:100d1000849fbe00869fbe000000fa00214680002e
:100d200000102000008060000000e000030032009e
:100d3000c508a900c0002000180607002146800051
:100d400000022000008060000000e000030032008c
:100d5000c4a8a900900020001006070020468000cb
:100d6000700060000000e00003003200c488a900a9
:100d7000a0002000090607002046800061006000f6
:100d80000000e00003003200c408a900b000200009
:100d900002060700ffff37003600f800809fbe0004
:100da000829fbe00849fbe00869fbe000000fa00a6
:100db000108180000000e0000200320010818000fd
:100dc00000000100f1808000e0808000808f5000f2
:100dd00002003a002188a900180037000188a90004
:100de00010003700f0808000904078008180fb0088
:100df000411288000000e800f0808800f180800047
:100e000010092100808f500002003a008008210064
:100e1000f0808800f1808000e0808000808f5000aa
:100e200005003200f0118000700060000000e0005a
:100e3000ecff320001003700000000000080fa00e3
:100e40004f03be004f02be004f01be004f00be0068
:100e50003600f900004006003600f800809fbe0012
:100e6000829fbe00849fbe00869fbe000000fa00e5
:100e70000168a9001e003700c08080002112800098
:100e80008140780001487800c180800090092100ed
:100e9000808f500009003200c08080008000e80090
:100ea000d0808000808f500004003200c08080001d
:100eb0000000e800c08088000d003700c18080007d
:100ec00090092100808f500007003a00d1808000f7
:100ed00010092100808f500003003200100921000a
:100ee000c08088000200370010c0b30020f0b700b7
:100ef000f0118000620060000000e000deff3200c0
:100f0000208180000000e00002003200208180008b
:100f1000000001000080fa004f03be004f02be0037
:100f20004f01be004f00be003600f9000040060031
:100f3000801f78000000fa00e0118000620060006d
:100f40000000e000010032003c22a9000628a900b0
:100f50000080fa004f007800004006000000fa0010
:100f600017a8a9000080fa00004006000040da003f
:100f70000000fe000000050080017800020037003c
:100f8000b15978000201e9000200e000fcff3a00dc
:100f900000000600889fbe008a9fbe008004780083
:100fa0000200e0005b00320001407800814c7800d4
:100fb00082814400f1f99f00e20f51005500360094
:100fc00091449800a1449800e1f99f00d1f99f0055
:100fd000e60f51004f003600b1449800c1f99f0060
:100fe000e80f51004b0036000905ea006305650073
:100ff0000a8444000a055100c1ff2f000105650065
:101000000080fb008000eb00121020001310200075
:101010004f000700008cbe000a01440060b99f0029
:1010200071b99f00e80f55003a003600200498007f
:1010300031049800400498005104980020b99f00a2
:1010400031b99f0040b99f0051b99f00f80f55007a
:10105000300036006004980071049800000c98007d
:10106000110c9800200c9800310c9800400c98004e
:10107000510c980020b19f0031b19f0040b19f00fa
:1010800051b19f0060b19f0071b19f0000b99f00f6
:1010900011b99f006401640078014100020444001a
:1010a000020555006011b8000203be000002be0038
:1010b0000403be006022b80000007200818072004c
:1010c000020173008381730010003700009cbe0092
:1010d0000294be00400498005104980062049800f5
:1010e00073049800000c9800110c9800220c9800d2
:1010f000330c9800400c9800510c9800620c98003a
:10110000730c98000a02b1000802b000ff0f5500ee
:10111000eeff3e00090078004f05be004f04be0000
:10112000000006008101780000027800304178005c
:10113000b14f510002003a000204e000f9ff3a000a
:101140009480fb001380fb0000805000000006002c
:10115000020ab900001bb9000200b8008100420079
:081160008100430000000600bd
:020000040000fa
:10116800507200006f620000652000006473000088
:10117800504900004320000052460000006400006f
:101188007350000049430000205200004620000030
:0c119800416300006b0a00000000000032
:020000040000fa
:1011a4000000fa002188a9002168a9000008200095
:1011b400c01188003a22ef003c22ef0020022000f8
:1011c400f0118800b0a22000001288004222ef0033
:1011d4004c22ef004e22ef005022ef005222ef008b
:1011e4005422ef005622ef005822ef005a22ef005b
:1011f4005c22ef0080082100f08088008008210034
:10120400e080880010092100d080880010092100a6
:10121400c08088002070ef00a09320000800070021
:1012240080952000150007002168a80039e2a80075
:1012340038a2a8003882a8000080fa000000060046
:101244000200fa00000f78001e0078000000e000a1
:1012540003003a00a09320001081880002003700a8
:101264009e007800118188000080fa0000000600ca
:101274000000fa000080fa00000006000200fa00f4
:10128400000f78001e0078000000e00003003a0020
:101294008095200020818800020037009e0078009d
:1012a400218188000080fa00000006000000fa0096
:1012b4000080fa00000006000200fa000040eb0083
:1012c400004f780000000000d1808000c0808000c2
:1012d400808f5000fcff3200d0808000104f7800d7
:1012e400d08080000000e800d0808800d180800099
:1012f400a0092100808f500002003a00100921004b
:10130400d08088001e4078000080fa0000000600ab
:101314000200fa00004f7800000000001c000700e3
:101324000004a2000004e000fcff3a00e08080001a
:101334001e487800e08080000000e800e08088001b
:10134400e180800010092100808f500002003a00e3
:1013540080082100e08088002188a8000080fa002d
:10136400000006000000fa00d1808000c0808000e8
:101374000080680000f0a7000000ea000000ea0016
:101384004f00de00004078000080fa0000000600f4
:101394000400fa00f180800011079800e1808000c9
:1013a4001e009000808f5000060031009e009000c7
:1013b400e0808000008050000000e900000f780009
:1013c400050037009e009000e080800000805000ff
:1013d40068004000000f78001e00780000f0a700ad
:1013e4000000ea000000ea004f00de000040780040
:1013f4000080fa00000006000000fa00e18080008e
:10140400f0808000808f500009003a00e1118000d4
:10141400000820000080600000f0a7000000ea003f
:101424000000ea004f00de000040780001003700b1
:101434000040eb000080fa00000006000400fa00ff
:10144400c180800011079800d08080009e00900029
:10145400808f5000060031009e009000d0808000f4
:101464000080500069004000000f7800030037003e
:101474009e009000d0808000008f5000f00f20006c
:101484009e007800808f50000200360000c0eb0000
:10149400020037001e007800004078000080fa0047
:1014a400000006000400fa00f18080001107980093
:1014b400e18080001e009000808f50000600310003
:1014c4009e009000e0808000008050000000e90051
:1014d400000f7800050037009e009000e080800037
:1014e4000080500068004000000f7800f00f2000da
:1014f4009e007800808f50000200360000c0eb0090
:10150400020037001e007800004078000080fa00d6
:10151400000006000800fa00200798003107980030
:10152400c6ff07000080fb00000f78003e0090001b
:101534009e0f500002003100be009000010f7800a1
:101544000000eb0010079800090037005aff07005d
:10155400ae009000804878002e0090000000e80063
:10156400200798001e0090000000e8001007980073
:101574001e0090009e0f5000f4ff39001e007800fa
:101584000080fa00000006000800fa002007980016
:1015940031079800c3ff07000080fb00000f7800ac
:1015a4003e0090009e0f500002003100be009000eb
:1015b400010f78000000eb001007980009003700c5
:1015c4002e00900010407800ae0090008100e800ea
:1015d400210798004eff07001e0090000000e8005d
:1015e400100798001e0090009e0f5000f4ff390071
:1015f4001e0078000080fa00000006000400fa00d3
:101604000000eb00000f78008cff070020479800d3
:10161400a4ff0700304798002e4090000080fb0094
:101624000000e00003003200e90f50000300320024
:10163400040037001e20a000040037001e00a00094
:10164400020037001e10a000000000003e40900081
:101654000080fb000000e00003003200e90f5000ae
:1016640003003200040037001e30a00002003700df
:101674001e40a000000000001e0078000080fa0058
:10168400000006000400fa0010079800d1808000d2
:101694001e009000008f4000020037009e0078007a
:1016a400698f5000a00921009e007800808f5000af
:1016b400faff3e001e007800104078000080fa0017
:1016c400000006000000fa005cff07000080fb0039
:1016d4000000e9004f00de00004078000080fa00be
:1016e400000006000000fa006eff07000080fb0007
:1016f4000000e9004f00de00004078000080fa009e
:10170400000006000400fa00f01180008000eb00e5
:10171400008fbe001e00be00c001dd0002002000dc
:10172400e01180008000eb000000710081807100f6
:101734000080fa00000006000000fa0059ff0700cc
:101744000004e00010003200f1808000e08080009e
:10175400808f500006003600f08080008000780002
:10176400e0808000008050000000e900070037009e
:10177400f080800080007800e080800000805000cd
:1017840068004000010037000000eb000080fa0010
:10179400000006000000fa0028ff07000004e00033
:1017a40010003200d1808000c0808000808f500003
:1017b40006003600d080800080007800c080800061
:1017c400008050000000e90007003700d08080004e
:1017d40080007800c08080000080500068004000d5
:1017e400010037000000eb000080fa000000060052
:1017f4000000fa0039e2a80038a2a8003882a80044
:101804000080fa00000006000000fa0039e2a90096
:1018140038a2a9003882a9000080fa00000006005e
:101824000000fa0000002100610721001100980067
:101834000000210061072100010878000000210058
:10184400a00090000110a0002100980000002100d9
:10185400a00090000100a1002100980000002100d8
:101864008040eb0061409800b01e2000801088008a
:1018740000002800001088000422ef000222ef007c
:101884000228a9002228a8000080fa00000006000f
:101894000200fa0000002100e0409000014f7800af
:1018a4001e4078000080fa00000006000000fa00e4
:1018b4006080800066004000608088000ad0bf001d
:1018c4000040e9000af0b7000ad0bf000004e000bd
:1018d40003003a00400020004080880002003700e6
:1018e40010002000408088000080fa0000000600fc
:1018f4000200fa00000f78000042a8007080800007
:10190400200090000000e00003003200708080009e
:10191400200090001e0878000830ef000080fa00d4
:10192400000006000800fa00000f78002147980024
:10193400220798003307980000002100200090003f
:10194400610060000000e0000a003a00ae0190006f
:101954002e4190009e0078002008210078000700a6
:101964003e0190002108210010c0b3001f000700b1
:10197400030037003e0090008000eb00010878006f
:101984000080fa00000006000800fa00000f78004a
:10199400214798002207980033079800000021008f
:1019a40020009000610060000000e0000a003a009e
:1019b400ae0190002e4190009e007800c0072100e7
:1019c400470007003e019000c107210010c0b3008a
:1019d40006000700030037003e0090008000eb0083
:1019e400010878000080fa00000006000600fa00f2
:1019f400004f78001107980022079800000021008a
:101a040020009000610060000000e0002f003a0018
:101a14002e00900011002000010878000000210031
:101a2400100078009e009000110098000000210032
:101a3400100078001e487800000021001000780093
:101a4400ae009000210098000000210010007800f2
:101a5400e600400000002100010878000000210099
:101a64001000780080007800c0072100808f5000ab
:101a740003003a00000021006107210001087800fa
:101a840000002100a00090000110a1002100980096
:101a94000000210090009000000021001000780058
:101aa400808f500004003a0000002100a000900044
:101ab4000100a00021009800408080000000e000a8
:101ac40005003a000228a800030037002e00900009
:101ad4008000eb00010878000080fa000000060096
:101ae4000800fa00000f7800110798004247980098
:101af400330798003e00900000004000800078000a
:101b04001e007800010878001e007800100078009c
:101b1400800078000100a0001e0078000108780011
:101b24001e007800ce409000214098001e007800ee
:101b34009e009000210098000080fa00000006003a
:101b44000800fa00000f7800110798004247980037
:101b5400330798003e0090000000400080007800a9
:101b64001e007800010878001e007800ce40900026
:101b7400214098001e0078009e00900021009800eb
:101b84000080fa00000006000000fa0000002100b6
:101b9400200090006200600000f0a7000000ea004e
:101ba4000000ea004f00de00004078000080fa00e8
:101bb400000006000000fa00000021002000900050
:101bc4006100600000f0a7000000ea000000ea00e5
:101bd4004f00de00004078000080fa00000006009c
:101be4000000fa00002bef000006200010588800c7
:101bf400042bef003000200030588800082bef0041
:101c04000a2bef000c2bef000e2bef00102bef0034
:101c1400122bef00142bef00162bef00202bef00fc
:101c24000030200010598800382bef00402bef00c3
:101c3400482bef00502bef003a2bef00422bef0024
:101c44004a2bef00522bef003c2bef00442bef000c
:101c54004c2bef00542bef003e2bef00462bef00f4
:101c64004e2bef00562bef0000002100505b880044
:101c740000002100705b880000002100905b880058
:101c840000002100b05b8800a02bef00a42bef0024
:101c9400a82bef00ac2bef00d02bef00d22bef00e2
:101ca400d42bef00d82bef0000302000b05e88006a
:101cb40000302000d05e8800f02bef00f22bef0004
:101cc400022cef0060ee20004200070040f12000eb
:101cd4005800070080f22000600007001808a900df
:101ce4003808a8001828a9003828a8001160800026
:101cf40000f02000010070001060880001eba800d3
:101d040026000700802bef00822bef00842bef00ce
:101d1400862bef00882bef008a2bef008c2bef0033
:101d24008e2bef00902bef00922bef00942bef0003
:101d3400962bef0010102000c05c88000080fa0091
:101d4400000006000000fa00000ca80000000000db
:101d54000160800000102000008060000000e000ae
:101d6400fbff32000a0ba8000080fa000000060006
:101d74000000fa00002ca8000000000001608000b0
:101d840000202000008060000000e000fbff320023
:101d94000a2ba8000080fa00000006000000fa00e8
:101da40000eca80000000000016080000000280092
:101db400008060000000e000fbff32000aeba80096
:101dc4000080fa00000006000000fa000080fa001b
:101dd400000006000200fa00000f78001e007800e0
:101de400308188000080fa00000006000000fa003c
:101df4005140800000402000008060000000e000ae
:101e040006003200308180000000e0000200320051
:101e140030818000000001000b48a9000080fa0016
:101e2400000006000200fa00000f78000080fa00ab
:101e3400000006000200fa00000f78001e0078007f
:101e4400408188000080fa00000006000200fa00c9
:101e5400000f78000080fa00000006000200fa007b
:101e6400000f78001e007800508188000080fa007e
:101e7400000006000000fa00007c80000080fa00e8
:101e8400000006000200fa00faff0700000f7800c5
:101e94001e007800240007000004e0000200320065
:101ea40000002800710007001e0078002a000700c7
:101eb4000004e00002003200000024006b00070070
:101ec4001e007800320007000004e0000200320027
:101ed40000202000650007001e0078003a0007007b
:101ee4000004e00002003200000820005f00070048
:101ef4001e007800420007000004e00002003200e7
:101f040000042000590007001e0078004a00070062
:101f14000004e0000200320000012000530007002a
:101f24000080fa00000006000400fa001007980080
:101f34000040eb00004f78001e0090000000e0001d
:101f440002003d0010c0b300004f78001e4078002e
:101f54000080fa00000006000400fa001007980050
:101f64000040eb00004f78009e0090000000240029
:101f7400008060000000e0000200320010c0b300e6
:101f8400004f78001e4078000080fa000000060030
:101f94000400fa00100798000040eb00004f78009e
:101fa4009e00900000202000008060000000e000ff
:101fb4000200320010c0b300004f78001e407800c9
:101fc4000080fa00000006000400fa0010079800e0
:101fd4000040eb00004f78009e00900000082000b5
:101fe400008060000000e0000200320010c0b30076
:101ff400004f78001e4078000080fa0000000600c0
:102004000400fa00100798000040eb00004f78002d
:102014009e00900000042000008060000000e000aa
:102024000200320010c0b300004f78001e40780058
:102034000080fa00000006000400fa00100798006f
:102044000040eb00004f78001e009000700060001c
:102054000000e0000200320010c0b300004f78001e
:102064001e4078000080fa00000006000200fa001a
:10207400000f78009e80ea00007c800000806000f1
:10208400007c88000080fa00000006000000fa00ce
:10209400802fef000080fa00000006000000fa0024
:1020a400b5efa9000080fa00000006000000fa0065
:1020b4002d010700f9ff0700400d210060fc070017
:1020c400a00621006dfc070077eea800ffff370093
:1020d4000000fa00881f78002c0037002ed0bf00c3
:1020e4000004fb0074fc07008040780060062100b7
:1020f40008004000014878002ed0bf000000fb001b
:10210400610621000080400010407800ea4f500032
:1021140018003a002ed0bf000000fb006106210029
:10212400008040008040eb0001487800418b28008b
:1021340060062100fafb07000000e00007003a00f7
:1021440077eea90077cea800e2002000318c2800a9
:102154006005210087fb0700120007000201200030
:102164008000eb006006210089fb07002e70ef0061
:10217400060037002ed0bf00ee4f500003003c0095
:102184002ed0bf000040e8002ef0b70075fc070019
:102194000004e000d1ff3a004f0478000080fa0008
:1021a400000006000000fa00608180006105210043
:1021b40000804000104078000004e0000900320074
:1021c400608180006105210000804000104078009b
:1021d4004ffc0700608180000000e80060818800f7
:1021e40005003700020120008000eb00600521009b
:1021f40067fb07002c30ef000080fa0000000600a7
:102204000000fa0010002300307c88002003200026
:10221400407c88008c2fef0010012000507c880047
:1022240010102000707c880060092000807c8800e9
:1022340010042000907c88009a2fef00b82fef0044
:10224400ba2fef00be2fef00002def00a02fef00fc
:10225400a42fef00a62fef00a82fef00aa2fef0066
:10226400ae2fef00b02fef00b22fef0032002000ae
:1022740080072000a109200053f82000804978003d
:10228400814978008249780012002000600420000f
:102294007105200043f820008049780081497800c6
:1022a4008249780000000000207c8000610060000a
:1022b4000000e000fcff3a0000000000217c8000e8
:1022c40000022000008060000000e000fbff3200fc
:1022d4000080fa00000006000000fa00707c800014
:1022e400ee800a00000000000080fb0000f0a70060
:1022f4000000ea000000ea004f00de000040780021
:102304000080fa00000006000000fa00062eef002c
:10231400222eef003e2eef005a2eef00762eef0015
:10232400f001200010708800d0ff2f00f0708800aa
:102334000080eb00d0718800f0fe2f00b07288009e
:10234400f0ff2100907388000c2eef00282eef0080
:10235400442eef00602eef007c2eef000a2eef00db
:10236400262eef00422eef005e2eef007a2eef00b5
:10237400082eef00242eef00402eef005c2eef001d
:10238400782eef00f001200000708800e039200072
:10239400e0708800f00c2000c071880000c02200aa
:1023a400a0728800f0002000807388000000eb0019
:1023b40051052000b1468800a10a2000b1468800da
:1023c4000068880030c4b30028edb700216d800098
:1023d40000fc2f00008060000000a000206d880039
:1023e4000080200051052000b1468800a10a200089
:1023f400b1468800006888000080fa0000000600ea
:102404000000fa0041428000f0f82f0000806000d4
:102414000040a000404288004142800080ff2f001d
:10242400008060000000a00040428800f144800069
:10243400f0f82f00008060000040a000f044880005
:102444003142800080ff2f00008060000000a00067
:1024540030428800c1428000f0f82f000080600004
:102464000040a000c042880021428000f0ff280004
:102474000080600000c0a000204288000145800068
:1024840080ff2f00008060000000a000004588004d
:1024940001458000f0f82f00008060000040a0009b
:0c24a400004588000080fa0000000600df
:020000040000fa
:1024b00026100000060000008000000076100000da
:1024c0001200000080000000001000001800000052
:1024d0008000000036100000200000008000000096
:1024e000341000000200000082000000ffff000026
:1024f0005610000020000000800000002c1000009a
:102500000400000080000000301000000400000003
:102510008000000088100000120000008000000011
:10252000181000000e0000008000000000000000f5
:020000040000fa
:102530000200fa00000f780021028000200f200026
:10254000008060001e007000200288000080fa00f9
:10255000000006000000fa00c3e8a8000000000028
:10256000000000000080fa00000006000000fa00f1
:1025700066ff0700a3ff070022ff0700a9fc070072
:1025800008fb070097fd0700f2ff0700000220008c
:10259000e7ff07000080fa00000006000200fa00d2
:1025a000000f78009e007800a18188000000fe00e6
:1025b0000080fa00000006000000fa00600321001d
:1025c00080077800e0042100000188000080fa0004
:1025d00000000600809fbe00ec80570031007800ac
:1025e000808188001100780032f0b7004f00be00f3
:0425f00000000600e1
:020000040000fa
:020000040005f5
:047e0000ffffff0081
:020000040000fa
:020000040005f5
:047e2000ffffff0061
:020000040000fa
:020000040005f5
:047e300078ffff00d8
:020000040000fa
:020000040005f5
:047e380078ffff00d0
:020000040000fa
:020000040005f5
:047e40007f7fff0041
:020000040000fa
:020000040005f5
:047e4800ffffff0039
:020000040000fa
:020000040005f5
:047e5000ddffff0053
:020000040000fa
:020000040005f5
:047e58000000ff0027
:020000040000fa
:020000040005f5
:047e60000000ff001f
:020000040000fa
:020000040005f5
:047e68000000ff0017
:020000040000fa
:020000040005f5
:047e70000000ff000f
:020000040000fa
:020000040005f5
:047e7800ffffff0009
:020000040000fa
:020000040005f5
:047e8000f7fcff000c
:020000040000fa
:020000040005f5
:047e8800ffffff00f9
:020000040000fa
:020000040005f5
:047ff800ffffff0088
:020000040000fa
:020000040100f9
:04300000ffffff00cf
:00000001FF
