:020000040000fa
:080000000002040000000000f2
:020000040000fa
:0400080026030000cb
:020000040000fa
:04000c006803000085
:020000040000fa
:04001000a803000041
:020000040000fa
:04001400460300009f
:020000040000fa
:040018008803000059
:020000040000fa
:04001c00e6050000f5
:020000040000fa
:04002000c803000011
:020000040000fa
:04002400e6050000ed
:020000040000fa
:04002800e6050000e9
:020000040000fa
:04002c00fc040000d0
:020000040000fa
:04003000e6050000e1
:020000040000fa
:04003400e6050000dd
:020000040000fa
:04003800e6050000d9
:020000040000fa
:04003c00e6050000d5
:020000040000fa
:04004000e6050000d1
:020000040000fa
:04004400e6050000cd
:020000040000fa
:04004800e6050000c9
:020000040000fa
:04004c00e6050000c5
:020000040000fa
:04005000e6050000c1
:020000040000fa
:040054007204000032
:020000040000fa
:04005800120400008e
:020000040000fa
:04005c00e6050000b5
:020000040000fa
:04006000e6050000b1
:020000040000fa
:04006400e6050000ad
:020000040000fa
:04006800e6050000a9
:020000040000fa
:04006c00e6050000a5
:020000040000fa
:04007000e6050000a1
:020000040000fa
:04007400e60500009d
:020000040000fa
:04007800e605000099
:020000040000fa
:04007c00e605000095
:020000040000fa
:04008000e605000091
:020000040000fa
:04008400e60500008d
:020000040000fa
:04008800e605000089
:020000040000fa
:04008c00e605000085
:020000040000fa
:04009000e605000081
:020000040000fa
:04009400e60500007d
:020000040000fa
:04009800e605000079
:020000040000fa
:04009c00e605000075
:020000040000fa
:0400a000e605000071
:020000040000fa
:0400a400e60500006d
:020000040000fa
:0400a800e605000069
:020000040000fa
:0400ac00e605000065
:020000040000fa
:0400b000e605000061
:020000040000fa
:0400b400e60500005d
:020000040000fa
:0400b800e605000059
:020000040000fa
:0400bc00e605000055
:020000040000fa
:0400c000e605000051
:020000040000fa
:0400c400e60500004d
:020000040000fa
:0400c800e605000049
:020000040000fa
:0400cc00e605000045
:020000040000fa
:0400d000e605000041
:020000040000fa
:0400d400e60500003d
:020000040000fa
:0400d800e605000039
:020000040000fa
:0400dc00e605000035
:020000040000fa
:0400e000e605000031
:020000040000fa
:0400e400e60500002d
:020000040000fa
:0400e800e605000029
:020000040000fa
:0400ec00de0400002e
:020000040000fa
:0400f000e605000021
:020000040000fa
:0400f400e60500001d
:020000040000fa
:0400f800e605000019
:020000040000fa
:0400fc00e605000015
:020000040000fa
:04010000e605000010
:020000040000fa
:04010400e60500000c
:020000040000fa
:04010800e605000008
:020000040000fa
:04010c00e605000004
:020000040000fa
:04011000e605000000
:020000040000fa
:04011400e6050000fc
:020000040000fa
:04011800e6050000f8
:020000040000fa
:04011c00e6050000f4
:020000040000fa
:04012000e6050000f0
:020000040000fa
:04012400e6050000ec
:020000040000fa
:04012800e6050000e8
:020000040000fa
:04012c00e6050000e4
:020000040000fa
:04013000e6050000e0
:020000040000fa
:04013400e6050000dc
:020000040000fa
:04013800e6050000d8
:020000040000fa
:04013c00e6050000d4
:020000040000fa
:04014000e6050000d0
:020000040000fa
:04014400e6050000cc
:020000040000fa
:04014800e6050000c8
:020000040000fa
:04014c00e6050000c4
:020000040000fa
:04015000e6050000c0
:020000040000fa
:04015400e6050000bc
:020000040000fa
:04015800e6050000b8
:020000040000fa
:04015c00e6050000b4
:020000040000fa
:04016000e6050000b0
:020000040000fa
:04016400e6050000ac
:020000040000fa
:04016800e6050000a8
:020000040000fa
:04016c00e6050000a4
:020000040000fa
:04017000e6050000a0
:020000040000fa
:04017400e60500009c
:020000040000fa
:04017800e605000098
:020000040000fa
:04017c00e605000094
:020000040000fa
:04018000e605000090
:020000040000fa
:04018400e60500008c
:020000040000fa
:04018800e605000088
:020000040000fa
:04018c00e605000084
:020000040000fa
:04019000e605000080
:020000040000fa
:04019400e60500007c
:020000040000fa
:04019800e605000078
:020000040000fa
:04019c00e605000074
:020000040000fa
:0401a000e605000070
:020000040000fa
:0401a400e60500006c
:020000040000fa
:0401a800e605000068
:020000040000fa
:0401ac00e605000064
:020000040000fa
:0401b000e605000060
:020000040000fa
:0401b400e60500005c
:020000040000fa
:0401b800e605000058
:020000040000fa
:0401bc00e605000054
:020000040000fa
:0401c000e605000050
:020000040000fa
:0401c400e60500004c
:020000040000fa
:0401c800e605000048
:020000040000fa
:0401cc00e605000044
:020000040000fa
:0401d000e605000040
:020000040000fa
:0401d400e60500003c
:020000040000fa
:0401d800e605000038
:020000040000fa
:0401dc00e605000034
:020000040000fa
:0401e000e605000030
:020000040000fa
:0401e40032050000e0
:020000040000fa
:0401e800e605000028
:020000040000fa
:0401ec00e605000024
:020000040000fa
:0401f000e605000020
:020000040000fa
:0401f400e60500001c
:020000040000fa
:0401f800e605000018
:020000040000fa
:0401fc00e605000014
:020000040000fa
:04020000e60500000f
:020000040000fa
:04020400e60500000b
:020000040000fa
:04020800e605000007
:020000040000fa
:04020c00e605000003
:020000040000fa
:04021000e6050000ff
:020000040000fa
:04021400e6050000fb
:020000040000fa
:04021800e6050000f7
:020000040000fa
:04021c00e6050000f3
:020000040000fa
:04022000e6050000ef
:020000040000fa
:04022400e6050000eb
:020000040000fa
:04022800e6050000e7
:020000040000fa
:04022c00e6050000e3
:020000040000fa
:04023000e6050000df
:020000040000fa
:04023400e6050000db
:020000040000fa
:04023800e6050000d7
:020000040000fa
:04023c00e6050000d3
:020000040000fa
:04024000e6050000cf
:020000040000fa
:04024400e6050000cb
:020000040000fa
:04024800e6050000c7
:020000040000fa
:04024c00e6050000c3
:020000040000fa
:04025000e6050000bf
:020000040000fa
:04025400e6050000bb
:020000040000fa
:04025800e6050000b7
:020000040000fa
:04025c00e6050000b3
:020000040000fa
:04026000e6050000af
:020000040000fa
:04026400e6050000ab
:020000040000fa
:04026800e6050000a7
:020000040000fa
:04026c00e6050000a3
:020000040000fa
:04027000e60500009f
:020000040000fa
:04027400e60500009b
:020000040000fa
:04027800e605000097
:020000040000fa
:04027c00e605000093
:020000040000fa
:04028000e60500008f
:020000040000fa
:04028400e60500008b
:020000040000fa
:04028800e605000087
:020000040000fa
:04028c00e605000083
:020000040000fa
:04029000e60500007f
:020000040000fa
:04029400e60500007b
:020000040000fa
:04029800e605000077
:020000040000fa
:04029c00e605000073
:020000040000fa
:0402a000e60500006f
:020000040000fa
:0402a400e60500006b
:020000040000fa
:0402a800e605000067
:020000040000fa
:0402ac00e605000063
:020000040000fa
:0402b000e60500005f
:020000040000fa
:0402b400e60500005b
:020000040000fa
:0402b800e605000057
:020000040000fa
:0402bc00e605000053
:020000040000fa
:0402c000e60500004f
:020000040000fa
:0402c400e60500004b
:020000040000fa
:0402c800e605000047
:020000040000fa
:0402cc00e605000043
:020000040000fa
:0402d000e60500003f
:020000040000fa
:0402d400e60500003b
:020000040000fa
:0402d800e605000037
:020000040000fa
:0402dc00e605000033
:020000040000fa
:0402e000e60500002f
:020000040000fa
:0402e400e60500002b
:020000040000fa
:0402e800e605000027
:020000040000fa
:0402ec00e605000023
:020000040000fa
:0402f000e60500001f
:020000040000fa
:0402f400e60500001b
:020000040000fa
:0402f800e605000017
:020000040000fa
:0402fc00e605000013
:020000040000fa
:04030000e60500000e
:020000040000fa
:04030400e60500000a
:020000040000fa
:04030800e605000006
:020000040000fa
:04030c00e605000002
:020000040000fa
:04031000e6050000fe
:020000040000fa
:04031400e6050000fa
:020000040000fa
:04031800e6050000f6
:020000040000fa
:04031c00f4040000e5
:020000040000fa
:04032000e6050000ee
:020000040000fa
:04032400e6050000ea
:020000040000fa
:040328006e0500005e
:020000040000fa
:04032c00aa0500001e
:020000040000fa
:04033000e6050000de
:020000040000fa
:04033400e6050000da
:020000040000fa
:100400002f0b21000eff26000e01880000000000c7
:10041000000020000000e000020032000001200087
:100420002002880014000700ea0107000000e00035
:1004300003003a00001622000100200002003700ed
:100440000000200001002000810f70000100320038
:100450000f000700000020000000e0000200320052
:10046000000002000000000058150200000000001b
:100470000040da000000fe00a00520000000e000bf
:1004800002003200002020009001880000000600d9
:10049000a1028800800478000000eb001f003700f4
:1004a000e284440054a0b4009905ba00e2844400f8
:1004b00054a0b4009906ba00e284440054a0b400e9
:1004c0000006eb00476fde00fd07b200ae018800ba
:1004d000636ce10003003a000ad801000000eb0061
:1004e0000e003700606ce10008003a00004deb00a0
:1004f0000a05e800020039003420ec000af0a000f0
:100500008b05e900f9ff3e00040037006168e10057
:10051000010032000086eb000b00070019c7ba008b
:100520001905ba000e04e00003003a000a00e000da
:10053000dbff3a0000000600fe07b200ae028800b2
:100540008a047800f5ff37000cd0a300e20f4d00bd
:100550001c003b0089027800354dba000a05e8000e
:10056000020039003420ec000af0a0008b05e900fd
:100570000f003200254dba000a05e80002003900dc
:100580003420ec000af0a0008b05e90008003200de
:100590000c00e0000600320015cdba000a05e800a4
:1005a000020039003420ec000af0a0008b05e900bd
:1005b0008984e80054a0b4000b00e000e2ff3a0098
:1005c000000006009902ba00055d78008b05e9007d
:1005d000f7ff3200c82ade00055d78008b05e900d0
:1005e000f3ff32000c00e000f1ff320019ddba0029
:1005f000eeff37004c1a0400000000006a1a0400e5
:1006000000000000fa1f040000000000221e040089
:1006100000000000501e040000000000641e0400e2
:1006200000000000781e040000000000fc17040019
:10063000000000002e1704000000000056180400ff
:10064000000000005e180400000000003600f80002
:10065000809fbe00829fbe00849fbe00869fbe001a
:100660000000fa00c028a9000000eb00b90f070045
:100670000080fa004f03be004f02be004f01be00d3
:100680004f00be003600f900004006003600f800ba
:10069000809fbe00829fbe00849fbe00869fbe00da
:1006a0000000fa00b20f0700c048a90010002000a7
:1006b000a80f07000080fa004f03be004f02be00e3
:1006c0004f01be004f00be003600f900004006009a
:1006d0003600f800809fbe00829fbe00849fbe004f
:1006e000869fbe000000fa00c068a900200020001c
:1006f000980f07000080fa004f03be004f02be00b3
:100700004f01be004f00be003600f9000040060059
:100710003600f800809fbe00829fbe00849fbe000e
:10072000869fbe000000fa00c088a90030002000ab
:10073000880f07000080fa004f03be004f02be0082
:100740004f01be004f00be003600f9000040060019
:100750003600f800809fbe00829fbe00849fbe00ce
:10076000869fbe000000fa00c608a90070002000a5
:10077000780f07000080fa004f03be004f02be0052
:100780004f01be004f00be003600f90000400600d9
:100790003600f800809fbe00829fbe00849fbe008e
:1007a000869fbe000000fa00214680000010200055
:1007b000008060000000e00003003200c508a900ce
:1007c000c0002000630f07002146800000022000c7
:1007d000008060000000e00003003200c4a8a9000f
:1007e000900020005b0f0700204680007000600032
:1007f0000000e00003003200c488a900a00020002f
:10080000540f070020468000610060000000e000f7
:1008100003003200c408a900b00020004d0f0700fb
:10082000ffff37003600f800809fbe00829fbe00a9
:10083000849fbe00869fbe000000fa0050808000aa
:100840000000e00002003200508080000000010043
:100850003180800020808000808f500002003a00ac
:100860002188a900180037000188a900100037006e
:1008700030808000904078008180fb004112880029
:100880000000e8003080880031808000500a21009c
:10089000808f500002003a00c0092100308088009b
:1008a0003180800020808000808f50000500320061
:1008b000f0118000700060000000e000ecff3200ea
:1008c00001003700000000000080fa004f03be0066
:1008d0004f02be004f01be004f00be003600f900bf
:1008e000004006003600f800809fbe00829fbe00d8
:1008f000849fbe00869fbe000000fa000168a90028
:100900001e003700008080002112800081407800a6
:100910000148780001808000d00a2100808f5000bb
:1009200009003200008080008000e8001080800014
:10093000808f500004003200008080000000e8003a
:10094000008088000d00370001808000d00a21005f
:10095000808f500007003a0011808000500a21006b
:10096000808f500003003200500a21000080880070
:100970000200370010c0b30008f0b700f01180008b
:10098000620060000000e000deff32006080800056
:100990000000e000020032006080800000000100e2
:1009a0000080fa004f03be004f02be004f01be00a0
:1009b0004f00be003600f90000400600801f78009e
:1009c0000000fa00e0118000620060000000e0001a
:1009d000010032003c22a9000628a9000080fa008c
:1009e0004f007800004006000000fa0017a8a90098
:1009f0000080fa00004006003600f800809fbe002c
:100a0000829fbe00849fbe00869fbe000000fa0049
:100a1000208180000000e000020032002081800080
:100a200000000100f00a2100104078008040e8003a
:100a3000f00a210001487800e00a210011c0b3004b
:100a4000014878000028a9000080fa004f03be008a
:100a50004f02be004f01be004f00be003600f9003d
:100a6000004006003600f800809fbe00829fbe0056
:100a7000849fbe00869fbe003200f8003400f8005c
:100a800010002000a00188000020200000d0fe00ff
:100a90000200fa00a1618000010f780080808000d0
:100aa0000000e00003003200818080001e0078001a
:100ab000010001000de8a9000080fa003400f900ef
:100ac0003200f9004f03be004f02be004f01be00ce
:100ad0004f00be003600f900004006003600f80066
:100ae000809fbe00829fbe00849fbe00869fbe0086
:100af0003200f8003400f80010002000a001880047
:100b00000020200000d0fe000200fa00e161800019
:100b1000010f7800908080000000e00003003200a8
:100b2000918080001e007800010001001808a900d3
:100b30000080fa003400f9003200f9004f03be00d3
:100b40004f02be004f01be004f00be003600f9004c
:100b5000004006003600f800809fbe00829fbe0065
:100b6000849fbe00869fbe003200f8003400f8006b
:100b700010002000a00188000020200000d0fe000e
:100b80000200fa00f1618000010f7800a08080006f
:100b90000000e00003003200a18080001e00780009
:100ba000010001001828a9000080fa003400f900b3
:100bb0003200f9004f03be004f02be004f01be00dd
:100bc0004f00be003600f900004006000040da0089
:100bd0000000fe00000005000000fa00e881570058
:100be0004fb99700ab0207000080fa000000060032
:100bf000c800070021010700d4010700fc0107001d
:100c0000550107001c030700c70237008000780069
:100c10001000200002022000828f500004003200e9
:100c2000e9805000e48f5000010036000000eb0026
:100c300000000600889fbe008a1f7800000578002b
:100c40000a047800984478000805e8000900fb00d1
:100c5000eeff07000000e000f9ff3a00b0c2b30069
:100c600080cf540005003200d0c2b3008000eb00fa
:100c700080cf540005003a00020037008000eb00ee
:100c800001003700110020000804e8000000eb001c
:100c900003003700ea00b900020050000003b00072
:100ca0003801fb0003fd2f0082814100e98f5100d4
:100cb000f8ff36000100e00001003a000000ea0001
:100cc0004f0578004f04be0000000600889fbe005c
:100cd0008a9fbe00800478000200e0005b003200c2
:100ce00001407800814c780082814400f1f99f0036
:100cf000e20f51005500360091449800a14498003d
:100d0000e1f99f00d1f99f00e60f51004f00360036
:100d1000b1449800c1f99f00e80f51004b00360024
:100d20000905ea00630565000a8444000a055100cc
:100d3000c1ff2f00010565000080fb008000eb0073
:100d40001210200013102000db050700008cbe00ed
:100d50000a01440060b99f0071b99f00e80f550077
:100d60003a003600200498003104980040049800ae
:100d70005104980020b99f0031b99f0040b99f00ed
:100d800051b99f00f80f55003000360060049800fc
:100d900071049800000c9800110c9800200c980029
:100da000310c9800400c9800510c980020b19f0025
:100db00031b19f0040b19f0051b19f0060b19f00d1
:100dc00071b19f0000b99f0011b99f0064016400d8
:100dd0007801410002044400020555006011b8008a
:100de0000203be000002be000403be006022b80081
:100df0000000720081807200020173008381730021
:100e000010003700009cbe000294be004004980011
:100e1000510498006204980073049800000c980034
:100e2000110c9800220c9800330c9800400c98008c
:100e3000510c9800620c9800730c98000a02b100e3
:100e40000802b000ff0f5500eeff3e0009007800d9
:100e50004f05be004f04be0000000600810178006f
:100e60000002780030417800b14f510002003a0092
:100e70000204e000f9ff3a009480fb001380fb00bd
:100e80000080500000000600881f780000047800f1
:100e900008007800ac040700080078004f047800d0
:100ea000000006008001eb000200e00010003200ac
:100eb0000002780001037800b44178000304e000e8
:100ec00008003200b14278000504e000050032005d
:100ed00082034000848f53000200320085cf51000e
:100ee000f4ff32008381fb001680fb0080815100fb
:100ef0000300780000000600881f780000047800d6
:100f000008007800b0040700080078004f0478005b
:100f100000000600ec874700889fbe008a9fbe0045
:100f20008c9fbe008e1f78000006780001047800b8
:100f3000180790002805900098067800cdb79f000c
:100f4000b80590003202be002203be000400be00bd
:100f50000601be004f18de006011b8008000eb00f3
:100f6000d0b79f00e1b79f00f2b79f0083bf9f00fb
:100f7000800478000900e000060032006000b8003c
:100f80006011b80004025000858258000603590021
:100f9000878359000e00e000020035000d10a1000b
:100fa000cdb79f000900e00005003a004fb0970060
:100fb0000028a30002003a000038a300020032001b
:100fc0008a00e900010037008a007800f8815700a4
:100fd000a200200008007800890007000900e00056
:100fe00003003a00cfb097000128a30008003200a8
:100ff0000000e90000814500b1c2b3000900e00033
:1010000001003200d1c2b300014978000600370068
:101010000138a300040032000000e9008080450090
:1010200002c2b30082487800480190000201e90042
:1010300000015100808045004fb297008a0178007e
:101040000c007800570207009c0090000188a30064
:101050000400320098009000810f500001003d0014
:10106000010078004f0778004f06be004f05be0014
:101070004f04be00cf00b100000006000200fa00dd
:10108000889fbe008a9fbe0080057800010478001a
:101090000200780018019000280590009800780060
:1010a000b1bf9f00b80490000200e00002003500cc
:1010b0000110a100b1bf9f00ea815700820020000b
:1010c0008a0078003002be002003be0008007800cd
:1010d0004b0007003fb99700f000610004003200a8
:1010e0000000e9008080440002c3b3008248780019
:1010f0003fb99700e8006100040032000000e900f9
:101100008080440002c2b300824878004801900009
:101110000201e90000015100808044003fba9700bd
:101120008a0178000b0078001e0207009b009000e7
:101130000188a3000400320098009000810f500045
:1011400001003d00010078004f05be004f04be00c5
:101150000080fa0000000600ea874700889fbe0072
:101160008a9fbe008e1f780000047800030078007c
:101170007287570084e2260055c72600049fbe00f0
:10118000c3962200030f78006c875700004feb00d6
:1011900011059000a1049000910578000200e00084
:1011a0000200320002077800010037007287570002
:1011b0000000e00002003a000e007800370407004b
:1011c0000a00e000030035008a0f500001003600dd
:1011d0000a0078000b02780089017800000178008d
:1011e0008e00780008007800ee0107004f077800b5
:1011f0004f05be004f04be00af00b1000000060066
:10120000f4874700889fbe008a9fbe008c9fbe0067
:101210008e1f78000605be000404be0081bf9f003b
:1012200082b79f00f3b79f00b0009000e1b79f0026
:101230001301780092b79f00900690004000900044
:101240000000e900000678000d00e00001003d000c
:101250001d002000efb19700008041000048eb0026
:101260001e0020001f0037000c06e9000fb0970099
:10127000cf80de006109b900a0b79f00b1b79f0021
:10128000c2b79f00d3b79f000203be000002be009a
:101290000800be000a01be002d0507000007780007
:1012a000efb097000c80400003c3b3000348470031
:1012b0008d06e9000fb897000000e90080bf9f008d
:1012c0002fb29700bfb297004fb39700dfb39700dc
:1012d0000800be000a01be00160507000205be0098
:1012e0000004be000c00e0000d003400e00f5400cc
:1012f000e08f5c00e00f5d00e08f5d00daff3a00f8
:101300000d00e000d8ff3c008fb897000100e0001e
:10131000030034001fb197000218a300d2ff3a0067
:101320000e00e00002003a00ffb197001340a10058
:101330000c0078004f0778004f06be004f05be0036
:101340004f04be004f01b100000006000200fa0089
:10135000889fbe008a9fbe000005780001047800c7
:101360000200780018019000a8049000980078000e
:10137000b1bf9f00b80590000200e00002003500f8
:101380000110a100b1bf9f00ea815700a200200018
:10139000890078003002be002003be0008007800fb
:1013a00097ff0700480190000201e9000001510089
:1013b000808045003fba9700890178000a007800d4
:1013c000780107009a0090000188a3000400320011
:1013d00098009000810f500001003d00010078004e
:1013e0004f05be004f04be000080fa00000006005a
:1013f000fa874700889fbe008a9fbe008c9fbe0070
:101400008e1f78008004780001047800820578003f
:10141000180190002805900018077800b800900087
:101420000200e000020035000e10a10001003700ac
:101430001200200070006700e0b79f000900320032
:101440003b02be002b03be00e00f5200e08f5a00ab
:10145000e00f5b00e08f5b00020032008a86e9004b
:10146000010037008a067800e8026700f5b79f00a0
:10147000010032008d06e9003b02be002b03be00d6
:10148000e4af9f00f5af9f0086b79f0097b79f001e
:10149000480690000c06e9000c8040000048eb0074
:1014a000efb297007fb2970089037800810478003b
:1014b000d8af9f00020478008bbf9f008a05780098
:1014c000034578002b0037000c06e9006fab97004e
:1014d0006f006300e90f500002003c000003b00001
:1014e000010037007005b0000a03fb001604b100cc
:1014f000f90f53000c003e00000378000650a000d6
:101500001606b100f90f530007003e00b4b79f0064
:10151000a5b79f00c7b79f007f030700cfb3970011
:10152000afb297003fb297000c834400004b7800a5
:101530000804e9008d06e9006fa89700ffa897004e
:101540000fb197009fb19700460020008301d100a2
:101550000281d3008180d3000080d3000603e9001c
:10156000faff3a00e0af9f00f1af9f0082b79f0003
:1015700093b79f00e10f56000f0034006fa897004b
:10158000ffa897000fb197009fb19700e00f5000a0
:10159000e08f5800e00f5900e08f5900caff3a0071
:1015a0000800e000c8ff3c000d00e000020034002d
:1015b0000e18a300c4ff3a0089007800f4b79f001a
:1015c000870478005fac97008a4178000b057800ab
:1015d0008fbd97000500e000120032003b02be0004
:1015e0002b03be00e4af9f00f5af9f0086b79f00be
:1015f00097b79f00e00f5200e08f5a00e00f5b00aa
:10160000e08f5b00070032000c06e9000c80400010
:10161000034878000c06e9000c80400002c3b300c8
:1016200002487800ffb297000500e0000400320095
:101630000c06e9000c80400002c2b30002487800aa
:10164000480190000201e9000c0151008c8040002b
:101650000e0278008a01780009007800d1000700a6
:10166000990090000188a3000400320098009000c7
:10167000810f500001003d00010078004f07780005
:101680004f06be004f05be004f04be00af01b100c3
:1016900000000600f28747008e1f780002027800e3
:1016a000030178000000e00002003200000778002b
:1016b00001003700728757008002eb000100e00054
:1016c000010032008102e900708057000600090025
:1016d0000018eb000080eb0080bf9f00231020006b
:1016e00093bf9f00aebf9f00b1bf9f00c5bf9f00cb
:1016f0000100e00003003d00b10420008185880066
:1017000006003700004feb00eebf9f00debf9f00da
:101710008400780070805700060307004f077800a8
:101720002f01b1000000060084082000848f5000c3
:101730001d0032000d003c0014082000848f500072
:101740002700320002003c0004082000040037009b
:1017500024082000848f5000340032004408200008
:10176000848f500043003a0036003700040a2000fe
:10177000848f50002700320004003c000409200040
:10178000848f50003b003a0028003700020c2000f4
:10179000828f50002f003200020f2000828f5000f5
:1017a00034003a002b0037009380e9000200e0008b
:1017b00005003200810978001102fb00cfa2de0093
:1017c000612bb900280037008109780011427800a8
:1017d0000482fb008002eb006033b8002200370077
:1017e00013027800e40052000200e000050032001d
:1017f000810978001102be004fabde00860378003d
:1018000019003700810978001102be006033b8006a
:10181000150037009380e9008109780011027800f3
:10182000cfa2de00612bb9000f00370093027800d1
:10183000e8805200810978003102be002103be0019
:10184000090037009380e9000200e0000200320046
:10185000f1ff37009380e9008109780011027800d8
:101860008002eb006033b8000498be000690be0012
:10187000100005000000050044082000848f50007f
:101880002500320008003c0014082000848f50001e
:101890001400320024082000848f500024003200fd
:1018a000040820000c00370004092000848f500039
:1018b0001f00320004003c0084082000848f500088
:1018c00024003a000e003700040a2000848f5000e4
:1018d00011003200040c2000848f50001d003a00db
:1018e0000d0037009380e9008109780091007800ad
:1018f00001087800cf91de008288be001400370016
:101900009380e9008109780091007800010878004f
:10191000824878000e0037009380e9008109780042
:1019200091007800010878008208780008003700ec
:101930009380e9008109780091007800010878001f
:101940006112b900612bb9008498be008690be0078
:101950001000050000000500889fbe00000478000c
:101960004800900082047800808f54000100360007
:10197000800478000901780058009000eb0107000e
:10198000580090000900400050049800c8009000e2
:1019900089845000490498000048eb004f04be00c1
:1019a00000000600f2874700889fbe008a9fbe00a5
:1019b0008c9fbe008e1f780080047800010578009f
:1019c00002047800830578006107620002003a0093
:1019d0008b0f540008003900080178008a00780055
:1019e00009007800dcff07008b0f5400020039006b
:1019f000880578001e003700088655000c01780025
:101a0000f00f560001003600020120000102200004
:101a10007e805700adfc07008c067800050037007b
:101a200002012000fe80570009007800caff07006d
:101a3000f0865600ef8f5600f9ff3e004461de004d
:101a400000ff2f008091b9000c014100fe8057007b
:101a500009007800c0ff07000e00e00004003a0013
:101a6000080178008a00780009007800baff0700b2
:101a70000b0078004f0778004f06be004f05be00f0
:101a80004f04be002f01b100000006000000050059
:101a90000000050000000500000178000040eb0098
:101aa0008080fb008180400063082100818141002b
:101ab000134278000404e00004003a00700821009a
:101ac000810040001140780000000600920178007b
:101ad000934f520005003a00700821008100400039
:101ae000114078000309e800010037000040e800d9
:101af000ea4f5000eaff360000000600f687470074
:101b0000889fbe008a9fbe008c9fbe008e1f7800fb
:101b10000005780001047800830578000406780049
:101b20000000eb00c0b79f008080eb00d1b79f00a2
:101b3000e0b79f00f2b79f000008200080bf9f0021
:101b400098007800010078008004eb000100370065
:101b50008904e800304178000204e000030032000c
:101b600053c2b300834f5100f9ff3a000900e0006f
:101b700004003200090178000a00780076ff0700af
:101b8000188c44001807780050c2b3009e4f100014
:101b90003f013a000e07e8000e0c780010003700f5
:101ba000cfb097000100a0000b003700cfb0970026
:101bb0000110a00008003700cfb097000120a0005e
:101bc00005003700cfb097000130a00002003700b9
:101bd000cfb097000140a000c1b79f00000ce80003
:101be0001800780090407800b2c2b30082cf500055
:101bf000f1ff320007003c0002c2b30082cf500068
:101c0000f0ff320032c2b30082cf500007003a002a
:101c1000efff3700d2c2b30082cf5000e0ff3200a6
:101c200002c3b30082cf5000e0ff3200a2c2b30073
:101c300082cf50000d003a00000ce8001c80e90043
:101c4000000e780010007800e0b79f000000e00070
:101c50000f003d00cfb097000100a200c1b79f0068
:101c60000000ea00e0b79f0009003700f1fb070021
:101c7000e0b79f0001003700000ce8001800780072
:101c80009000fb000103b100e98f5000faff36001d
:101c90004fb097000008a300020032000010a1001e
:101ca000c0b79f0018007800e1c2b30090cf1000c9
:101cb00016003a008000eb00d1b79f000000e8005a
:101cc000000c7800a1c2b30090cf100006003a00cb
:101cd000000ce8001c80e900000e7800100078007d
:101ce000d0b79f0009003700d2fb0700d0b79f0094
:101cf00001003700000ce800180078009000fb009d
:101d00000103b100e98f5000faff360008007800a7
:101d100061ff070080467800180078001000fb0083
:101d20007601070091062000810f50003800320034
:101d300012003c0041062000810f500034003200a8
:101d40000a003c0011062000810f500020003200e4
:101d500031062000810f5000a00032005102200007
:101d6000810f5000bc003a00b4003700710620001b
:101d7000810f5000b8003c008800370001072000a8
:101d8000810f50005c00320007003c00e10620009b
:101d9000810f50007a003200f1062000810f5000c0
:101da000ad003a003900370051072000810f500084
:101db0002700320081072000810f500042003200ce
:101dc00031072000810f5000a3003a008f00370038
:101dd0008d80fb000c01780000fe2f000f004000fa
:101de000620107000000e000a8003200180078003f
:101df000000ce8009041780002fe2f000f01410026
:101e0000f88057000a00780021ff07000e00370015
:101e10008d80fb008c0178001200200000fe2f0056
:101e20000f00400040fe07000000e0009700320075
:101e3000180ce80002fe2f000f014100f880570047
:101e40000a00780033fc07008084440090003700cb
:101e50008d80fb008c0178000001eb0000fe2f005c
:101e60000f00400030fe07000000e0008700320055
:101e7000180ce80002fe2f000f014100f880570007
:101e80000a00780031fd0700efff37008d80fb006e
:101e90008c0178000001eb0000fe2f000f004000d5
:101ea00021fe07000000e00078003200180ce80076
:101eb00002fe2f000f014100f88057000a00780051
:101ec0006efc0700e0ff37008d80fb008c0178007e
:101ed0000001eb0000fe2f000f00400012fe070083
:101ee0000000e0006900320018007800000ce800f3
:101ef000904178001c0037008c0178000001eb0055
:101f0000010f200000fe2f000f00400006fe07001a
:101f10000000e0005d003200180ce8000fb09700f0
:101f20009fb097002fb19700bfb19700e00f50000e
:101f3000e08f5800e00f5900e08f590009003a0087
:101f4000cfb597006fb49700e0072100d3000700da
:101f50000b0278008801780000017800e107210079
:101f60004700370083c7b30002fe2f000f01410076
:101f7000f88057000a0078001dfd0700b2ff370007
:101f80000b8144008d80fb008c01780000fe2f0047
:101f90000f00400038fe07003c0037008d80fb003a
:101fa0000c01780000fe2f000f004000ef0007003a
:101fb0000000e0003500320018007800000ce80056
:101fc0009041780002fe2f000f014100f880570079
:101fd0000a007800aefe07009bff370000c8b30080
:101fe00080cf560029003a00180ce8001c80e90058
:101ff000000e780010407800e0df9f001300200002
:10200000e2fd2f000f0141000800370000c8b300b7
:1020100080cf56001d003a00180ce8001c80e90033
:10202000000e78008001eb0010017800f880570066
:102030000a00780048fc070083ff370000c8b3009f
:1020400080cf560011003a00180ce8004fb29700fc
:10205000efb19700080037000e0c78000000eb008d
:10206000c0b79f00e0b79f000080eb00d0b79f0093
:102070000002eb00840178001200200041082100da
:102080000a00780047fe07006fff3700180ce800d1
:10209000090078004f0778004f06be004f05be00cc
:1020a0004f04be006f01b100000006008200fa007c
:1020b000889fbe008a1f780000057800820478009f
:1020c000c13f9f000004eb001000370009027800b8
:1020d00088017800a2f72f000f01410081f72f003f
:1020e0008f8040000a00780084fe0700080040004e
:1020f000880f500004003d00b00420008085880057
:102100000084eb0004003700000478004f3897008b
:102110001004e000edff3a00080078004f05780059
:102120004f04be000080fa00000006008001780025
:1021300002003700b15978000201e9000200e00016
:10214000fcff3a00000006000101780080017800e1
:10215000008268000408a300050032001300370065
:1021600032407800805978000004e000140032000a
:10217000030278000208a300f9ff3a000300780088
:10218000010037000318780082007800b20178005f
:10219000f5ef2f00838242000382ea00048262008e
:1021a0000508280005026200f6ff320000027800f0
:1021b00031417800025878000204e000fbff3a0049
:1021c0000400780000000600881f78008101780074
:1021d00000027800808268000508a3000200320037
:1021e000210037000201e9000300780004047800b0
:1021f0000308a300070032000200e00021003200c3
:10220000b3407800015a78000104e000f5ff3a007d
:10221000020037000200e0001a0032001004e00063
:1022200003003a0017003700031c78000281e90020
:1022300080007800e10f510008003600b0017800fe
:10224000f5ef2f00838242000382ea0004826200dd
:102250000508280005026200f3ff3200080078003c
:10226000010037000201e900000478000200e000ec
:1022700004003200b1417800035878000304e00004
:10228000f8ff3a008000eb00080078008ffa0700a2
:10229000080078004f0478000000060080007800f5
:1022a000040037003104e00002003a000000510051
:1022b00000000600010178000108a300f9ff3a00c0
:1022c0008101780031017800f4ef2f000202420012
:1022d0000281ea0002016200040828000401610092
:1022e000f7ff320083007800010178003104e0003c
:1022f000fdff3a000000510000000600f1fb2f0036
:1023000080804000f98f500001003e000050a00086
:1023100000000600f9ff3700f1f92f00808040002f
:10232000f98f500001003e00f005b20000000600e9
:10233000f9ff37000200fa00881f780000047800d7
:10234000e2bf9f00648157000800780057ff070034
:10235000980090000148a300010032000080eb00cb
:102360004f0478000080fa0000000600881f780003
:102370000004780000082000808f5000170035000e
:1023800010082000808f50000b003400300820001f
:10239000808f500011003a00920078006880500051
:1023a000000978003002be002003be00049cbe007d
:1023b0000694be0007003700920278006480520045
:1023c000000978001000be0007000700009cbe0056
:1023d0000294be0010002000010037000000eb0056
:1023e0004f04780000000600810378001d000700fc
:1023f0000001be006000b8000478a30013003a009a
:102400006220e10015003e000d0039008301d1007b
:102410000281d3008180d3008301d1000281d300e7
:102420008180d3008301d1000281d3008180d30059
:102430000538b000c42add00f300b20083817200c9
:1024400007f0a70003f0a0000000060083ff2700ac
:10245000020020006110b900f9ff370003ff2700d8
:10246000f7ff3700c70ade00f107b200f50fb20030
:1024700008003200e1cf4200020032000170a000eb
:1024800024000500810f70000100320004080500df
:1024900044000500810f700002003a00140005009e
:1024a0008502e9000000400081c04800fcff3b00bd
:1024b0000170a00024000500020ab900001bb90049
:1024c0000200b800810042008100430000000600c5
:1024d000889fbe008a9fbe0030044200b0844a003c
:1024e00030054b0090854b006000b1000898be009d
:1024f0000a90be000440e10005c8e10006d0e100fa
:1025000007d8e10002003100680040001008e80030
:102510004f05be004f04be0000000600889fbe00ad
:102520008a9fbe003004be002005be00041854007f
:1025300005985c0006185d0007985d0011002000fa
:102540000440e10005c8e10006d0e10007d8e10041
:10255000010039008000eb00108810004f05be001c
:102560004f04be00000006001200fa00889fbe0063
:102570008a9fbe008c9fbe00e0b79f00f1b79f000e
:1025800082bf9f0093bf9f000605be000404be00eb
:102590000000eb00d0b79f00c0b79f00b0b79f000e
:1025a000a0b79f0090b79f00000678005fb197002a
:1025b000cfb09700820141003fb097000200e000d9
:1025c00004003d00370007007e805700c0ff070071
:1025d00003003700330007007e805700cfff07005d
:1025e000dfb697000d00e0000c0035006fb29700d9
:1025f000ffb297000fbb97009fbb97001000200011
:10260000010020006011b800000272008182720097
:1026100002037300838373001b0007000c06e800ad
:1026200001042000810f5600e0ff3a000d00e00099
:1026300004003d000802be000a03be007e80570071
:10264000a3ff07005fa897000000e00005003a0024
:102650001fb29700afb297003fb39700cfb3970078
:10266000090007006fb09700ffb097000fb99700ff
:102670009fb997004f06be004f05be004f04be0035
:102680000080fa00000006000100070000000600bc
:10269000a4b79f00b5b79f00c6b79f00d7b79f00ec
:1026a000000006004f09de0082817100b3b79f0071
:1026b0004f01de008180400082807000a1b79f0042
:1026c0008fb097004f09de0000004000020070004c
:1026d00090b79f007fa897004f01de0081804000e7
:1026e0008280700081b79f000d0007004f3ade0026
:1026f0000000400004007000f0af9f0008000700d9
:102700000402420085824a0006034b0087834b0087
:10271000dfff07000802be000a03be00000006003b
:102720002fb29700bfb297004fb39700dfb3970067
:1027300000000600881f780018002000881f78001d
:1027400089ff07008f87e9004f047800000006002a
:10275000801feb0084ff07008f87e9000000060060
:10276000889fbe008a9fbe00e00f5000e08f580097
:10277000e00f5900e08f59000c003d006044b800a4
:102780006055b8000000540081805c0002015d00cb
:1027900083815d00180020001500070008003d003f
:1027a000180007000004eb00050037000004eb00f0
:1027b0000f00070002003d00120007001800200073
:1027c000dcff07000800e000060032006022b800cd
:1027d0006033b8000000520081805a0002015b00a3
:1027e00083815b004f05be004f04be000000060061
:1027f000e00f5200e08f5a00e00f5b00e08f5b00bb
:10280000000006006044b8006055b800040254009f
:1028100085825c0006035d0087835d000000060082
:10282000889fbe008a9fbe008c1f7800e00f50007a
:10283000e08f5800e00f5900e08f59000d003d0077
:102840006044b8006055b8000000540081805c000e
:1028500002015d0083815d001c0020000820e10072
:1028600009a8e1000ab0e1000bb8e1000d003d004d
:10287000080037000006eb00e00f5200e08f5a001e
:10288000e00f5b00e08f5b0006003d006044b80095
:102890006055b8000402540085825c0006035d00a8
:1028a00087835d00aaff07000c00e00006003200ed
:1028b0006022b8006033b8000000520081805a00e6
:1028c00002015b0083815b004f0678004f05be006c
:0828d0004f04be0000000600e9
:020000040000fa
:1028d800566f00006c7400003a250000750a00006d
:1028e80000500000726f0000626500002064000064
:1028f80073500000494300002052000046000000c9
:102908006473000050490000432000005246000054
:1029180020410000636b00000a00000050690000bd
:102928006e670000005000006f6e0000670a00002c
:1029380000530000657400005374000061440000f7
:1029480061730000680000005365000074530000c4
:1029580074610000496400006c65000000530000c9
:102968006574000053740000614600007265000041
:10297800005300006574000046720000653a0000cc
:04298800000000004b
:020000040000fa
:10298c000000fa00b5efa9000080fa000000060074
:10299c000000fa0008cba8000080fa000000060036
:1029ac000400fa00100798001e009000e10f500080
:1029bc0008003200e10f500003003900e20f500014
:1029cc000700320009003700a1618000010f780078
:1029dc0006003700e1618000010f7800030037002a
:1029ec00f1618000010f7800000000001e007800eb
:1029fc000080fa00000006000400fa00100798009e
:102a0c001e009000e10f50000f003200e10f50004b
:102a1c0003003900e20f5000150032001e00370091
:102a2c009059800044800a00000000000080fb00e8
:102a3c0000f0a7000000ea000000ea004f00de00f2
:102a4c00004f7800140037009059800088800a00ed
:102a5c00000000000080fb0000f0a7000000ea006e
:102a6c000000ea004f00de00004f78000a0037003b
:102a7c009059800099800a00000000000080fb0043
:102a8c0000f0a7000000ea000000ea004f00de00a2
:102a9c00004f7800000000001e4078000080fa0013
:102aac00000006001a00fa009b060700b4ff07009e
:102abc00c07f210069020700e07221007602070046
:102acc00608521004b050700e08521007504070097
:102adc000000eb00000f78004e050700007d200081
:102aec00300798000041eb0081c0b30000c4b30074
:102afc00720107001e007800e20f50003c0032000b
:102b0c00e20f500005003e000000e000080032001b
:102b1c00e10f500019003200ca003700e30f5000db
:102b2c009f003200e40f5000b3003200c5003700a4
:102b3c0077eea80077aea90077cea90094ff070026
:102b4c00000000000000eb00abff07000004a20037
:102b5c000004e000fbff3a000000eb0090ff0700d0
:102b6c001007980016d0bf000004e000ac00320043
:102b7c0010002000000f7800b200370077eea9009b
:102b8c0077aea90077cea90016d0bf000004a20032
:102b9c000004e000030032000000eb00000f78009e
:102bac00a800370018d0bf000004e000020032007b
:102bbc001870ef00a300370017d0bf000004e0002e
:102bcc00040032001770ef0020002000000f780086
:102bdc009c00370019d0bf000004e00092003200c6
:102bec001970ef0030002000000f780095003700be
:102bfc0077eea90077aea90077cea80016d0bf005b
:102c0c000004a2000004e000030032000000eb000e
:102c1c00000f78008b00370017d0bf000004e000d5
:102c2c00020032001770ef008600370018d0bf008a
:102c3c000004e000040032001870ef0010002000c7
:102c4c00000f78007f003700d0808000be0090001d
:102c5c00808f50000c003200d1808000310798002a
:102c6c003e00900000407800c400dd003e00900063
:102c7c004400de000040780001417800804078007c
:102c8c0000c3b3000d01070041ff07000000000066
:102c9c000000eb0058ff07000004a2000004e00055
:102cac00fbff3a000000eb003dff07001007980007
:102cbc00c081800080004000800321000080400023
:102ccc009e009000010878000000eb0010079800af
:102cdc0010002000400798000b0037004e009000b9
:102cec00800040008003210000804000100078002c
:102cfc009e00900000804000100798004e0090004d
:102d0c000000e800400798004e009000ea0f5000c9
:102d1c00f2ff34009e009000d0cc2c000008b800cc
:102d2c004308de0010079800c0818000e90f5000b6
:102d3c0004003e00c08180000000e800c0818800d3
:102d4c000200370010002000c08188009e00900017
:102d5c002e009000808f5000350032006a00470032
:102d6c00020120008000eb00d5f707006a00470045
:102d7c009e009000811f7800c1462900811f7800b9
:102d8c000101200091f70700e48757006a00470013
:102d9c00b30007009e00900021079800290037001f
:102dac0077eea90077aea80077cea90016d0bf00a9
:102dbc000004a2000004e000030032000000eb005d
:102dcc00000f78001f00370019d0bf000004e0008e
:102ddc00020032001970ef001a00370018d0bf0043
:102dec000004e000140032001870ef001000200006
:102dfc00000f78001300370077eea90077aea8001b
:102e0c0077cea90016d0bf000004a2000004e00099
:102e1c000b0032000000eb00000f780009003700b7
:102e2c00000000000700370000000000050037001c
:102e3c000000000003003700000000000100370014
:102e4c0000000000400620007905070029ff37002c
:102e5c000600fa00881f78005e0037001dd0bf0006
:102e6c000004fb009b01070080407800e004210077
:102e7c0008004000014878001dd0bf000000fb0096
:102e8c00e10421000080400010407800ea4f50001f
:102e9c004a003a000000eb00460407001dd0bf00ba
:102eac000000fb00e1042100008040008040eb00aa
:102ebc000148780051472900e0042100e4f707009d
:102ecc000000e00008003a000000eb0039040700a5
:102edc005d040700404829006100070010c0b300e2
:102eec0016f0b7002f00370021492900e00421001b
:102efc00d7f707000000e00003003a0070492900f2
:102f0c005700070027003700d1492900e0042100b1
:102f1c00cff707000000e00003003a0010c0b30038
:102f2c0017f0b7001f003700814a2900e004210088
:102f3c00c7f707000000e00003003a0010c0b30020
:102f4c0018f0b70017003700314b2900e0042100be
:102f5c00bff707000000e00003003a0010c0b30008
:102f6c0019f0b7000f00370072002000d14b290078
:102f7c00e0042100c8f707000000e00009003a0057
:102f8c0042002000510521000e007800d7f7070001
:102f9c000040eb00404798000e00780022f7070035
:102fac00d0808800020120008000eb00e0042100aa
:102fbc0043f707001d70ef00060037001dd0bf005f
:102fcc00ee4f500003003c001dd0bf000040e80055
:102fdc001df0b7006a0107000004e0009fff3a00f3
:102fec004f0478000080fa00000006000000fa0090
:102ffc002670ef0027d0bf000000fb0081022100eb
:10300c0000804000104078000004e0000a0032000c
:10301c0027d0bf000000fb0081022100008040008f
:10302c00104078004101070027d0bf000040e800a5
:10303c0027f0b70008003700020120008000eb00e9
:10304c00800221001ef7070010c0b30027f0b70064
:10305c0010c0b30026f0b7000080fa000000060094
:10306c000200fa00000f780026d0bf000004e00038
:10307c00080032009e007800800221007ff70700d4
:10308c0080022100104078002801070010c0b30016
:10309c00010037000040eb000080fa000000060041
:1030ac000000fa001670ef000080fa000000060025
:1030bc000000fa000080fa00000006000800fa0088
:1030cc004047980051479800624798003f0ea9006e
:1030dc0010002000e70407003f2ea90080c9b300b0
:1030ec001cf0b7000040eb00004f780018003700d0
:1030fc003f2ea900a0002000de0407001cd0bf005a
:10310c008000fb001e80fb008008dd000008200012
:10311c00008060000000e000020032003f0ea800ba
:10312c00010037003f0ea90010002000d104070059
:10313c003f2ea800a0002000ce0407003f2ea900bf
:10314c0010002000cb0407003f0ea9001e4fe80022
:10315c001e407800e74f5000e5ff3600a00020002d
:10316c00c40407003f0ea80010002000c104070093
:10317c003f2ea800a0002000be0407003f2ea9008f
:10318c004e4090001cf0b7000040eb001047980038
:10319c001b0037003f2ea900a0002000b50407003b
:1031ac001cd0bf008000fb001e4090000080fb0084
:1031bc008008dd0000082000008060000000e000b6
:1031cc00020032003f0ea800010037003f0ea9009c
:1031dc0010002000a70407003f2ea800a00020002c
:1031ec00a40407003f2ea90010002000a104070032
:1031fc003f0ea9001e4090000040e80010479800c8
:10320c001e409000e74f5000e2ff3600a000200067
:10321c00980407003f0ea80010002000950407003a
:10322c003f2ea800a0002000920407003f2ea9000a
:10323c005e4090001cf0b7000040eb002047980067
:10324c001b0037003f2ea900a000200089040700b6
:10325c001cd0bf008000fb002e4090000080fb00c3
:10326c008008dd0000082000008060000000e00005
:10327c00020032003f0ea800010037003f0ea900eb
:10328c00100020007b0407003f2ea800a0002000a7
:10329c00780407003f2ea9001000200075040700d9
:1032ac003f0ea9002e4090000040e80020479800f7
:1032bc002e409000e74f5000e2ff3600a0002000a7
:1032cc006c0407003f0ea8001000200069040700e2
:1032dc003f2ea800a0002000660407003f2ea90086
:1032ec006e4090001cf0b7000040eb003047980097
:1032fc001b0037003f2ea900a00020005d04070032
:10330c001cd0bf008000fb003e4090000080fb0002
:10331c008008dd0000082000008060000000e00054
:10332c00020032003f0ea800010037003f0ea9003a
:10333c00100020004f0407003f2ea800a000200022
:10334c004c0407003f2ea900100020004904070080
:10335c003f0ea9003e4090000040e8003047980026
:10336c003e409000e74f5000e2ff3600a0002000e6
:10337c00400407003f0ea800100020003d04070089
:10338c003f2ea800a00020003a0407003f2ea90001
:10339c0010002000370407003f0ea900a0002000f9
:1033ac00340407003f2ea800100020003104070051
:1033bc003f0ea8000080fa00000006000000fa0092
:1033cc002188a9002168a90000082000c0118800ec
:1033dc003a22ef003c22ef0020022000f01188007e
:1033ec00b0a22000001288004222ef004c22ef0015
:1033fc004e22ef005022ef005222ef005422ef0039
:10340c005622ef005822ef005a22ef005c22ef0008
:10341c00c009210030808800c0092100208088006c
:10342c00500a210010808800500a2100008088007a
:10343c000870ef00c0a4210008000700a0a621001e
:10344c00150007002168a80039e2a80038a2a800de
:10345c003882a8000080fa00000006000200fa0082
:10346c00000f78001e0078000000e00003003a0016
:10347c00c0a4210050808800020037009e00780014
:10348c00518088000080fa00000006000000fa005d
:10349c000080fa00000006000200fa00000f78001d
:1034ac001e0078000000e00003003a00a0a62100f6
:1034bc0060808800020037009e00780061808800e0
:1034cc000080fa00000006000000fa000080fa00fc
:1034dc00000006000200fa000040eb00004f7800ec
:1034ec00000000001180800000808000808f500060
:1034fc00fcff320010808000104f7800108080009c
:10350c000000e8001080880011808000e00a210093
:10351c00808f500002003a00500a21001080880071
:10352c001e4078000080fa00000006000200fa003d
:10353c00004f7800000000001c0007000004a200ef
:10354c000004e000fcff3a00208080001e48780058
:10355c00208080000000e80020808800218080000e
:10356c00500a2100808f500002003a00c00921004f
:10357c00208088002188a8000080fa000000060046
:10358c000000fa001180800000808000008068003c
:10359c0000f0a7000000ea000000ea004f00de0087
:1035ac00004078000080fa00000006000400fa00d9
:1035bc003180800011079800218080001e0090004f
:1035cc00808f5000060031009e009000208080000b
:1035dc00008050000000e900000f78000500370063
:1035ec009e00900020808000008050006800400009
:1035fc00000f78001e00780000f0a7000000ea0021
:10360c000000ea004f00de00004078000080fa0065
:10361c00000006000000fa0021808000308080004d
:10362c00808f500009003a00e11180000008200052
:10363c000080600000f0a7000000ea000000ea0033
:10364c004f00de0000407800010037000040eb0026
:10365c000080fa00000006000400fa0001808000df
:10366c0011079800108080009e009000808f500001
:10367c00060031009e0090001080800000805000f9
:10368c0069004000000f7800030037009e00900096
:10369c0010808000008f5000f00f20009e007800fa
:1036ac00808f50000200360000c0eb000200370093
:1036bc001e007800004078000080fa000000060030
:1036cc000400fa00318080001107980021808000ee
:1036dc001e009000808f5000060031009e0090006c
:1036ec0020808000008050000000e900000f78006e
:1036fc00050037009e009000208080000080500064
:10370c0068004000000f7800f00f20009e00780049
:10371c00808f50000200360000c0eb000200370022
:10372c001e007800004078000080fa0000000600bf
:10373c000800fa002007980031079800c6ff070020
:10374c000080fb00000f78003e0090009e0f5000a0
:10375c0002003100be009000010f78000000eb0069
:10376c0010079800090037005aff0700ae009000c0
:10377c00804878002e0090000000e8002007980098
:10378c001e0090000000e800100798001e0090003a
:10379c009e0f5000f4ff39001e0078000080fa00e4
:1037ac00000006000800fa00200798003107980076
:1037bc00c3ff07000080fb00000f78003e00900064
:1037cc009e0f500002003100be009000010f7800e7
:1037dc000000eb0010079800090037002e00900045
:1037ec0010407800ae0090008100e800210798009e
:1037fc004eff07001e0090000000e8001007980024
:10380c001e0090009e0f5000f4ff39001e0078003f
:10381c000080fa00000006000400fa000000eb0033
:10382c00000f78008cff070020479800a4ff0700ca
:10383c00304798002e4090000080fb000000e00014
:10384c0003003200e90f500003003200040037007f
:10385c001e20a000040037001e00a000020037004c
:10386c001e10a000000000003e4090000080fb00f5
:10387c000000e00003003200e90f500003003200aa
:10388c00040037001e30a000020037001e40a000cc
:10389c00000000001e0078000080fa000000060006
:1038ac000400fa0010079800118080001e009000a0
:1038bc00008f4000020037009e007800698f500096
:1038cc00e00a21009e007800808f5000faff3e0035
:1038dc001e007800104078000080fa0000000600fe
:1038ec000000fa005cff07000080fb000000e9000c
:1038fc004f00de00004078000080fa000000060057
:10390c000000fa006eff07000080fb000000e900d9
:10391c004f00de00004078000080fa000000060036
:10392c000400fa00f01180008000eb00008fbe0054
:10393c001e00be00c001dd0002002000e01180006e
:10394c008000eb0000007100818071000080fa00a3
:10395c00000006000000fa0059ff07000004e00018
:10396c00100032003180800020808000808f500059
:10397c0006003600308080008000780020808000b7
:10398c00008050000000e900070037003080800004
:10399c00800078002080800000805000680040008b
:1039ac00010037000000eb000080fa000000060068
:1039bc000000fa0028ff07000004e00010003200ad
:1039cc001180800000808000808f5000060036003f
:1039dc001080800080007800008080000080500003
:1039ec000000e9000700370010808000800078009c
:1039fc00008080000080500068004000010037000b
:103a0c000000eb000080fa00000006000000fa0045
:103a1c0039e2a80038a2a8003882a8000080fa0079
:103a2c00000006000000fa0039e2a90038a2a90043
:103a3c003882a9000080fa00000006000000fa009d
:103a4c00002bef000006200010588800042bef001c
:103a5c00c000200030588800082bef000a2bef0024
:103a6c000c2bef000e2bef00102bef00122bef00a6
:103a7c00142bef00162bef00202bef000031200051
:103a8c0010598800382bef00402bef00482bef002b
:103a9c00502bef003a2bef00422bef004a2bef009c
:103aac00522bef003c2bef00442bef004c2bef0084
:103abc00542bef003e2bef00462bef004e2bef006c
:103acc00562bef0000002100505b88000000210005
:103adc00705b880000002100905b880000002100d2
:103aec00b05b8800a02bef00a42bef00a82bef00fd
:103afc00ac2bef00d02bef00d22bef00d42bef0030
:103b0c00d82bef0000302000b05e88000030200081
:103b1c00d05e8800f02bef00f22bef00022cef00b0
:103b2c0020e221004700070000e521005d000700ae
:103b3c0040e621006500070080e721006d000700ca
:103b4c000de8a9002de8a8001808a9003808a8005d
:103b5c001828a9003828a8001160800000f0200067
:103b6c00010070001060880001eba800270007001e
:103b7c00802bef00822bef00842bef00862bef00c5
:103b8c00882bef008a2bef008c2bef008e2bef0095
:103b9c00902bef00922bef0010002000a05c88000f
:103bac00962bef0010102000c05c88000080fa00fb
:103bbc00000006000000fa00000ca8000000000045
:103bcc000160800000102000008060000000e00018
:103bdc00fbff32000a0ba8000080fa000000060070
:103bec000000fa00002ca80000000000016080001a
:103bfc0000202000008060000000e000fbff32008d
:103c0c000a2ba8000080fa00000006000000fa0051
:103c1c0000eca800000000000160800000002800fb
:103c2c00008060000000e000fbff32000aeba800ff
:103c3c000080fa00000006000000fa000080fa0084
:103c4c00000006000200fa00000f78001e00780049
:103c5c00708088000080fa00000006000000fa0066
:103c6c005140800000402000008060000000e00017
:103c7c0006003200708080000000e000020032007c
:103c8c0070808000000001000b48a9000080fa0041
:103c9c00000006000200fa00000f78000080fa0015
:103cac00000006000200fa00000f78001e007800e9
:103cbc00808088000080fa00000006000200fa00f4
:103ccc00000f78000080fa00000006000200fa00e5
:103cdc00000f78001e007800908088000080fa00a9
:103cec00000006000200fa00000f78000080fa00c5
:103cfc00000006000200fa00000f78001e00780099
:103d0c00a08088000080fa00000006000000fa0085
:103d1c00007c80000080fa00000006000200fa001f
:103d2c00faff0700000f78001e007800240007003f
:103d3c000004e000020032000000280071000700bf
:103d4c001e0078002a0007000004e0000200320088
:103d5c00000024006b0007001e00780032000700f2
:103d6c000004e00002003200002020006500070083
:103d7c001e0078003a0007000004e0000200320048
:103d8c00000820005f0007001e00780042000700ba
:103d9c000004e0000200320000042000590007007b
:103dac001e0078004a0007000004e0000200320008
:103dbc0000012000530007000080fa0000000600fc
:103dcc000400fa00100798000040eb00004f780048
:103ddc001e0090000000e00002003d0010c0b30087
:103dec00004f78001e4078000080fa0000000600aa
:103dfc000400fa00100798000040eb00004f780018
:103e0c009e00900000002400008060000000e00094
:103e1c000200320010c0b300004f78001e40780042
:103e2c000080fa00000006000400fa001007980059
:103e3c000040eb00004f78009e0090000020200016
:103e4c00008060000000e0000200320010c0b300ef
:103e5c00004f78001e4078000080fa000000060039
:103e6c000400fa00100798000040eb00004f7800a7
:103e7c009e00900000082000008060000000e00020
:103e8c000200320010c0b300004f78001e407800d2
:103e9c000080fa00000006000400fa0010079800e9
:103eac000040eb00004f78009e00900000042000c2
:103ebc00008060000000e0000200320010c0b3007f
:103ecc00004f78001e4078000080fa0000000600c9
:103edc000400fa00100798000040eb00004f780037
:103eec001e009000700060000000e0000200320034
:103efc0010c0b300004f78001e4078000080fa001c
:103f0c00000006000200fa00000f78009e80ea0014
:103f1c00007c800000806000007c88000080fa003b
:103f2c00000006000000fa00802fef000080fa006d
:103f3c00000006000000fa000421ef0030422f00c0
:103f4c004008880020332800000888002081800069
:103f5c000000e00002003a00a0ff2100250007004d
:103f6c000028a9002028a800e00a21008040eb00ce
:103f7c00014878002f0007000080fa0000000600be
:103f8c000200fa00000f78009e00780041088800bb
:103f9c00e00a21008040eb00014878000080fa0024
:103fac00000006000000fa00400880000080fa00c3
:103fbc00000006000200fa00000f78009e00780056
:103fcc0021088800e00a21008040eb0001487800bd
:103fdc000080fa00000006000000fa0020088000b3
:103fec000080fa00000006000000fa000080fa00d1
:103ffc00000006000200fa00000f78002028a9003b
:10400c009e007800218188002028a8000080fa00fa
:10401c00000006000000fa00e00a21008040eb00de
:10402c00014878002028a80001e1a8000080fa00cf
:10403c00000006000000fa0001e1a9002028a900f8
:10404c000080fa00000006000200fa00e00a2100dd
:10405c00104f78001e4078000004e000030032008e
:10406c00e00a21008040eb00014878001e407800f7
:10407c000080fa00000006000000fa00f00a21009f
:10408c00104078000080fb000080fa000000060061
:10409c000000fa00f00a21008040eb000148780093
:1040ac000080fa00000006000000fa001000230057
:1040bc00307c880020032000407c88008c2fef008f
:1040cc0010012000507c880010102000707c8800ab
:1040dc0060092000807c880010042000907c8800ff
:1040ec009a2fef00b82fef00ba2fef00be2fef0082
:1040fc00002def00a02fef00a42fef00a62fef0054
:10410c00a82fef00aa2fef00ae2fef00b02fef007b
:10411c00b22fef003200200080072000a109200000
:10412c0053f8200080497800814978008249780052
:10413c0012002000600420007105200043f82000cc
:10414c00804978008149780082497800000000009d
:10415c00207c8000610060000000e000fcff3a0061
:10416c0000000000217c8000000220000080600024
:10417c000000e000fbff32000080fa0000000600a7
:10418c000000fa00707c8000ee800a000000000045
:10419c000080fb0000f0a7000000ea000000ea002d
:1041ac004f00de00004078000080fa00000006009e
:1041bc000000fa00062eef00222eef000030200047
:1041cc00f071880000012000d0728800762eef007c
:1041dc00f001200010708800d0ff2f00f0708800d4
:1041ec00f0cf2f00d0718800f0fe2f00b072880045
:1041fc00f0ff2100907388000c2eef00282eef00aa
:10420c00442eef00602eef007c2eef000a2eef0004
:10421c00262eef00422eef005e2eef007a2eef00de
:10422c00082eef00242eef000030200000728800d2
:10423c005c2eef00782eef00f0012000007088005b
:10424c00e0392000e0708800f00c2000c07188007c
:10425c0000c02200a0728800f0002000807388004b
:10426c000000eb0051052000b1468800a10a200097
:10427c00b146880000688800216d800000fc2f008a
:10428c00008060000000a000206d880030c4b300e6
:10429c0028edb7000080200051052000b1468800b1
:1042ac00a10a2000b1468800006888000080fa004e
:0442bc0000000600f8
:020000040000fa
:1042c0005e100000200000008000000022100000ae
:1042d0000200000082000000ffff00001e1000002e
:1042e00004000000800000009c100000120000008c
:1042f00080000000001000000e00000080000000a0
:10430000ae10000002000000800000002410000039
:1043100002000000800000000e10000008000000f5
:10432000800000002810000036000000800000001f
:1043300026100000020000008200000001010000c1
:104340001610000008000000800000007e10000031
:104350001e00000082000000286e69006c29000029
:1043600025006800076c09004c836a009074a00067
:104370007ac000008068880000846c0082008100a0
:10438000b0100000020000008000000000000000eb
:020000040000fa
:104390000000fa000145800080ff2f0000806000cf
:1043a0000000a00000458800b1438000f0ff280015
:1043b0000080600000c0a000b0438800014580007c
:1043c000f0f82f00008060000040a0000045880049
:1043d000f1448000f0f82f00008060000040a00051
:1043e000f04488003142800080ff2f000080600090
:1043f0000000a00030428800c1428000f0f82f0089
:10440000008060000040a000c0428800214280007f
:10441000f0ff28000080600000c0a000204288005b
:1044200001428000f0f82f00008060000050a000e2
:10443000004288000080fa00000006000200fa0036
:10444000000f780003003700006a280011002000e8
:104450004e0007001e00780000f0a7000000ea00f0
:104460000000ea004f00de00004078001e0fe90067
:104470000004e000f4ff3a000080fa0000000600ab
:104480000200fa00000f78000500370000c8200085
:10449000010020003d00070001fe2f001e8f40009c
:1044a0001e007800ff0f5000f8ff3e0003003700a9
:1044b0004006200001002000340007001e007800a4
:1044c00000f0a7000000ea000000ea004f00de0054
:1044d000004078001e0fe9000004e000f4ff3a00fd
:1044e0000080fa00000006000200fa00000f7800c9
:1044f00021028000200f2000008060001e0070005c
:10450000200288000080fa00000006000000fa0087
:10451000c3e8a80000000000000000000080fa00ce
:10452000000006000000fa0024ff0700e1fe07007b
:1045300097ff0700a4fb070043fd070080fe07006c
:10454000f2ff070000022000e7ff07000080fa00ea
:10455000000006000200fa00000f78009e007800bc
:10456000118188000000fe000080fa0000000600b3
:104570000000fa00e00521008007780060072100b4
:0c458000000188000080fa000000060026
:020000040000fa
:10458c00f03fb1000180b10006003500ee030900d8
:10459c0000000000403fb1000180b100fbff3d0076
:1045ac001000b000203fb000020035000080090070
:0845bc000000000000000600f1
:020000040000fa
:1045c400809fbe00ec80570031007800f0808800a6
:1045d4001100780020f0b7004f00be000000060074
:020000040000fa
:020000040005f5
:047e0000ffffff0081
:020000040000fa
:020000040005f5
:047e2000ffffff0061
:020000040000fa
:020000040005f5
:047e300078ffff00d8
:020000040000fa
:020000040005f5
:047e380078ffff00d0
:020000040000fa
:020000040005f5
:047e40007f7fff0041
:020000040000fa
:020000040005f5
:047e4800ffffff0039
:020000040000fa
:020000040005f5
:047e5000ddffff0053
:020000040000fa
:020000040005f5
:047e58000000ff0027
:020000040000fa
:020000040005f5
:047e60000000ff001f
:020000040000fa
:020000040005f5
:047e68000000ff0017
:020000040000fa
:020000040005f5
:047e70000000ff000f
:020000040000fa
:020000040005f5
:047e7800ffffff0009
:020000040000fa
:020000040005f5
:047e8000f7fcff000c
:020000040000fa
:020000040005f5
:047e8800ffffff00f9
:020000040000fa
:020000040005f5
:047ff800ffffff0088
:020000040000fa
:020000040100f9
:04300000ffffff00cf
:00000001FF
