:020000040000fa
:080000000002040000000000f2
:020000040000fa
:040008007805000077
:020000040000fa
:04000c00ba05000031
:020000040000fa
:04001000fa050000ed
:020000040000fa
:04001400980500004b
:020000040000fa
:04001800da05000005
:020000040000fa
:04001c0038080000a0
:020000040000fa
:040020001a060000bc
:020000040000fa
:040024003808000098
:020000040000fa
:040028003808000094
:020000040000fa
:04002c004e0700007b
:020000040000fa
:04003000380800008c
:020000040000fa
:040034003808000088
:020000040000fa
:040038003808000084
:020000040000fa
:04003c003808000080
:020000040000fa
:04004000380800007c
:020000040000fa
:040044003808000078
:020000040000fa
:040048003808000074
:020000040000fa
:04004c003808000070
:020000040000fa
:04005000380800006c
:020000040000fa
:04005400c4060000de
:020000040000fa
:04005800640600003a
:020000040000fa
:04005c003808000060
:020000040000fa
:04006000380800005c
:020000040000fa
:040064003808000058
:020000040000fa
:040068003808000054
:020000040000fa
:04006c002603000067
:020000040000fa
:04007000380800004c
:020000040000fa
:040074003808000048
:020000040000fa
:040078003808000044
:020000040000fa
:04007c003808000040
:020000040000fa
:04008000380800003c
:020000040000fa
:040084003808000038
:020000040000fa
:040088003808000034
:020000040000fa
:04008c003808000030
:020000040000fa
:04009000380800002c
:020000040000fa
:040094003808000028
:020000040000fa
:040098003808000024
:020000040000fa
:04009c003808000020
:020000040000fa
:0400a000380800001c
:020000040000fa
:0400a4003808000018
:020000040000fa
:0400a8003808000014
:020000040000fa
:0400ac003808000010
:020000040000fa
:0400b000380800000c
:020000040000fa
:0400b4003808000008
:020000040000fa
:0400b8003808000004
:020000040000fa
:0400bc003808000000
:020000040000fa
:0400c00038080000fc
:020000040000fa
:0400c40038080000f8
:020000040000fa
:0400c80038080000f4
:020000040000fa
:0400cc0038080000f0
:020000040000fa
:0400d00038080000ec
:020000040000fa
:0400d40038080000e8
:020000040000fa
:0400d80038080000e4
:020000040000fa
:0400dc0038080000e0
:020000040000fa
:0400e00038080000dc
:020000040000fa
:0400e40038080000d8
:020000040000fa
:0400e80038080000d4
:020000040000fa
:0400ec0030070000d9
:020000040000fa
:0400f00038080000cc
:020000040000fa
:0400f40038080000c8
:020000040000fa
:0400f80038080000c4
:020000040000fa
:0400fc0038080000c0
:020000040000fa
:0401000038080000bb
:020000040000fa
:0401040038080000b7
:020000040000fa
:0401080038080000b3
:020000040000fa
:04010c0038080000af
:020000040000fa
:0401100038080000ab
:020000040000fa
:0401140038080000a7
:020000040000fa
:0401180038080000a3
:020000040000fa
:04011c00380800009f
:020000040000fa
:04012000380800009b
:020000040000fa
:040124003808000097
:020000040000fa
:040128003808000093
:020000040000fa
:04012c00380800008f
:020000040000fa
:04013000380800008b
:020000040000fa
:040134003808000087
:020000040000fa
:040138003808000083
:020000040000fa
:04013c00380800007f
:020000040000fa
:04014000380800007b
:020000040000fa
:040144003808000077
:020000040000fa
:040148003808000073
:020000040000fa
:04014c00380800006f
:020000040000fa
:04015000380800006b
:020000040000fa
:040154003808000067
:020000040000fa
:040158003808000063
:020000040000fa
:04015c00380800005f
:020000040000fa
:04016000380800005b
:020000040000fa
:040164003808000057
:020000040000fa
:040168003808000053
:020000040000fa
:04016c00380800004f
:020000040000fa
:04017000380800004b
:020000040000fa
:040174003808000047
:020000040000fa
:040178003808000043
:020000040000fa
:04017c00380800003f
:020000040000fa
:04018000380800003b
:020000040000fa
:040184003808000037
:020000040000fa
:040188003808000033
:020000040000fa
:04018c00380800002f
:020000040000fa
:04019000380800002b
:020000040000fa
:040194003808000027
:020000040000fa
:040198003808000023
:020000040000fa
:04019c00380800001f
:020000040000fa
:0401a000380800001b
:020000040000fa
:0401a4003808000017
:020000040000fa
:0401a8003808000013
:020000040000fa
:0401ac00380800000f
:020000040000fa
:0401b000380800000b
:020000040000fa
:0401b4003808000007
:020000040000fa
:0401b8003808000003
:020000040000fa
:0401bc0038080000ff
:020000040000fa
:0401c00038080000fb
:020000040000fa
:0401c40038080000f7
:020000040000fa
:0401c80038080000f3
:020000040000fa
:0401cc0038080000ef
:020000040000fa
:0401d00038080000eb
:020000040000fa
:0401d40038080000e7
:020000040000fa
:0401d80038080000e3
:020000040000fa
:0401dc0038080000df
:020000040000fa
:0401e00038080000db
:020000040000fa
:0401e400840700008c
:020000040000fa
:0401e80038080000d3
:020000040000fa
:0401ec0038080000cf
:020000040000fa
:0401f00038080000cb
:020000040000fa
:0401f40038080000c7
:020000040000fa
:0401f80038080000c3
:020000040000fa
:0401fc0038080000bf
:020000040000fa
:0402000038080000ba
:020000040000fa
:0402040038080000b6
:020000040000fa
:0402080038080000b2
:020000040000fa
:04020c0038080000ae
:020000040000fa
:0402100038080000aa
:020000040000fa
:0402140038080000a6
:020000040000fa
:0402180038080000a2
:020000040000fa
:04021c00380800009e
:020000040000fa
:04022000380800009a
:020000040000fa
:040224003808000096
:020000040000fa
:040228003808000092
:020000040000fa
:04022c00380800008e
:020000040000fa
:04023000380800008a
:020000040000fa
:040234003808000086
:020000040000fa
:040238003808000082
:020000040000fa
:04023c00380800007e
:020000040000fa
:04024000380800007a
:020000040000fa
:040244003808000076
:020000040000fa
:040248003808000072
:020000040000fa
:04024c00380800006e
:020000040000fa
:04025000380800006a
:020000040000fa
:040254003808000066
:020000040000fa
:040258003808000062
:020000040000fa
:04025c00380800005e
:020000040000fa
:04026000380800005a
:020000040000fa
:040264003808000056
:020000040000fa
:040268003808000052
:020000040000fa
:04026c00380800004e
:020000040000fa
:04027000380800004a
:020000040000fa
:040274003808000046
:020000040000fa
:040278003808000042
:020000040000fa
:04027c00380800003e
:020000040000fa
:04028000380800003a
:020000040000fa
:040284003808000036
:020000040000fa
:040288003808000032
:020000040000fa
:04028c00380800002e
:020000040000fa
:04029000380800002a
:020000040000fa
:040294003808000026
:020000040000fa
:040298003808000022
:020000040000fa
:04029c00380800001e
:020000040000fa
:0402a000380800001a
:020000040000fa
:0402a4003808000016
:020000040000fa
:0402a8003808000012
:020000040000fa
:0402ac00380800000e
:020000040000fa
:0402b000380800000a
:020000040000fa
:0402b4003808000006
:020000040000fa
:0402b8003808000002
:020000040000fa
:0402bc0038080000fe
:020000040000fa
:0402c00038080000fa
:020000040000fa
:0402c40038080000f6
:020000040000fa
:0402c80038080000f2
:020000040000fa
:0402cc0038080000ee
:020000040000fa
:0402d00038080000ea
:020000040000fa
:0402d40038080000e6
:020000040000fa
:0402d80038080000e2
:020000040000fa
:0402dc0038080000de
:020000040000fa
:0402e00038080000da
:020000040000fa
:0402e40038080000d6
:020000040000fa
:0402e80038080000d2
:020000040000fa
:0402ec0038080000ce
:020000040000fa
:0402f00038080000ca
:020000040000fa
:0402f40038080000c6
:020000040000fa
:0402f80038080000c2
:020000040000fa
:0402fc0038080000be
:020000040000fa
:0403000038080000b9
:020000040000fa
:0403040038080000b5
:020000040000fa
:0403080038080000b1
:020000040000fa
:04030c0038080000ad
:020000040000fa
:0403100038080000a9
:020000040000fa
:0403140038080000a5
:020000040000fa
:0403180038080000a1
:020000040000fa
:04031c004607000090
:020000040000fa
:040320003808000099
:020000040000fa
:040324003808000095
:020000040000fa
:04032800c00700000a
:020000040000fa
:04032c00fc070000ca
:020000040000fa
:040330003808000089
:020000040000fa
:040334003808000085
:020000040000fa
:10040000af0d21000eff26000e0188000000000045
:10041000000020000000e000020032000001200087
:100420002002880014000700130307000000e0000a
:1004300003003a00c08122000100200002003700c2
:100440000000200001002000810f70000100320038
:100450000f000700000020000000e0000200320052
:100460000000020000000000041c02000000000068
:100470000040da000000fe00200520000000e0003f
:1004800002003200002020009001880000000600d9
:10049000a1028800800478000000eb001f003700f4
:1004a000e284440054a0b4009905ba00e2844400f8
:1004b00054a0b4009906ba00e284440054a0b400e9
:1004c0000006eb00476fde00fd07b200ae018800ba
:1004d000636ce10003003a000ad801000000eb0061
:1004e0000e003700606ce10008003a00004deb00a0
:1004f0000a05e800020039003420ec000af0a000f0
:100500008b05e900f9ff3e00040037006168e10057
:10051000010032000086eb000b00070019c7ba008b
:100520001905ba000e04e00003003a000a00e000da
:10053000dbff3a0000000600fe07b200ae028800b2
:100540008a047800f5ff37000cd0a300e20f4d00bd
:100550001c003b0089027800354dba000a05e8000e
:10056000020039003420ec000af0a0008b05e900fd
:100570000f003200254dba000a05e80002003900dc
:100580003420ec000af0a0008b05e90008003200de
:100590000c00e0000600320015cdba000a05e800a4
:1005a000020039003420ec000af0a0008b05e900bd
:1005b0008984e80054a0b4000b00e000e2ff3a0098
:1005c000000006009902ba00055d78008b05e9007d
:1005d000f7ff3200c82ade00055d78008b05e900d0
:1005e000f3ff32000c00e000f1ff320019ddba0029
:1005f000eeff37002c1f0400000000004a1f04001b
:1006000000000000ba260400000000005c1e040088
:1006100000000000ae1d040000000000b61e040033
:1006200000000000be1e040000000000e2240400e0
:100630000000000010250400000000002425040034
:100640000000000038250400000000003600f8001b
:10065000809fbe00829fbe00849fbe00869fbe001a
:100660000000fa000228a9002110800000082000e4
:10067000008060000000e0000800320004e2a900f1
:100680000830ef0070808000200090008000eb00b8
:10069000010878000e30ef000e0137004080800026
:1006a0008000eb00b200200003002000820f500009
:1006b000838f5800fd003e00000601000b0037004c
:1006c0003a003700760037009d003700f40037000d
:1006d000c9003700da003700f1003700dc003700ce
:1006e000f2003700350037005100370000002100cc
:1006f00020009000620060000000e000f4003a007a
:10070000000021001000900070808800000021008f
:1007100010009000104078000af0b700000021009f
:100720001000900010009000608088000000210000
:1007300010009000e6004000000021001100980029
:10074000000021001000900080007800800b210044
:10075000808f500003003a0000002100210b21008f
:100760001100980000002100a00090000100a100ed
:10077000210098000000210090009000000021005e
:1007800010007800808f500004003a000000210023
:10079000a00090000110a000210098000002a80015
:1007a0002000200040808800ca0037000022a800f6
:1007b0002000200040808800c60037002110800003
:1007c00000002800008060000000e0000800320007
:1007d00000002100604090008040e80000002100ff
:1007e00061409800400020003b0f0700b90037002f
:1007f000808080008000d100f00f20000080600029
:10080000a0108800808080006100600000407800b7
:100810000004e00003003200b000200040808800a7
:10082000ac0037003000200040808800a90037006d
:100830002110800000002800008060000000e0001f
:100840000800320000002100604090008040e80075
:100850000000210061409800400020001e0f0700aa
:100860009c0037000022a800808080004800de0045
:10087000e6006000000f200001007000808088000a
:10088000808080000000a0008080880010c0b3003d
:1008900012f0b70020002000408088008d00370053
:1008a00012d0bf00e14f50000a003200608080008b
:1008b0001000780080808800608080002000900018
:1008c000a0808800608080002040900016f0b70073
:1008d000010037001270ef0081808000f00f2000cf
:1008e000808f500009003600808080004800de00c4
:1008f000e6006000000f200001007000a0108800da
:10090000a0002000408088007200370080808000b6
:10091000a0108800808080006100600000407800a6
:100920000004e000030032005000200040808800f6
:1009300068003700300020004080880065003700e4
:100940002110800000002800008060000000e0000e
:100950000900320000002100604090008040e80063
:10096000000021006140980005e2a900500020002d
:10097000d90e07005700370016d0bf008080fb005b
:100980008100e900cf08de00814078000040e900e6
:1009900016f0b7000104e000100032006080800013
:1009a00066004000608088000ad0bf000040e90077
:1009b0000af0b7000ad0bf000004e00003003a00cc
:1009c00020002000c40e0700420037000022a800cb
:1009d00020002000408088003e003700a08080007a
:1009e000904078008180fb00a11088000000e800a2
:1009f000a080880037003700211080000000280008
:100a0000008060000000e0000900320000002100ca
:100a1000604090008040e8000000210061409800a4
:100a200040002000ac0e070005e2a90029003700b5
:100a30000062a80080002000408088002500370068
:100a400080002000408088000062a800210037005c
:100a5000a0808000c11080008140780001487800ab
:100a60000000e800a080880016d0bf000040e90028
:100a700016f0b70016d0bf000004e00004003200fa
:100a800000a2a9006000200040808800020037001a
:100a900000a2a8007f0e07000082a8000d0037000a
:100aa000200020008c0e07000a0037000000210003
:100ab000604090008040e800000021006140980004
:100ac00060002000840e07000000000001003700d5
:100ad000000000000080fa004f03be004f02be007d
:100ae0004f01be004f00be003600f9000040060076
:100af0003600f800809fbe00829fbe00849fbe002b
:100b0000869fbe000000fa00c028a9000000eb008c
:100b1000fb1107000080fa004f03be004f02be0029
:100b20004f01be004f00be003600f9000040060035
:100b30003600f800809fbe00829fbe00849fbe00ea
:100b4000869fbe000000fa00f4110700c048a9000b
:100b500010002000ea1107000080fa004f03be00d9
:100b60004f02be004f01be004f00be003600f9002c
:100b7000004006003600f800809fbe00829fbe0045
:100b8000849fbe00869fbe000000fa00c068a900d6
:100b900020002000da1107000080fa004f03be0099
:100ba0004f02be004f01be004f00be003600f900ec
:100bb000004006003600f800809fbe00829fbe0005
:100bc000849fbe00869fbe000000fa00c088a90076
:100bd00030002000ca1107000080fa004f03be0059
:100be0004f02be004f01be004f00be003600f900ac
:100bf000004006003600f800809fbe00829fbe00c5
:100c0000849fbe00869fbe000000fa00c608a900af
:100c100070002000ba1107000080fa004f03be00e8
:100c20004f02be004f01be004f00be003600f9006b
:100c3000004006003600f800809fbe00829fbe0084
:100c4000849fbe00869fbe000000fa0021468000ff
:100c500000102000008060000000e000030032006f
:100c6000c508a900c0002000a5110700214680008a
:100c700000022000008060000000e000030032005d
:100c8000c4a8a900900020009d1107002046800004
:100c9000700060000000e00003003200c488a9007a
:100ca000a00020009611070020468000610060002f
:100cb0000000e00003003200c408a900b0002000da
:100cc0008f110700ffff37003600f800809fbe003d
:100cd000829fbe00849fbe00869fbe000000fa0077
:100ce000108180000000e0000200320010818000ce
:100cf00000000100f1808000e0808000808f5000c3
:100d000002003a002188a900180037000188a900d4
:100d100010003700f0808000904078008180fb0058
:100d2000411288000000e800f0808800f180800017
:100d3000d00c2100808f500002003a00400c2100ae
:100d4000f0808800f1808000e0808000808f50007b
:100d500005003200f0118000700060000000e0002b
:100d6000ecff320001003700000000000080fa00b4
:100d70004f03be004f02be004f01be004f00be0039
:100d80003600f900004006003600f800809fbe00e3
:100d9000829fbe00849fbe00869fbe000000fa00b6
:100da0000168a9001e003700c08080002112800069
:100db0008140780001487800c1808000500d2100fa
:100dc000808f500009003200c08080008000e80061
:100dd000d0808000808f500004003200c0808000ee
:100de0000000e800c08088000d003700c18080004e
:100df000500d2100808f500007003a00d180800004
:100e0000d00c2100808f500003003200d00c210054
:100e1000c08088000200370010c0b30020f0b70087
:100e2000f0118000620060000000e000deff320090
:100e3000208180000000e00002003200208180005c
:100e4000000001000080fa004f03be004f02be0008
:100e50004f01be004f00be003600f9000040060002
:100e6000801f78000000fa00e0118000620060003e
:100e70000000e000010032003c22a9000628a90081
:100e80000080fa004f007800004006000000fa00e1
:100e900017a8a9000080fa00004006003600f800fc
:100ea000809fbe00829fbe00849fbe00869fbe00c2
:100eb0000000fa00d08180000000e0000200320053
:100ec000d081800000000100700d210010407800ea
:100ed0008040e800700d210001487800600d21007d
:100ee00011c0b300014878000028a9000080fa0072
:100ef0004f03be004f02be004f01be004f00be00b8
:100f00003600f900004006003600f800809fbe0061
:100f1000829fbe00849fbe00869fbe003200f80004
:100f20003400f80010002000a001880000202000fc
:100f300000d0fe000200fa00a1618000010f7800dd
:100f4000408180000000e000030032004181800009
:100f50001e007800010001000de8a9000080fa00e1
:100f60003400f9003200f9004f03be004f02be000a
:100f70004f01be004f00be003600f90000400600e1
:100f80003600f800809fbe00829fbe00849fbe0096
:100f9000869fbe003200f8003400f80010002000e8
:100fa000a00188000020200000d0fe000200fa000e
:100fb000e1618000010f7800508180000000e000b6
:100fc00003003200518180001e0078000100010002
:100fd0001808a9000080fa003400f9003200f90076
:100fe0004f03be004f02be004f01be004f00be00c7
:100ff0003600f900004006003600f800809fbe0071
:10100000829fbe00849fbe00869fbe003200f80013
:101010003400f80010002000a0018800002020000b
:1010200000d0fe000200fa00f1618000010f78009c
:10103000608180000000e0000300320061818000d8
:101040001e007800010001001828a9000080fa00a5
:101050003400f9003200f9004f03be004f02be0019
:101060004f01be004f00be003600f90000400600f0
:101070000040da000000fe00000005000000fa0059
:10108000e88157004fb997005f0207000080fa001f
:10109000000006007c000700d5000700880107005b
:1010a000b001070009010700d00207007b023700ea
:1010b000889fbe008a9fbe00800478000200e00086
:1010c0005b00320001407800814c7800828144004e
:1010d000f1f99f00e20f510055003600914498004d
:1010e000a1449800e1f99f00d1f99f00e60f51005b
:1010f0004f003600b1449800c1f99f00e80f51003d
:101100004b0036000905ea00630565000a844400c7
:101110000a055100c1ff2f00010565000080fb009a
:101120008000eb001210200013102000ba05070009
:10113000008cbe000a01440060b99f0071b99f0095
:10114000e80f55003a00360020049800310498005a
:10115000400498005104980020b99f0031b99f00c5
:1011600040b99f0051b99f00f80f5500300036007c
:101170006004980071049800000c9800110c98000d
:10118000200c9800310c9800400c9800510c9800ed
:1011900020b19f0031b19f0040b19f0051b19f002d
:1011a00060b19f0071b19f0000b99f0011b99f000d
:1011b0006401640078014100020444000205550006
:1011c0006011b8000203be000002be000403be00ae
:1011d0006022b8000000720081807200020173007a
:1011e0008381730010003700009cbe000294be0093
:1011f0004004980051049800620498007304980019
:10120000000c9800110c9800220c9800330c9800e8
:10121000400c9800510c9800620c9800730c9800d8
:101220000a02b1000802b000ff0f5500eeff3e00b9
:10123000090078004f05be004f04be000000060004
:10124000810178000002780030417800b14f5100f0
:1012500002003a000204e000f9ff3a009480fb002b
:101260001380fb000080500000000600881f7800fb
:101270000004780008007800c00407000800780027
:101280004f04780000000600ec874700889fbe00ee
:101290008a9fbe008c9fbe008e1f780000067800db
:1012a000010478001807900028059000980678003f
:1012b000cdb79f00b80590003202be002203be00e9
:1012c0000400be000601be004f18de006011b80029
:1012d0008000eb00d0b79f00e1b79f00f2b79f00fe
:1012e00083bf9f00800478000900e0000600320000
:1012f0006000b8006011b8000402500085825800f8
:1013000006035900878359000e00e00002003500f3
:101310000d10a100cdb79f000900e00005003a00c4
:101320004fb097000028a30002003a000038a30045
:10133000020032008a00e900010037008a007800cc
:10134000f8815700a20020000800780089000700fb
:101350000900e00003003a00cfb097000128a30085
:10136000080032000000e90000814500b1c2b3006e
:101370000900e00001003200d1c2b3000149780049
:10138000060037000138a300040032000000e90025
:101390008080450002c2b300824878004801900076
:1013a0000201e90000015100808045004fb2970022
:1013b0008a0178000c007800570207009c0090001a
:1013c0000188a3000400320098009000810f5000b3
:1013d00001003d00010078004f0778004f06be0075
:1013e0004f05be004f04be00cf00b1000000060054
:1013f0000200fa00889fbe008a9fbe008005780028
:10140000010478000200780018019000280590007f
:1014100098007800b1bf9f00b80490000200e0007f
:10142000020035000110a100b1bf9f00ea81570002
:10143000820020008a0078003002be002003be0037
:10144000080078004b0007003fb99700f0006100ea
:10145000040032000000e9008080440002c3b300b1
:10146000824878003fb99700e8006100040032002c
:101470000000e9008080440002c2b3008248780086
:10148000480190000201e900000151008080440001
:101490003fba97008a0178000b0078001e0207000f
:1014a0009b0090000188a300040032009800900087
:1014b000810f500001003d00010078004f05be0083
:1014c0004f04be000080fa0000000600ea874700d3
:1014d000889fbe008a9fbe008e1f7800000478009f
:1014e000030078007287570084e2260055c7260063
:1014f000049fbe00c3962200030f78006c8757003c
:10150000004feb0011059000a104900091057800b8
:101510000200e000020032000207780001003700fc
:10152000728757000000e00002003a000e007800c9
:10153000320407000a00e000030035008a0f500063
:10154000010036000a0078000b027800890178005b
:10155000000178008e00780008007800ee01070096
:101560004f0778004f05be004f04be00af00b1002a
:1015700000000600f4874700889fbe008a9fbe00d7
:101580008c9fbe008e1f78000605be000404be00be
:1015900081bf9f0082b79f00f3b79f00b00090000b
:1015a000e1b79f001301780092b79f00900690006a
:1015b000400090000000e900000678000d00e00007
:1015c00001003d001d002000efb1970000804100a8
:1015d0000048eb001e0020001f0037000c06e90049
:1015e0000fb09700cf80de006109b900a0b79f005f
:1015f000b1b79f00c2b79f00d3b79f000203be00e0
:101600000002be000800be000a01be002805070057
:1016100000077800efb097000c80400003c3b300d0
:10162000034847008d06e9000fb897000000e90065
:1016300080bf9f002fb29700bfb297004fb39700b3
:10164000dfb397000800be000a01be0011050700c5
:101650000205be000004be000c00e0000d003400d6
:10166000e00f5400e08f5c00e00f5d00e08f5d0054
:10167000daff3a000d00e000d8ff3c008fb8970079
:101680000100e000030034001fb197000218a3001e
:10169000d2ff3a000e00e00002003a00ffb19700ce
:1016a0001340a1000c0078004f0778004f06be00e1
:1016b0004f05be004f04be004f01b1000000060000
:1016c0000200fa00889fbe008a9fbe0000057800d5
:1016d000010478000200780018019000a80490002e
:1016e00098007800b1bf9f00b80590000200e000ac
:1016f000020035000110a100b1bf9f00ea81570030
:10170000a2002000890078003002be002003be0045
:101710000800780097ff0700480190000201e900e7
:1017200000015100808045003fba97008901780090
:101730000a007800780107009a0090000188a30051
:101740000400320098009000810f500001003d001d
:10175000010078004f05be004f04be000080fa0073
:1017600000000600fa874700889fbe008a9fbe00df
:101770008c9fbe008e1f78008004780001047800e2
:10178000820578001801900028059000180778005d
:10179000b80090000200e000020035000e10a10029
:1017a000010037001200200070006700e0b79f00c2
:1017b000090032003b02be002b03be00e00f5200c6
:1017c000e08f5a00e00f5b00e08f5b000200320008
:1017d0008a86e900010037008a067800e80267007f
:1017e000f5b79f00010032008d06e9003b02be0004
:1017f0002b03be00e4af9f00f5af9f0086b79f00ac
:1018000097b79f00480690000c06e9000c80400046
:101810000048eb00efb297007fb297008903780091
:1018200081047800d8af9f00020478008bbf9f002e
:101830008a057800034578002b0037000c06e90084
:101840006fab97006f006300e90f500002003c008f
:101850000003b000010037007005b0000a03fb0070
:101860001604b100f90f53000c003e00000378008d
:101870000650a0001606b100f90f530007003e0005
:10188000b4b79f00a5b79f00c7b79f007a030700b2
:10189000cfb39700afb297003fb297000c834400dc
:1018a000004b78000804e9008d06e9006fa8970056
:1018b000ffa897000fb197009fb197004600200046
:1018c0008301d1000281d3008180d3000080d30046
:1018d0000603e900faff3a00e0af9f00f1af9f0076
:1018e00082b79f0093b79f00e10f56000f003400ae
:1018f0006fa89700ffa897000fb197009fb19700be
:10190000e00f5000e08f5800e00f5900e08f5900c1
:10191000caff3a000800e000c8ff3c000d00e000ec
:10192000020034000e18a300c4ff3a0089007800ba
:10193000f4b79f00870478005fac97008a41780075
:101940000b0578008fbd97000500e0001200320003
:101950003b02be002b03be00e4af9f00f5af9f002b
:1019600086b79f0097b79f00e00f5200e08f5a00a4
:10197000e00f5b00e08f5b00070032000c06e9001f
:101980000c804000034878000c06e9000c80400001
:1019900002c3b30002487800ffb297000500e000e0
:1019a000040032000c06e9000c80400002c2b300c3
:1019b00002487800480190000201e9000c01510042
:1019c0008c8040000e0278008a01780009007800bf
:1019d000d1000700990090000188a30004003200a4
:1019e00098009000810f500001003d000100780038
:1019f0004f0778004f06be004f05be004f04be00e3
:101a0000af01b10000000600f28747008e1f78008a
:101a100002027800030178000000e00002003200ba
:101a20000007780001003700728757008002eb0042
:101a30000100e000010032008102e90070805700df
:101a4000060009000018eb000080eb0080bf9f003b
:101a50002310200093bf9f00aebf9f00b1bf9f0027
:101a6000c5bf9f000100e00003003d00b10420005d
:101a7000c186880006003700004feb00eebf9f00d4
:101a8000debf9f00840078007080570001030700cc
:101a90004f0778002f01b1000000060084082000e5
:101aa000848f50001d0032000d003c0014082000ff
:101ab000848f50002700320002003c000408200000
:101ac0000400370024082000848f500034003200c6
:101ad00044082000848f500043003a00360037004d
:101ae000040a2000848f50002700320004003c00cc
:101af00004092000848f50003b003a002800370082
:101b0000020c2000828f50002f003200020f2000b4
:101b1000828f500034003a002b0037009380e90098
:101b20000200e00005003200810978001102fb008c
:101b3000cfa2de00612bb9002800370081097800b0
:101b4000114278000482fb008002eb006033b80091
:101b50002200370013027800e40052000200e00087
:101b600005003200810978001102be004fabde0093
:101b70008603780019003700810978001102be0041
:101b80006033b800150037009380e90081097800c0
:101b900011027800cfa2de00612bb9000f003700e0
:101ba00093027800e8805200810978003102be007b
:101bb0002103be00090037009380e9000200e00025
:101bc00002003200f1ff37009380e90081097800bc
:101bd000110278008002eb006033b8000498be0068
:101be0000690be001000050000000500440820001b
:101bf000848f50002500320008003c0014082000ab
:101c0000848f50001400320024082000848f50007c
:101c100024003200040820000c00370004092000d2
:101c2000848f50001f00320004003c008408200014
:101c3000848f500024003a000e003700040a200070
:101c4000848f500011003200040c2000848f50005b
:101c50001d003a000d0037009380e90081097800eb
:101c60009100780001087800cf91de008288be00e4
:101c7000140037009380e900810978009100780012
:101c800001087800824878000e0037009380e90050
:101c900081097800910078000108780082087800b6
:101ca000080037009380e9008109780091007800ee
:101cb000010878006112b900612bb9008498be0058
:101cc0008690be001000050000000500889fbe0041
:101cd000000478004800900082047800808f54004f
:101ce0000100360080047800090178005800900057
:101cf0001b020700580090000900400050049800a3
:101d0000c800900089845000490498000048eb0006
:101d10004f04be0000000600f2874700889fbe0007
:101d20008a9fbe008c9fbe008e1f780080047800c2
:101d300001057800020478008305780061076200dd
:101d400002003a008b0f54000800390008017800a7
:101d50008a00780009007800dcff07008b0f540030
:101d600002003900880578001e00370008865500fb
:101d70000c017800f00f560001003600020120002f
:101d8000010220007e805700c9fc07008c06780005
:101d90000500370002012000fe805700090078008e
:101da000caff0700f0865600ef8f5600f9ff3e008d
:101db0004461de0000ff2f008091b9000c0141005a
:101dc000fe80570009007800c0ff07000e00e00009
:101dd00004003a00080178008a00780009007800c1
:101de000baff07000b0078004f0778004f06be00cf
:101df0004f05be004f04be002f01b10000000600d9
:101e0000000005000000050000000500000178004a
:101e10000040eb008080fb0081804000c30921006e
:101e200081814100134278000404e00004003a007c
:101e3000d009210081004000114078000000060018
:101e400092017800934f520005003a00d00921001a
:101e500081004000114078000309e80001003700cc
:101e60000040e800ea4f5000eaff3600000006009c
:101e7000f6874700889fbe008a9fbe008c9fbe00e9
:101e80008e1f780000057800010478008305780033
:101e9000040678000000eb00c0b79f008080eb00d4
:101ea000d1b79f00e0b79f00f2b79f000008200065
:101eb00080bf9f0098007800010078008004eb004c
:101ec000010037008904e800304178000204e00096
:101ed0000300320053c2b300834f5100f9ff3a00b0
:101ee0000900e00004003200090178000a007800cf
:101ef00076ff0700188c44001807780050c2b30022
:101f00009e4f10003f013a000e07e8000e0c7800cb
:101f100010003700cfb097000100a0000b00370081
:101f2000cfb097000110a00008003700cfb0970095
:101f30000120a00005003700cfb097000130a000bd
:101f400002003700cfb097000140a000c1b79f004a
:101f5000000ce8001800780090407800b2c2b3008e
:101f600082cf5000f1ff320007003c0002c2b300f4
:101f700082cf5000f0ff320032c2b30082cf500057
:101f800007003a00efff3700d2c2b30082cf500003
:101f9000e0ff320002c3b30082cf5000e0ff320006
:101fa000a2c2b30082cf50000d003a00000ce8003e
:101fb0001c80e900000e780010007800e0b79f0058
:101fc0000000e0000f003d00cfb097000100a2002c
:101fd000c1b79f000000ea00e0b79f00090037008a
:101fe00039010700e0b79f0001003700000ce8004e
:101ff000180078009000fb000103b100e98f500049
:10200000faff36004fb097000008a300020032002c
:102010000010a100c0b79f0018007800e1c2b30013
:1020200090cf100016003a008000eb00d1b79f005f
:102030000000e800000c7800a1c2b30090cf1000af
:1020400006003a00000ce8001c80e900000e780051
:1020500010007800d0b79f00090037001a01070070
:10206000d0b79f0001003700000ce800180078008e
:102070009000fb000103b100e98f5000faff360029
:102080000800780061ff070080467800180078009b
:102090001000fb007101070091062000810f500025
:1020a0003800320012003c0041062000810f500031
:1020b000340032000a003c0011062000810f50005d
:1020c0002000320031062000810f5000a0003200b5
:1020d00051022000810f5000bc003a00b4003700cc
:1020e00071062000810f5000b8003c0088003700c6
:1020f00001072000810f50005c00320007003c0007
:10210000e1062000810f50007a003200f106200025
:10211000810f5000ad003a00390037005107200010
:10212000810f50002700320081072000810f5000ee
:102130004200320031072000810f5000a3003a0016
:102140008f0037008d80fb000c01780000fe2f000f
:102150000f0040005d0107000000e000a800320011
:1021600018007800000ce8009041780002fe2f0073
:102170000f014100f88057000a00780021ff070096
:102180000e0037008d80fb008c01780012002000cb
:1021900000fe2f000f00400040fe07000000e0009e
:1021a00097003200180ce80002fe2f000f014100da
:1021b000f88057000a00780033fc07008084440050
:1021c000900037008d80fb008c0178000001eb004f
:1021d00000fe2f000f00400030fe07000000e0006e
:1021e00087003200180ce80002fe2f000f014100aa
:1021f000f88057000a00780031fd0700efff370034
:102200008d80fb008c0178000001eb0000fe2f00a8
:102210000f00400021fe07000000e00078003200bf
:10222000180ce80002fe2f000f014100f880570053
:102230000a0078006efc0700e0ff37008d80fb008d
:102240008c0178000001eb0000fe2f000f00400021
:1022500012fe07000000e00069003200180078005c
:10226000000ce800904178001c0037008c017800d9
:102270000001eb00010f200000fe2f000f004000c6
:1022800006fe07000000e0005d003200180ce800c8
:102290000fb097009fb097002fb19700bfb1970084
:1022a000e00f5000e08f5800e00f5900e08f590018
:1022b00009003a00cfb597006fb49700400921009c
:1022c000ce0007000b02780088017800000178003a
:1022d000410921004700370083c7b30002fe2f00e9
:1022e0000f014100f88057000a0078001dfd07002b
:1022f000b2ff37000b8144008d80fb008c01780019
:1023000000fe2f000f00400038fe07003c003700a1
:102310008d80fb000c01780000fe2f000f004000b4
:10232000ea0007000000e0003500320018007800e5
:10233000000ce8009041780002fe2f000f014100e0
:10234000f88057000a007800aefe07009bff3700b8
:1023500000c8b30080cf560029003a00180ce800ee
:102360001c80e900000e780010407800e0df9f003c
:1023700013002000e2fd2f000f014100080037008c
:1023800000c8b30080cf56001d003a00180ce800ca
:102390001c80e900000e78008001eb00100178003d
:1023a000f88057000a00780048fc070083ff3700d8
:1023b00000c8b30080cf560011003a00180ce800a6
:1023c0004fb29700efb19700080037000e0c78006d
:1023d0000000eb00c0b79f00e0b79f000080eb005b
:1023e000d0b79f000002eb008401780012002000ab
:1023f000a10921000a00780047fe07006fff37009f
:10240000180ce800090078004f0778004f06be005e
:102410004f05be004f04be006f01b1000000060072
:102420008200fa00889fbe008a1f780000057800ad
:1024300082047800c13f9f000004eb0010003700c9
:102440000902780088017800a2f72f000f014100ef
:1024500081f72f008f8040000a00780084fe07007b
:1024600008004000880f500004003d00b004200028
:10247000c08688000084eb00040037000004780068
:102480004f3897001004e000edff3a000800780094
:102490004f0578004f04be000080fa0000000600df
:1024a000800078001000200002022000828f50007f
:1024b00004003200e9805000e48f50000100360033
:1024c0000000eb0000000600889fbe008a1f780015
:1024d000000578000a047800984478000805e800b0
:1024e0000900fb00eeff07000000e000f9ff3a00e2
:1024f000b0c2b30080cf540005003200d0c2b30098
:102500008000eb0080cf540005003a000200370045
:102510008000eb0001003700110020000804e800f3
:102520000000eb0003003700ea00b9000200500091
:102530000003b0003801fb0003fd2f008281410041
:10254000e98f5100f8ff36000100e00001003a0079
:102550000000ea004f0578004f04be0000000600ae
:102560008001780002003700b15978000201e900cb
:102570000200e000fcff3a000000060001017800c4
:1025800080017800008268000408a3000500320082
:102590001300370032407800805978000004e000d2
:1025a00014003200030278000208a300f9ff3a0089
:1025b00003007800010037000318780082007800db
:1025c000b2017800f5ef2f00838242000382ea0017
:1025d000048262000508280005026200f6ff32004e
:1025e0000002780031417800025878000204e000cf
:1025f000fbff3a000400780000000600800078002d
:10260000040037003104e00002003a0000005100ed
:1026100000000600010178000108a300f9ff3a005c
:102620008101780031017800f4ef2f0002024200ae
:102630000281ea000201620004082800040161002e
:10264000f7ff320083007800010178003104e000d8
:10265000fdff3a000000510000000600f1fb2f00d2
:1026600080804000f98f500001003e000050a00023
:1026700000000600f9ff3700f1f92f0080804000cc
:10268000f98f500001003e00f005b2000000060086
:10269000f9ff37000200fa00881f78000004780074
:1026a000e2bf9f0064815700080078005cff0700cc
:1026b000980090000148a300010032000080eb0068
:1026c0004f0478000080fa0000000600881f7800a0
:1026d0000004780000082000808f500017003500ab
:1026e00010082000808f50000b00340030082000bc
:1026f000808f500011003a009200780068805000ee
:10270000000978003002be002003be00049cbe0019
:102710000694be00070037009202780064805200e1
:10272000000978001000be0007000700009cbe00f2
:102730000294be0010002000010037000000eb00f2
:102740004f04780000000600810378001d00070098
:102750000001be006000b8000478a30013003a0036
:102760006220e10015003e000d0039008301d10018
:102770000281d3008180d3008301d1000281d30084
:102780008180d3008301d1000281d3008180d300f6
:102790000538b000c42add00f300b2008381720066
:1027a00007f0a70003f0a0000000060083ff270049
:1027b000020020006110b900f9ff370003ff270075
:1027c000f7ff3700c70ade00f107b200f50fb200cd
:1027d00008003200e1cf4200020032000170a00088
:1027e00024000500810f700001003200040805007c
:1027f00044000500810f700002003a00140005003b
:102800008502e9000000400081c04800fcff3b0059
:102810000170a00024000500020ab900001bb900e5
:102820000200b80081004200810043000000060061
:10283000889fbe008a9fbe0030044200b0844a00d8
:1028400030054b0090854b006000b1000898be0039
:102850000a90be000440e10005c8e10006d0e10096
:1028600007d8e10002003100680040001008e800cd
:102870004f05be004f04be0000000600889fbe004a
:102880008a9fbe003004be002005be00041854001c
:1028900005985c0006185d0007985d001100200097
:1028a0000440e10005c8e10006d0e10007d8e100de
:1028b000010039008000eb00108810004f05be00b9
:1028c0004f04be00000006001200fa00889fbe0000
:1028d0008a9fbe008c9fbe00e0b79f00f1b79f00ab
:1028e00082bf9f0093bf9f000605be000404be0088
:1028f0000000eb00d0b79f00c0b79f00b0b79f00ab
:10290000a0b79f0090b79f00000678005fb19700c6
:10291000cfb09700820141003fb097000200e00075
:1029200004003d00370007007e805700c0ff07000d
:1029300003003700330007007e805700cfff0700f9
:10294000dfb697000d00e0000c0035006fb2970075
:10295000ffb297000fbb97009fbb970010002000ad
:10296000010020006011b800000272008182720034
:1029700002037300838373001b0007000c06e8004a
:1029800001042000810f5600e0ff3a000d00e00036
:1029900004003d000802be000a03be007e8057000e
:1029a000a3ff07005fa897000000e00005003a00c1
:1029b0001fb29700afb297003fb39700cfb3970015
:1029c000090007006fb09700ffb097000fb997009c
:1029d0009fb997004f06be004f05be004f04be00d2
:1029e0000080fa0000000600010007000000060059
:1029f000a4b79f00b5b79f00c6b79f00d7b79f0089
:102a0000000006004f09de0082817100b3b79f000d
:102a10004f01de008180400082807000a1b79f00de
:102a20008fb097004f09de000000400002007000e8
:102a300090b79f007fa897004f01de008180400083
:102a40008280700081b79f000d0007004f3ade00c2
:102a50000000400004007000f0af9f000800070075
:102a60000402420085824a0006034b0087834b0024
:102a7000dfff07000802be000a03be0000000600d8
:102a80002fb29700bfb297004fb39700dfb3970004
:102a900000000600881f780018002000881f7800ba
:102aa00089ff07008f87e9004f04780000000600c7
:102ab000801feb0084ff07008f87e90000000600fd
:102ac000889fbe008a9fbe00e00f5000e08f580034
:102ad000e00f5900e08f59000c003d006044b80041
:102ae0006055b8000000540081805c0002015d0068
:102af00083815d00180020001500070008003d00dc
:102b0000180007000004eb00050037000004eb008c
:102b10000f00070002003d0012000700180020000f
:102b2000dcff07000800e000060032006022b80069
:102b30006033b8000000520081805a0002015b003f
:102b400083815b004f05be004f04be0000000600fd
:102b5000e00f5200e08f5a00e00f5b00e08f5b0057
:102b6000000006006044b8006055b800040254003c
:102b700085825c0006035d0087835d00000006001f
:102b8000889fbe008a9fbe008c1f7800e00f500017
:102b9000e08f5800e00f5900e08f59000d003d0014
:102ba0006044b8006055b8000000540081805c00ab
:102bb00002015d0083815d001c0020000820e1000f
:102bc00009a8e1000ab0e1000bb8e1000d003d00ea
:102bd000080037000006eb00e00f5200e08f5a00bb
:102be000e00f5b00e08f5b0006003d006044b80032
:102bf0006055b8000402540085825c0006035d0045
:102c000087835d00aaff07000c00e0000600320089
:102c10006022b8006033b8000000520081805a0082
:102c200002015b0083815b004f0678004f05be0008
:082c30004f04be000000060085
:020000040000fa
:102c3800566f00006c7400003a250000750a000009
:102c480000500000726f0000626500002064000000
:102c58007350000049430000205200004600000065
:102c680064730000504900004320000052460000f1
:102c780020410000636b00000a000000506900005a
:102c88006e670000005000006f6e0000670a0000c9
:102c98000053000065740000537400006144000094
:102ca8006173000068000000536500007453000061
:102cb80074610000496400006c6500000053000066
:102cc80065740000537400006146000072650000de
:042cd80000000000f8
:020000040000fa
:102cdc000000fa0010002000e055880000002100e0
:102cec0000568800f0ff260010568800c0212000f6
:102cfc002056880000c0230030568800c82aef00f8
:102d0c00ca2aef0000082000605688000088a9003d
:102d1c00ce2aef00d02aef00d22aef00d42aef00ff
:102d2c00d62aef000108a900d82aef00da2aef0012
:102d3c00dc2aef00de2aef00e02aef000248a900af
:102d4c00e22aef00e42aef00e62aef00e82aef007f
:102d5c00ea2aef0002a8a900c40aa8000080fa0021
:102d6c00000006000000fa000080fa0000000600d7
:102d7c000000fa0000408000700060000000e000dd
:102d8c0002003200f7ff07000088a9000080fa005b
:102d9c00000006000000fa000080fa0000000600a7
:102dac000000fa000140800000102000008060004c
:102dbc000000e00002003200f6ff07000108a90045
:102dcc000080fa00000006000000fa000080fa0003
:102ddc00000006000000fa00104080006400600053
:102dec000000e00002003200f7ff07000248a900d3
:102dfc000080fa00000006000000fa000080fa00d3
:102e0c00000006000000fa001140800000022000c3
:102e1c00008060000000e00002003200f6ff0700b6
:102e2c0002a8a9000080fa00000006000200fa00c7
:102e3c00000f78001e007800e10f500009003200ee
:102e4c00e10f500005003900e20f5000070032007e
:102e5c00e30f50000700320008003700c40aa80036
:102e6c0006003700ce0aa80004003700d80aa800d4
:102e7c0002003700e20aa800000000000080fa00ff
:102e8c00000006000200fa00000f78001e00780017
:102e9c00e10f500009003200e10f5000050039002d
:102eac00e20f500007003200e30f50000700320021
:102ebc0008003700c40aa90006003700ce0aa90092
:102ecc0004003700d80aa90002003700e20aa90062
:102edc00000000000080fa00000006000400fa0068
:102eec00000f7800110798001e007800e10f5000c9
:102efc000a003200e10f500005003900e20f5000cb
:102f0c0009003200e30f50000a0032000c003700b9
:102f1c009e00900061568800090037009e009000ca
:102f2c00b1568800060037009e00900001578800bb
:102f3c00030037009e0090005157880000000000ed
:102f4c000080fa00000006000200fa00000f780072
:102f5c001e007800e10f500009003200e10f500014
:102f6c0005003900e20f500007003200e30f50005b
:102f7c000700320008003700605680000700370059
:102f8c00b056800005003700005780000300370062
:102f9c0050578000010037000000eb000080fa0061
:102fac00000006000200fa00000f78001e007800f6
:102fbc00e10f500009003200e10f5000050039000c
:102fcc00e20f500007003200e30f50000700320000
:102fdc0008003700c50aa80006003700cf0aa80071
:102fec0004003700d90aa80002003700e30aa80041
:102ffc00000000000080fa00000006000400fa0047
:10300c00000f7800110798001e007800e10f5000a7
:10301c000a003200e10f500005003900e20f5000a9
:10302c0009003200e30f50000a0032000c00370098
:10303c009e00900041568800090037009e009000c9
:10304c0091568800060037009e009000e1568800db
:10305c00030037009e0090003157880000000000ec
:10306c000080fa00000006000400fa00000f78004f
:10307c00110798001e007800e10f50000a00320082
:10308c00e10f500005003900e20f5000090032003a
:10309c00e30f50000a0032000c0037009e00900035
:1030ac0051568800090037009e009000a1568800f8
:1030bc00060037009e009000f15688000300370090
:1030cc009e00900041578800000000000080fa002c
:1030dc00000006000200fa00000f78001e007800c5
:1030ec00e10f500011003200e10f500005003900d3
:1030fc00e20f500017003200e30f50001f003200a7
:10310c00280037002056800088800a00000000004c
:10311c000080fb0000f0a7000000ea000000ea00bd
:10312c004f00de00004078001f0037007056800012
:10313c0088800a00000000000080fb0000f0a7005f
:10314c000000ea000000ea004f00de0000407800ba
:10315c0015003700c056800088800a00000000006f
:10316c000080fb0000f0a7000000ea000000ea006d
:10317c004f00de00004078000b0037001057800035
:10318c0088800a00000000000080fb0000f0a7000f
:10319c000000ea000000ea004f00de00004078006a
:1031ac00010037000040eb000080fa000000060030
:1031bc000200fa00000f78001e007800e10f5000aa
:1031cc0011003200e10f500005003900e20f5000f1
:1031dc0017003200e30f50001f00320028003700a8
:1031ec0030568000ff800a00000000000080fb00c9
:1031fc0000f0a7000000ea000000ea004f00de002b
:10320c00004078001f00370080568000ff800a00c5
:10321c00000000000080fb0000f0a7000000ea00a6
:10322c000000ea004f00de00004078001500370077
:10323c00d0568000ff800a00000000000080fb00d8
:10324c0000f0a7000000ea000000ea004f00de00da
:10325c00004078000b00370020578000ff800a00e8
:10326c00000000000080fb0000f0a7000000ea0056
:10327c000000ea004f00de0000407800010037003b
:10328c000040eb000080fa00000006000200fa008b
:10329c00000f78001e007800e10f50001100320082
:1032ac00e10f500005003900e20f5000170032000a
:1032bc00e30f50001f00320028003700305680000a
:1032cc0077800a00000000000080fb0000f0a700df
:1032dc000000ea000000ea004f00de000040780029
:1032ec001f0037008056800077800a000000000025
:1032fc000080fb0000f0a7000000ea000000ea00dc
:10330c004f00de000040780015003700d0568000da
:10331c0077800a00000000000080fb0000f0a7008e
:10332c000000ea000000ea004f00de0000407800d8
:10333c000b0037002057800077800a000000000047
:10334c000080fb0000f0a7000000ea000000ea008b
:10335c004f00de0000407800010037000040eb0019
:10336c000080fa00000006000200fa00000f78004e
:10337c001e007800e10f500011003200e10f5000e8
:10338c0005003900e20f500017003200e30f500027
:10339c001f003200280037003056800066800a007b
:1033ac00000000000080fb0000f0a7000000ea0015
:1033bc000000ea004f00de00004078001f003700dc
:1033cc008056800066800a00000000000080fb0030
:1033dc0000f0a7000000ea000000ea004f00de0049
:1033ec000040780015003700d056800066800a0037
:1033fc00000000000080fb0000f0a7000000ea00c5
:10340c000000ea004f00de00004078000b0037009f
:10341c002057800066800a00000000000080fb003e
:10342c0000f0a7000000ea000000ea004f00de00f8
:10343c0000407800010037000040eb000080fa00eb
:10344c00000006000200fa00000f78001e00780051
:10345c00e10f500011003200e10f5000050039005f
:10346c00e20f500017003200e30f50001f00320033
:10347c00280037003056800055800a0000000000fc
:10348c000080fb0000f0a7000000ea000000ea004a
:10349c004f00de00004078001f003700805680008f
:1034ac0055800a00000000000080fb0000f0a7001f
:1034bc000000ea000000ea004f00de000040780047
:1034cc0015003700d056800055800a00000000001f
:1034dc000080fb0000f0a7000000ea000000ea00fa
:1034ec004f00de00004078000b00370020578000b2
:1034fc0055800a00000000000080fb0000f0a700cf
:10350c000000ea000000ea004f00de0000407800f6
:10351c00010037000040eb000080fa0000000600bc
:10352c000200fa00000f78001e007800e10f500036
:10353c0011003200e10f500005003900e20f50007d
:10354c0017003200e30f50001f0032002800370034
:10355c003056800033800a00000000000080fb0021
:10356c0000f0a7000000ea000000ea004f00de00b7
:10357c00004078001f0037008056800033800a001e
:10358c00000000000080fb0000f0a7000000ea0033
:10359c000000ea004f00de00004078001500370004
:1035ac00d056800033800a00000000000080fb0031
:1035bc0000f0a7000000ea000000ea004f00de0067
:1035cc00004078000b0037002057800033800a0041
:1035dc00000000000080fb0000f0a7000000ea00e3
:1035ec000000ea004f00de000040780001003700c8
:1035fc000040eb000080fa00000006000200fa0018
:10360c00000f78001e007800e10f5000110032000e
:10361c00e10f500005003900e20f50001700320096
:10362c00e30f50001f003200280037003056800096
:10363c0044800a00000000000080fb0000f0a7009e
:10364c000000ea000000ea004f00de0000407800b5
:10365c001f0037008056800044800a0000000000e4
:10366c000080fb0000f0a7000000ea000000ea0068
:10367c004f00de000040780015003700d056800067
:10368c0044800a00000000000080fb0000f0a7004e
:10369c000000ea000000ea004f00de000040780065
:1036ac000b0037002057800044800a000000000007
:1036bc000080fb0000f0a7000000ea000000ea0018
:1036cc004f00de0000407800010037000040eb00a6
:1036dc000080fa00000006000000fa00b5efa90017
:1036ec000080fa00000006000000fa0008cba800d9
:1036fc000080fa00000006000400fa001007980091
:10370c001e009000e10f500008003200e10f500045
:10371c0003003900e20f50000700320009003700a7
:10372c00a1618000010f780006003700e161800084
:10373c00010f780003003700f1618000010f780061
:10374c00000000001e0078000080fa000000060057
:10375c000400fa00100798001e009000e10f5000c2
:10376c000f003200e10f500003003900e20f50004f
:10377c00150032001e0037009059800044800a006a
:10378c00000000000080fb0000f0a7000000ea0031
:10379c000000ea004f00de00004f780014003700f4
:1037ac009059800088800a00000000000080fb0017
:1037bc0000f0a7000000ea000000ea004f00de0065
:1037cc00004f78000a0037009059800099800a0059
:1037dc00000000000080fb0000f0a7000000ea00e1
:1037ec000000ea004f00de00004f780000000000ef
:1037fc001e4078000080fa00000006001800fa0055
:10380c00ae060700b4ff0700c0e5210083010700e6
:10381c00e0da21009001070060eb2100550507005c
:10382c00e0eb21007f0407000000eb00000f7800a4
:10383c00580507001e007800e20f50003c003200d3
:10384c00e20f500005003e000000e00008003200ce
:10385c00e10f500019003200ba003700e30f50009e
:10386c008f003200e40f5000a3003200b500370087
:10387c0077eea80077aea90077cea9009aff0700d3
:10388c00000000000000eb00b1ff07000004a200e4
:10389c000004e000fbff3a000000eb0096ff07007d
:1038ac00100798002ed0bf000004e0009c003200ee
:1038bc0010002000000f7800a200370077eea9005e
:1038cc0077aea90077cea9002ed0bf000004a200cd
:1038dc000004e000030032000000eb00000f780051
:1038ec009800370030d0bf000004e0000200320026
:1038fc003070ef00930037002fd0bf000004e000c1
:10390c00040032002f70ef0020002000000f780020
:10391c008c00370031d0bf000004e0008200320080
:10392c003170ef0030002000000f78008500370068
:10393c0077eea90077aea90077cea8002ed0bf00f5
:10394c000004a2000004e000030032000000eb00c1
:10395c00000f78007b0037002fd0bf000004e00080
:10396c00020032002f70ef007600370030d0bf001d
:10397c000004e000040032003070ef001000200062
:10398c00000f78006f00370057ff070000000000a1
:10399c000000eb006eff07000004a2000004e00032
:1039ac00fbff3a000000eb0053ff070010079800e4
:1039bc007082800080004000e00421000080400004
:1039cc009e009000010878000000eb0010079800a2
:1039dc0010002000300798000b0037003e009000cc
:1039ec0080004000e00421000080400010007800be
:1039fc009e00900000804000100798003e00900050
:103a0c000000e800300798003e009000ea0f5000dc
:103a1c00f2ff34009e009000d0cc2c000008b800bf
:103a2c004308de001007980070828000e90f5000f8
:103a3c0004003e00708280000000e8007082880064
:103a4c000200370010002000708288009e00900059
:103a5c002e009000808f5000350032006800470027
:103a6c00020120008000eb008ef507006800470083
:103a7c009e009000811f7800c1612900811f780091
:103a8c00010120007af50700e48757006800470021
:103a9c00a30007009e009000210798002900370022
:103aac0077eea90077aea80077cea9002ed0bf0084
:103abc000004a2000004e000030032000000eb0050
:103acc00000f78001f00370031d0bf000004e00069
:103adc00020032003170ef001a00370030d0bf0006
:103aec000004e000140032003070ef0010002000e1
:103afc00000f78001300370077eea90077aea8000e
:103b0c0077cea9002ed0bf000004a2000004e00074
:103b1c000b0032000000eb00000f780009003700aa
:103b2c00000000000700370000000000050037000f
:103b3c000000000003003700000000000100370007
:103b4c000000000040062000a205070039ff3700e6
:103b5c000000fa00881f78004e00370032d0bf00fa
:103b6c000004fb00cb0007008040780040062100d9
:103b7c00080040000148780032d0bf000000fb0074
:103b8c00410621000080400010407800ea4f5000b0
:103b9c003a003a000000eb006604070032d0bf0088
:103bac000000fb0041062100008040008040eb003b
:103bbc000148780051622900400621009df507005c
:103bcc000000e00008003a000000eb005904070078
:103bdc007d040700406329005100070010c0b300aa
:103bec002ef0b7001f003700216429004006210089
:103bfc0090f507000000e00003003a007064290013
:103c0c004700070017003700d16429004006210047
:103c1c0088f507000000e00003003a0010c0b30074
:103c2c002ff0b7000f0037008165290040062100f6
:103c3c0080f507000000e00003003a0010c0b3005c
:103c4c0030f0b7000700370031662900400621002c
:103c5c0078f507000000e00002003a0010c0b30045
:103c6c0031f0b700020120008000eb00400621007b
:103c7c000cf507003270ef000600370032d0bf00a1
:103c8c00ee4f500003003c0032d0bf000040e80073
:103c9c0032f0b700aa0007000004e000afff3a00c2
:103cac004f0478000080fa00000006000000fa00c3
:103cbc003c70ef003dd0bf000000fb00e103210091
:103ccc0000804000104078000004e0000a00320040
:103cdc003dd0bf000000fb00e1032100008040004c
:103cec0010407800810007003dd0bf000040e80084
:103cfc003df0b70008003700020120008000eb0007
:103d0c00e0032100e7f4070010c0b3003df0b7005a
:103d1c0010c0b3003cf0b7000080fa0000000600b1
:103d2c000200fa00000f78003cd0bf000004e00055
:103d3c00080032009e007800e003210048f50700df
:103d4c00e0032100104078006800070010c0b300a9
:103d5c00010037000040eb000080fa000000060074
:103d6c000000fa002e70ef000080fa000000060040
:103d7c000000fa000080fa00000006000000fa00c3
:103d8c002188a9002168a90000082000c011880022
:103d9c003a22ef003c22ef0020022000f0118800b4
:103dac00b0a22000001288004222ef004c22ef004b
:103dbc004e22ef005022ef005222ef005422ef006f
:103dcc005622ef005822ef005a22ef005c22ef003f
:103ddc00400c2100f0808800400c2100e08088001d
:103dec00d00c2100d0808800d00c2100c08088002d
:103dfc002070ef00c0f2210008000700a0f42100a1
:103e0c00150007002168a80039e2a80038a2a80014
:103e1c003882a8000080fa00000006000200fa00b8
:103e2c00000f78001e0078000000e00003003a004c
:103e3c00c0f2210010818800020037009e0078003b
:103e4c00118188000080fa00000006000000fa00d2
:103e5c000080fa00000006000200fa00000f780053
:103e6c001e0078000000e00003003a00a0f42100de
:103e7c0020818800020037009e0078002181880094
:103e8c000080fa00000006000000fa000080fa0032
:103e9c00000006000200fa000040eb00004f780022
:103eac0000000000d1808000c0808000808f500016
:103ebc00fcff3200d0808000104f7800d080800052
:103ecc000000e800d0808800d1808000600d2100c7
:103edc00808f500002003a00d00c2100d080880066
:103eec001e4078000080fa00000006000200fa0074
:103efc00004f7800000000001c0007000004a20026
:103f0c000004e000fcff3a00e08080001e487800ce
:103f1c00e08080000000e800e0808800e180800004
:103f2c00d00c2100808f500002003a00400c210080
:103f3c00e08088002188a8000080fa0000000600bc
:103f4c000000fa00d1808000c080800000806800f2
:103f5c0000f0a7000000ea000000ea004f00de00bd
:103f6c00004078000080fa00000006000400fa000f
:103f7c00f180800011079800e18080001e00900005
:103f8c00808f5000060031009e009000e080800081
:103f9c00008050000000e900000f78000500370099
:103fac009e009000e080800000805000680040007f
:103fbc00000f78001e00780000f0a7000000ea0057
:103fcc000000ea004f00de00004078000080fa009c
:103fdc00000006000000fa00e1808000f080800004
:103fec00808f500009003a00e11180000008200089
:103ffc000080600000f0a7000000ea000000ea006a
:10400c004f00de0000407800010037000040eb005c
:10401c000080fa00000006000400fa00c180800055
:10402c0011079800d08080009e009000808f500077
:10403c00060031009e009000d0808000008050006f
:10404c0069004000000f7800030037009e009000cc
:10405c00d0808000008f5000f00f20009e00780070
:10406c00808f50000200360000c0eb0002003700c9
:10407c001e007800004078000080fa000000060066
:10408c000400fa00f180800011079800e1808000a4
:10409c001e009000808f5000060031009e009000a2
:1040ac00e0808000008050000000e900000f7800e4
:1040bc00050037009e009000e080800000805000da
:1040cc0068004000000f7800f00f20009e00780080
:1040dc00808f50000200360000c0eb000200370059
:1040ec001e007800004078000080fa0000000600f6
:1040fc000800fa002007980031079800c6ff070057
:10410c000080fb00000f78003e0090009e0f5000d6
:10411c0002003100be009000010f78000000eb009f
:10412c0010079800090037005aff0700ae009000f6
:10413c00804878002e0090000000e80020079800ce
:10414c001e0090000000e800100798001e00900070
:10415c009e0f5000f4ff39001e0078000080fa001a
:10416c00000006000800fa002007980031079800ac
:10417c00c3ff07000080fb00000f78003e0090009a
:10418c009e0f500002003100be009000010f78001d
:10419c000000eb0010079800090037002e0090007b
:1041ac0010407800ae0090008100e80021079800d4
:1041bc004eff07001e0090000000e800100798005a
:1041cc001e0090009e0f5000f4ff39001e00780076
:1041dc000080fa00000006000400fa000000eb006a
:1041ec00000f78008cff070020479800a4ff070001
:1041fc00304798002e4090000080fb000000e0004b
:10420c0003003200e90f50000300320004003700b5
:10421c001e20a000040037001e00a0000200370082
:10422c001e10a000000000003e4090000080fb002b
:10423c000000e00003003200e90f500003003200e0
:10424c00040037001e30a000020037001e40a00002
:10425c00000000001e0078000080fa00000006003c
:10426c000400fa0010079800d18080001e00900016
:10427c00008f4000020037009e007800698f5000cc
:10428c00600d21009e007800808f5000faff3e00e8
:10429c001e007800104078000080fa000000060034
:1042ac000000fa005cff07000080fb000000e90042
:1042bc004f00de00004078000080fa00000006008d
:1042cc000000fa006eff07000080fb000000e90010
:1042dc004f00de00004078000080fa00000006006d
:1042ec000400fa00f01180008000eb00008fbe008b
:1042fc001e00be00c001dd0002002000e0118000a5
:10430c008000eb0000007100818071000080fa00d9
:10431c00000006000000fa0059ff07000004e0004e
:10432c0010003200f1808000e0808000808f50000f
:10433c0006003600f080800080007800e08080006d
:10434c00008050000000e90007003700f08080007a
:10435c0080007800e0808000008050006800400001
:10436c00010037000000eb000080fa00000006009e
:10437c000000fa0028ff07000004e00010003200e3
:10438c00d1808000c0808000808f500006003600f5
:10439c00d080800080007800c080800000805000b9
:1043ac000000e90007003700d08080008000780012
:1043bc00c080800000805000680040000100370081
:1043cc000000eb000080fa00000006000000fa007c
:1043dc0039e2a80038a2a8003882a8000080fa00b0
:1043ec00000006000000fa0039e2a90038a2a9007a
:1043fc003882a9000080fa00000006000000fa00d4
:10440c0000002100210b2100110098000000210068
:10441c00210b21000108780000002100a000900071
:10442c000110a0002100980000002100a0009000c5
:10443c000100a10021009800000021008040eb0049
:10444c0061409800b01e20008010880000002800f9
:10445c00001088000422ef000222ef000228a900bd
:10446c002228a8000080fa00000006000200fa00d2
:10447c0000002100e0409000014f78001e407800c1
:10448c000080fa00000006000000fa006080800046
:10449c0066004000608088000ad0bf000040e90040
:1044ac000af0b7000ad0bf000004e00003003a0095
:1044bc0040002000408088000200370010002000df
:1044cc00408088000080fa00000006000200fa001c
:1044dc00000f78000042a80070808000200090003f
:1044ec000000e0000300320070808000200090008b
:1044fc001e0878000830ef000080fa00000006006b
:10450c000800fa00000f7800214798002207980055
:10451c00330798000000210020009000610060002b
:10452c000000e0000a003a00ae0190002e4190001d
:10453c009e007800e00b2100780007003e019000ff
:10454c00e10b210010c0b3001f000700030037006f
:10455c003e0090008000eb00010878000080fa001b
:10456c00000006000800fa00000f780021479800b0
:10457c0022079800330798000000210020009000cb
:10458c00610060000000e0000a003a00ae019000fb
:10459c002e4190009e007800800b21004700070000
:1045ac003e019000810b210010c0b30006000700f3
:1045bc00030037003e0090008000eb0001087800fb
:1045cc000080fa00000006000600fa00004f780098
:1045dc00110798002207980000002100200090008d
:1045ec00610060000000e0002f003a002e009000f7
:1045fc001100200001087800000021001000780054
:10460c009e0090001100980000002100100078001e
:10461c001e4878000000210010007800ae009000c9
:10462c00210098000000210010007800e6004000f6
:10463c000000210001087800000021001000780023
:10464c0080007800800b2100808f500003003a001e
:10465c0000002100210b210001087800000021003e
:10466c00a00090000110a100210098000000210082
:10467c00900090000000210010007800808f500006
:10468c0004003a0000002100a00090000100a000ee
:10469c0021009800408080000000e00005003a00f6
:1046ac000228a800030037002e0090008000eb00c9
:1046bc00010878000080fa00000006000800fa00eb
:1046cc00000f7800110798004247980033079800b4
:1046dc003e00900000004000800078001e00780032
:1046ec00010878001e007800100078008000780027
:1046fc000100a0001e007800010878001e00780060
:10470c00ce409000214098001e0078009e00900042
:10471c00210098000080fa00000006000800fa0052
:10472c00000f780011079800424798003307980053
:10473c003e00900000004000800078001e007800d1
:10474c00010878001e007800ce40900021409800af
:10475c001e0078009e009000210098000080fa0056
:10476c00000006000000fa0000002100200090006c
:10477c006200600000f0a7000000ea000000ea0000
:10478c004f00de00004078000080fa0000000600b8
:10479c000000fa0000002100200090006100600081
:1047ac0000f0a7000000ea000000ea004f00de0065
:1047bc00004078000080fa00000006000000fa00bb
:1047cc00002bef000006200010588800042bef008f
:1047dc00c000200030588800082bef000a2bef0097
:1047ec000c2bef000e2bef00102bef00122bef0019
:1047fc00142bef00162bef00202bef0000312000c4
:10480c0010598800382bef00402bef00482bef009d
:10481c00502bef003a2bef00422bef004a2bef000e
:10482c00522bef003c2bef00442bef004c2bef00f6
:10483c00542bef003e2bef00462bef004e2bef00de
:10484c00562bef0000002100505b88000000210077
:10485c00705b880000002100905b88000000210044
:10486c00b05b8800a02bef00a42bef00a82bef006f
:10487c00ac2bef00d02bef00d22bef00d42bef00a2
:10488c00d82bef0000302000b05e880000302000f4
:10489c00d05e8800f02bef00f22bef00022cef0023
:1048ac00204e220047000700005122005d00070047
:1048bc004052220065000700805322006d00070063
:1048cc000de8a9002de8a8001808a9003808a800d0
:1048dc001828a9003828a8001160800000f02000da
:1048ec00010070001060880001eba8002700070091
:1048fc00802bef00822bef00842bef00862bef0038
:10490c00882bef008a2bef008c2bef008e2bef0007
:10491c00902bef00922bef0010002000a05c880081
:10492c00962bef0010102000c05c88000080fa006d
:10493c00000006000000fa00000ca80000000000b7
:10494c000160800000102000008060000000e0008a
:10495c00fbff32000a0ba8000080fa0000000600e2
:10496c000000fa00002ca80000000000016080008c
:10497c0000202000008060000000e000fbff3200ff
:10498c000a2ba8000080fa00000006000000fa00c4
:10499c0000eca8000000000001608000000028006e
:1049ac00008060000000e000fbff32000aeba80072
:1049bc000080fa00000006000000fa000080fa00f7
:1049cc00000006000200fa00000f78001e007800bc
:1049dc00308188000080fa00000006000000fa0018
:1049ec005140800000402000008060000000e0008a
:1049fc0006003200308180000000e000020032002e
:104a0c0030818000000001000b48a9000080fa00f2
:104a1c00000006000200fa00000f78000080fa0087
:104a2c00000006000200fa00000f78001e0078005b
:104a3c00408188000080fa00000006000200fa00a5
:104a4c00000f78000080fa00000006000200fa0057
:104a5c00000f78001e007800508188000080fa005a
:104a6c00000006000200fa00000f78000080fa0037
:104a7c00000006000200fa00000f78001e0078000b
:104a8c00608188000080fa00000006000000fa0037
:104a9c00007c80000080fa00000006000200fa0092
:104aac00faff0700000f78001e00780024000700b2
:104abc000004e00002003200000028007100070032
:104acc001e0078002a0007000004e00002003200fb
:104adc00000024006b0007001e0078003200070065
:104aec000004e000020032000020200065000700f6
:104afc001e0078003a0007000004e00002003200bb
:104b0c00000820005f0007001e007800420007002c
:104b1c000004e000020032000004200059000700ed
:104b2c001e0078004a0007000004e000020032007a
:104b3c0000012000530007000080fa00000006006e
:104b4c000400fa00100798000040eb00004f7800ba
:104b5c001e0090000000e00002003d0010c0b300f9
:104b6c00004f78001e4078000080fa00000006001c
:104b7c000400fa00100798000040eb00004f78008a
:104b8c009e00900000002400008060000000e00007
:104b9c000200320010c0b300004f78001e407800b5
:104bac000080fa00000006000400fa0010079800cc
:104bbc000040eb00004f78009e0090000020200089
:104bcc00008060000000e0000200320010c0b30062
:104bdc00004f78001e4078000080fa0000000600ac
:104bec000400fa00100798000040eb00004f78001a
:104bfc009e00900000082000008060000000e00093
:104c0c000200320010c0b300004f78001e40780044
:104c1c000080fa00000006000400fa00100798005b
:104c2c000040eb00004f78009e0090000004200034
:104c3c00008060000000e0000200320010c0b300f1
:104c4c00004f78001e4078000080fa00000006003b
:104c5c000400fa00100798000040eb00004f7800a9
:104c6c001e009000700060000000e00002003200a6
:104c7c0010c0b300004f78001e4078000080fa008e
:104c8c00000006000200fa00000f78009e80ea0087
:104c9c00007c800000806000007c88000080fa00ae
:104cac00000006000000fa00802fef000080fa00e0
:104cbc00000006000000fa000421ef0030422f0033
:104ccc00400888002033280000088800d08180002c
:104cdc000000e00002003a00a06b22002500070053
:104cec000028a9002028a800600d21008040eb00be
:104cfc00014878002f0007000080fa000000060031
:104d0c000200fa00000f78009e007800410888002d
:104d1c00600d21008040eb00014878000080fa0013
:104d2c00000006000000fa00400880000080fa0035
:104d3c00000006000200fa00000f78009e007800c8
:104d4c0021088800600d21008040eb0001487800ac
:104d5c000080fa00000006000000fa002008800025
:104d6c000080fa00000006000000fa000080fa0043
:104d7c00000006000200fa00000f78002028a900ad
:104d8c009e007800d18188002028a8000080fa00bd
:104d9c00000006000000fa00600d21008040eb00ce
:104dac00014878002028a80001e1a8000080fa0042
:104dbc00000006000000fa0001e1a9002028a9006b
:104dcc000080fa00000006000200fa00600d2100cd
:104ddc00104f78001e4078000004e0000300320001
:104dec00600d21008040eb00014878001e407800e7
:104dfc000080fa00000006000000fa00700d21008f
:104e0c00104078000080fb000080fa0000000600d3
:104e1c000000fa00700d21008040eb000148780082
:104e2c000080fa00000006000000fa0010002300c9
:104e3c00307c880020032000407c88008c2fef0001
:104e4c0010012000507c880010102000707c88001d
:104e5c0060092000807c880010042000907c880071
:104e6c009a2fef00b82fef00ba2fef00be2fef00f4
:104e7c00002def00a02fef00a42fef00a62fef00c6
:104e8c00a82fef00aa2fef00ae2fef00b02fef00ee
:104e9c00b22fef003200200080072000a109200073
:104eac0053f82000804978008149780082497800c5
:104ebc0012002000600420007105200043f820003f
:104ecc008049780081497800824978000000000010
:104edc00207c8000610060000000e000fcff3a00d4
:104eec0000000000217c8000000220000080600097
:104efc000000e000fbff32000080fa00000006001a
:104f0c000000fa00707c8000ee800a0000000000b7
:104f1c000080fb0000f0a7000000ea000000ea009f
:104f2c004f00de00004078000080fa000000060010
:104f3c000000fa00062eef00222eef003e2eef00ae
:104f4c0000012000d0728800762eef00f0012000c6
:104f5c0010708800d0ff2f00f07088000080eb00ec
:104f6c00d0718800f0fe2f00b0728800f0ff210095
:104f7c00907388000c2eef00282eef00442eef00cb
:104f8c00602eef007c2eef000a2eef00262eef0095
:104f9c00422eef005e2eef007a2eef00082eef006f
:104fac00242eef00402eef005c2eef00782eef0049
:104fbc00f001200000708800e0392000e0708800cb
:104fcc00f00c2000c071880000c02200a072880084
:104fdc00f0002000807388000000eb0051052000d9
:104fec00b1468800a10a2000b146880000688800fc
:104ffc0030c4b30028edb700216d800000fc2f00f9
:10500c00008060000000a000206d8800008020005f
:10501c0051052000b1468800a10a2000b146880045
:0c502c00006888000080fa000000060008
:020000040000fa
:10503800b210000012000000800000000010000004
:10504800180000008000000074100000200000001c
:1050580080000000381000000200000082000000fc
:10506800ffff000034100000040000008000000072
:10507800c41000001200000080000000181000009a
:105088000e00000080000000d610000002000000a2
:10509800800000003a1000000200000080000000bc
:1050a8003e10000036000000800000003c100000a8
:1050b8000200000082000000010100002e10000024
:1050c8000600000080000000261000000800000014
:1050d80080000000941000001e0000008200000004
:1050e800286e69006c29000025006800076c09001b
:1050f8004c836a009074a0007ac000008068880021
:1051080000846c0082008100d810000002000000ba
:0851180080000000000000000f
:020000040000fa
:105120000000fa000145800080ff2f000080600031
:105130000000a00000458800b1438000f0ff280077
:105140000080600000c0a000b043880001458000de
:10515000f0f82f00008060000040a00000458800ab
:10516000f1448000f0f82f00008060000040a000b3
:10517000f04488003142800080ff2f0000806000f2
:105180000000a00030428800c1428000f0f82f00eb
:10519000008060000040a000c042880021428000e2
:1051a000f0ff28000080600000c0a00020428800be
:1051b00041428000f0f82f00008060000040a00015
:1051c0004042880001428000f0f82f00008060001b
:1051d0000050a000004288000080fa000000060095
:1051e0000200fa00000f780003003700006a280070
:1051f00011002000500007001e00780000f0a700fa
:105200000000ea000000ea004f00de0000407800e5
:105210001e0fe9000004e000f4ff3a000080fa00ed
:10522000000006000200fa00000f780005003700b9
:1052300000c82000010020003f00070001fe2f00f1
:105240001e8f40001e007800ff0f5000f8ff3e0048
:105250000300370040062000010020003600070050
:105260001e00780000f0a7000000ea000000ea003d
:105270004f00de00004078001e0fe9000004e0004f
:10528000f4ff3a000080fa00000006000200fa0075
:10529000000f780021028000200f200000806000b5
:1052a0001e007000200288000080fa000000060046
:1052b0000000fa00c3e8a8000000000000000000a1
:1052c0000080fa00000006000000fa001bff070043
:1052d000d8fe070092ff07004bfc0700aafa070060
:1052e00039fd07007df6070075fe0700f0ff070097
:1052f00000022000e5ff07000080fa000000060021
:105300000200fa00000f78009e007800c18188003a
:105310000000fe000080fa00000006000000fa0015
:105320004007210080077800c008210000018800a4
:085330000080fa0000000600f5
:020000040000fa
:10533800f03fb1000180b10006003500ee0309001e
:1053480000000000403fb1000180b100fbff3d00bc
:105358001000b000203fb0000200350000800900b6
:08536800000000000000060037
:020000040000fa
:10537000809fbe00ec80570031007800a08188003b
:105380001100780036f0b7004f00be0000000600a4
:020000040000fa
:020000040005f5
:047e0000ffffff0081
:020000040000fa
:020000040005f5
:047e2000ffffff0061
:020000040000fa
:020000040005f5
:047e300078ffff00d8
:020000040000fa
:020000040005f5
:047e380078ffff00d0
:020000040000fa
:020000040005f5
:047e40007f7fff0041
:020000040000fa
:020000040005f5
:047e4800ffffff0039
:020000040000fa
:020000040005f5
:047e5000ddffff0053
:020000040000fa
:020000040005f5
:047e58000000ff0027
:020000040000fa
:020000040005f5
